{
	"lab01-smart-contracts-with-solidity/artifacts/Codes/event_enum.sol": {
		"EnumAndEventsExample": {
			"abi": [
				{
					"inputs": [],
					"stateMutability": "nonpayable",
					"type": "constructor"
				},
				{
					"anonymous": false,
					"inputs": [
						{
							"indexed": false,
							"internalType": "enum EnumAndEventsExample.ShippingStatus",
							"name": "newStatus",
							"type": "uint8"
						}
					],
					"name": "StatusChanged",
					"type": "event"
				},
				{
					"inputs": [],
					"name": "cancelProduct",
					"outputs": [],
					"stateMutability": "nonpayable",
					"type": "function"
				},
				{
					"inputs": [],
					"name": "deliverProduct",
					"outputs": [],
					"stateMutability": "nonpayable",
					"type": "function"
				},
				{
					"inputs": [],
					"name": "getStatus",
					"outputs": [
						{
							"internalType": "string",
							"name": "",
							"type": "string"
						}
					],
					"stateMutability": "view",
					"type": "function"
				},
				{
					"inputs": [],
					"name": "shipProduct",
					"outputs": [],
					"stateMutability": "nonpayable",
					"type": "function"
				},
				{
					"inputs": [],
					"name": "status",
					"outputs": [
						{
							"internalType": "enum EnumAndEventsExample.ShippingStatus",
							"name": "",
							"type": "uint8"
						}
					],
					"stateMutability": "view",
					"type": "function"
				}
			],
			"devdoc": {
				"kind": "dev",
				"methods": {},
				"version": 1
			},
			"evm": {
				"assembly": "    /* \"lab01-smart-contracts-with-solidity/artifacts/Codes/event_enum.sol\":57:1914  contract EnumAndEventsExample {... */\n  mstore(0x40, 0x80)\n    /* \"lab01-smart-contracts-with-solidity/artifacts/Codes/event_enum.sol\":444:570  constructor() {... */\n  callvalue\n  dup1\n  iszero\n  tag_1\n  jumpi\n  revert(0x00, 0x00)\ntag_1:\n  pop\n    /* \"lab01-smart-contracts-with-solidity/artifacts/Codes/event_enum.sol\":477:499  ShippingStatus.Pending */\n  0x00\n    /* \"lab01-smart-contracts-with-solidity/artifacts/Codes/event_enum.sol\":468:474  status */\n  0x00\n  0x00\n    /* \"lab01-smart-contracts-with-solidity/artifacts/Codes/event_enum.sol\":468:499  status = ShippingStatus.Pending */\n  0x0100\n  exp\n  dup2\n  sload\n  dup2\n  0xff\n  mul\n  not\n  and\n  swap1\n  dup4\n  0x03\n  dup2\n  gt\n  iszero\n  tag_4\n  jumpi\n  tag_5\n  tag_6\n  jump\t// in\ntag_5:\ntag_4:\n  mul\n  or\n  swap1\n  sstore\n  pop\n    /* \"lab01-smart-contracts-with-solidity/artifacts/Codes/event_enum.sol\":514:535  StatusChanged(status) */\n  0xafa725e7f44cadb687a7043853fa1a7e7b8f0da74ce87ec546e9420f04da8c1e\n    /* \"lab01-smart-contracts-with-solidity/artifacts/Codes/event_enum.sol\":528:534  status */\n  0x00\n  0x00\n  swap1\n  sload\n  swap1\n  0x0100\n  exp\n  swap1\n  div\n  0xff\n  and\n    /* \"lab01-smart-contracts-with-solidity/artifacts/Codes/event_enum.sol\":514:535  StatusChanged(status) */\n  mload(0x40)\n  tag_7\n  swap2\n  swap1\n  tag_8\n  jump\t// in\ntag_7:\n  mload(0x40)\n  dup1\n  swap2\n  sub\n  swap1\n  log1\n    /* \"lab01-smart-contracts-with-solidity/artifacts/Codes/event_enum.sol\":57:1914  contract EnumAndEventsExample {... */\n  jump(tag_9)\n    /* \"#utility.yul\":7:187   */\ntag_6:\n    /* \"#utility.yul\":55:132   */\n  0x4e487b7100000000000000000000000000000000000000000000000000000000\n    /* \"#utility.yul\":52:53   */\n  0x00\n    /* \"#utility.yul\":45:133   */\n  mstore\n    /* \"#utility.yul\":152:156   */\n  0x21\n    /* \"#utility.yul\":149:150   */\n  0x04\n    /* \"#utility.yul\":142:157   */\n  mstore\n    /* \"#utility.yul\":176:180   */\n  0x24\n    /* \"#utility.yul\":173:174   */\n  0x00\n    /* \"#utility.yul\":166:181   */\n  revert\n    /* \"#utility.yul\":193:314   */\ntag_10:\n    /* \"#utility.yul\":282:283   */\n  0x04\n    /* \"#utility.yul\":275:280   */\n  dup2\n    /* \"#utility.yul\":272:284   */\n  lt\n    /* \"#utility.yul\":262:308   */\n  tag_17\n  jumpi\n    /* \"#utility.yul\":288:306   */\n  tag_18\n  tag_6\n  jump\t// in\ntag_18:\n    /* \"#utility.yul\":262:308   */\ntag_17:\n    /* \"#utility.yul\":193:314   */\n  pop\n  jump\t// out\n    /* \"#utility.yul\":320:463   */\ntag_11:\n    /* \"#utility.yul\":373:380   */\n  0x00\n    /* \"#utility.yul\":402:407   */\n  dup2\n    /* \"#utility.yul\":391:407   */\n  swap1\n  pop\n    /* \"#utility.yul\":408:457   */\n  tag_20\n    /* \"#utility.yul\":451:456   */\n  dup3\n    /* \"#utility.yul\":408:457   */\n  tag_10\n  jump\t// in\ntag_20:\n    /* \"#utility.yul\":320:463   */\n  swap2\n  swap1\n  pop\n  jump\t// out\n    /* \"#utility.yul\":469:612   */\ntag_12:\n    /* \"#utility.yul\":533:542   */\n  0x00\n    /* \"#utility.yul\":566:606   */\n  tag_22\n    /* \"#utility.yul\":600:605   */\n  dup3\n    /* \"#utility.yul\":566:606   */\n  tag_11\n  jump\t// in\ntag_22:\n    /* \"#utility.yul\":553:606   */\n  swap1\n  pop\n    /* \"#utility.yul\":469:612   */\n  swap2\n  swap1\n  pop\n  jump\t// out\n    /* \"#utility.yul\":618:777   */\ntag_13:\n    /* \"#utility.yul\":719:770   */\n  tag_24\n    /* \"#utility.yul\":764:769   */\n  dup2\n    /* \"#utility.yul\":719:770   */\n  tag_12\n  jump\t// in\ntag_24:\n    /* \"#utility.yul\":714:717   */\n  dup3\n    /* \"#utility.yul\":707:771   */\n  mstore\n    /* \"#utility.yul\":618:777   */\n  pop\n  pop\n  jump\t// out\n    /* \"#utility.yul\":783:1033   */\ntag_8:\n    /* \"#utility.yul\":890:894   */\n  0x00\n    /* \"#utility.yul\":928:930   */\n  0x20\n    /* \"#utility.yul\":917:926   */\n  dup3\n    /* \"#utility.yul\":913:931   */\n  add\n    /* \"#utility.yul\":905:931   */\n  swap1\n  pop\n    /* \"#utility.yul\":941:1026   */\n  tag_26\n    /* \"#utility.yul\":1023:1024   */\n  0x00\n    /* \"#utility.yul\":1012:1021   */\n  dup4\n    /* \"#utility.yul\":1008:1025   */\n  add\n    /* \"#utility.yul\":999:1005   */\n  dup5\n    /* \"#utility.yul\":941:1026   */\n  tag_13\n  jump\t// in\ntag_26:\n    /* \"#utility.yul\":783:1033   */\n  swap3\n  swap2\n  pop\n  pop\n  jump\t// out\n    /* \"lab01-smart-contracts-with-solidity/artifacts/Codes/event_enum.sol\":57:1914  contract EnumAndEventsExample {... */\ntag_9:\n  dataSize(sub_0)\n  dup1\n  dataOffset(sub_0)\n  0x00\n  codecopy\n  0x00\n  return\nstop\n\nsub_0: assembly {\n        /* \"lab01-smart-contracts-with-solidity/artifacts/Codes/event_enum.sol\":57:1914  contract EnumAndEventsExample {... */\n      mstore(0x40, 0x80)\n      callvalue\n      dup1\n      iszero\n      tag_1\n      jumpi\n      revert(0x00, 0x00)\n    tag_1:\n      pop\n      jumpi(tag_2, lt(calldatasize, 0x04))\n      shr(0xe0, calldataload(0x00))\n      dup1\n      0x200d2ed2\n      eq\n      tag_3\n      jumpi\n      dup1\n      0x4e69d560\n      eq\n      tag_4\n      jumpi\n      dup1\n      0x7272a9c6\n      eq\n      tag_5\n      jumpi\n      dup1\n      0xd2ceb00c\n      eq\n      tag_6\n      jumpi\n      dup1\n      0xf513a4b2\n      eq\n      tag_7\n      jumpi\n    tag_2:\n      revert(0x00, 0x00)\n        /* \"lab01-smart-contracts-with-solidity/artifacts/Codes/event_enum.sol\":267:295  ShippingStatus public status */\n    tag_3:\n      tag_8\n      tag_9\n      jump\t// in\n    tag_8:\n      mload(0x40)\n      tag_10\n      swap2\n      swap1\n      tag_11\n      jump\t// in\n    tag_10:\n      mload(0x40)\n      dup1\n      swap2\n      sub\n      swap1\n      return\n        /* \"lab01-smart-contracts-with-solidity/artifacts/Codes/event_enum.sol\":1537:1912  function getStatus() public view returns (string memory) {... */\n    tag_4:\n      tag_12\n      tag_13\n      jump\t// in\n    tag_12:\n      mload(0x40)\n      tag_14\n      swap2\n      swap1\n      tag_15\n      jump\t// in\n    tag_14:\n      mload(0x40)\n      dup1\n      swap2\n      sub\n      swap1\n      return\n        /* \"lab01-smart-contracts-with-solidity/artifacts/Codes/event_enum.sol\":633:866  function shipProduct() public {... */\n    tag_5:\n      tag_16\n      tag_17\n      jump\t// in\n    tag_16:\n      stop\n        /* \"lab01-smart-contracts-with-solidity/artifacts/Codes/event_enum.sol\":1214:1460  function cancelProduct() public {... */\n    tag_6:\n      tag_18\n      tag_19\n      jump\t// in\n    tag_18:\n      stop\n        /* \"lab01-smart-contracts-with-solidity/artifacts/Codes/event_enum.sol\":931:1169  function deliverProduct() public {... */\n    tag_7:\n      tag_20\n      tag_21\n      jump\t// in\n    tag_20:\n      stop\n        /* \"lab01-smart-contracts-with-solidity/artifacts/Codes/event_enum.sol\":267:295  ShippingStatus public status */\n    tag_9:\n      0x00\n      0x00\n      swap1\n      sload\n      swap1\n      0x0100\n      exp\n      swap1\n      div\n      0xff\n      and\n      dup2\n      jump\t// out\n        /* \"lab01-smart-contracts-with-solidity/artifacts/Codes/event_enum.sol\":1537:1912  function getStatus() public view returns (string memory) {... */\n    tag_13:\n        /* \"lab01-smart-contracts-with-solidity/artifacts/Codes/event_enum.sol\":1579:1592  string memory */\n      0x60\n        /* \"lab01-smart-contracts-with-solidity/artifacts/Codes/event_enum.sol\":1618:1640  ShippingStatus.Pending */\n      0x00\n        /* \"lab01-smart-contracts-with-solidity/artifacts/Codes/event_enum.sol\":1608:1640  status == ShippingStatus.Pending */\n      0x03\n      dup2\n      gt\n      iszero\n      tag_23\n      jumpi\n      tag_24\n      tag_25\n      jump\t// in\n    tag_24:\n    tag_23:\n        /* \"lab01-smart-contracts-with-solidity/artifacts/Codes/event_enum.sol\":1608:1614  status */\n      0x00\n      0x00\n      swap1\n      sload\n      swap1\n      0x0100\n      exp\n      swap1\n      div\n      0xff\n      and\n        /* \"lab01-smart-contracts-with-solidity/artifacts/Codes/event_enum.sol\":1608:1640  status == ShippingStatus.Pending */\n      0x03\n      dup2\n      gt\n      iszero\n      tag_26\n      jumpi\n      tag_27\n      tag_25\n      jump\t// in\n    tag_27:\n    tag_26:\n      sub\n        /* \"lab01-smart-contracts-with-solidity/artifacts/Codes/event_enum.sol\":1604:1906  if (status == ShippingStatus.Pending) {... */\n      tag_28\n      jumpi\n        /* \"lab01-smart-contracts-with-solidity/artifacts/Codes/event_enum.sol\":1656:1672  return \"Pending\" */\n      mload(0x40)\n      dup1\n      0x40\n      add\n      0x40\n      mstore\n      dup1\n      0x07\n      dup2\n      mstore\n      0x20\n      add\n      0x50656e64696e6700000000000000000000000000000000000000000000000000\n      dup2\n      mstore\n      pop\n      swap1\n      pop\n      jump(tag_22)\n        /* \"lab01-smart-contracts-with-solidity/artifacts/Codes/event_enum.sol\":1604:1906  if (status == ShippingStatus.Pending) {... */\n    tag_28:\n        /* \"lab01-smart-contracts-with-solidity/artifacts/Codes/event_enum.sol\":1703:1725  ShippingStatus.Shipped */\n      0x01\n        /* \"lab01-smart-contracts-with-solidity/artifacts/Codes/event_enum.sol\":1693:1725  status == ShippingStatus.Shipped */\n      0x03\n      dup2\n      gt\n      iszero\n      tag_30\n      jumpi\n      tag_31\n      tag_25\n      jump\t// in\n    tag_31:\n    tag_30:\n        /* \"lab01-smart-contracts-with-solidity/artifacts/Codes/event_enum.sol\":1693:1699  status */\n      0x00\n      0x00\n      swap1\n      sload\n      swap1\n      0x0100\n      exp\n      swap1\n      div\n      0xff\n      and\n        /* \"lab01-smart-contracts-with-solidity/artifacts/Codes/event_enum.sol\":1693:1725  status == ShippingStatus.Shipped */\n      0x03\n      dup2\n      gt\n      iszero\n      tag_32\n      jumpi\n      tag_33\n      tag_25\n      jump\t// in\n    tag_33:\n    tag_32:\n      sub\n        /* \"lab01-smart-contracts-with-solidity/artifacts/Codes/event_enum.sol\":1689:1906  if (status == ShippingStatus.Shipped) {... */\n      tag_34\n      jumpi\n        /* \"lab01-smart-contracts-with-solidity/artifacts/Codes/event_enum.sol\":1741:1757  return \"Shipped\" */\n      mload(0x40)\n      dup1\n      0x40\n      add\n      0x40\n      mstore\n      dup1\n      0x07\n      dup2\n      mstore\n      0x20\n      add\n      0x5368697070656400000000000000000000000000000000000000000000000000\n      dup2\n      mstore\n      pop\n      swap1\n      pop\n      jump(tag_22)\n        /* \"lab01-smart-contracts-with-solidity/artifacts/Codes/event_enum.sol\":1689:1906  if (status == ShippingStatus.Shipped) {... */\n    tag_34:\n        /* \"lab01-smart-contracts-with-solidity/artifacts/Codes/event_enum.sol\":1788:1812  ShippingStatus.Delivered */\n      0x02\n        /* \"lab01-smart-contracts-with-solidity/artifacts/Codes/event_enum.sol\":1778:1812  status == ShippingStatus.Delivered */\n      0x03\n      dup2\n      gt\n      iszero\n      tag_36\n      jumpi\n      tag_37\n      tag_25\n      jump\t// in\n    tag_37:\n    tag_36:\n        /* \"lab01-smart-contracts-with-solidity/artifacts/Codes/event_enum.sol\":1778:1784  status */\n      0x00\n      0x00\n      swap1\n      sload\n      swap1\n      0x0100\n      exp\n      swap1\n      div\n      0xff\n      and\n        /* \"lab01-smart-contracts-with-solidity/artifacts/Codes/event_enum.sol\":1778:1812  status == ShippingStatus.Delivered */\n      0x03\n      dup2\n      gt\n      iszero\n      tag_38\n      jumpi\n      tag_39\n      tag_25\n      jump\t// in\n    tag_39:\n    tag_38:\n      sub\n        /* \"lab01-smart-contracts-with-solidity/artifacts/Codes/event_enum.sol\":1774:1906  if (status == ShippingStatus.Delivered) {... */\n      tag_40\n      jumpi\n        /* \"lab01-smart-contracts-with-solidity/artifacts/Codes/event_enum.sol\":1828:1846  return \"Delivered\" */\n      mload(0x40)\n      dup1\n      0x40\n      add\n      0x40\n      mstore\n      dup1\n      0x09\n      dup2\n      mstore\n      0x20\n      add\n      0x44656c6976657265640000000000000000000000000000000000000000000000\n      dup2\n      mstore\n      pop\n      swap1\n      pop\n      jump(tag_22)\n        /* \"lab01-smart-contracts-with-solidity/artifacts/Codes/event_enum.sol\":1774:1906  if (status == ShippingStatus.Delivered) {... */\n    tag_40:\n        /* \"lab01-smart-contracts-with-solidity/artifacts/Codes/event_enum.sol\":1877:1895  return \"Cancelled\" */\n      mload(0x40)\n      dup1\n      0x40\n      add\n      0x40\n      mstore\n      dup1\n      0x09\n      dup2\n      mstore\n      0x20\n      add\n      0x43616e63656c6c65640000000000000000000000000000000000000000000000\n      dup2\n      mstore\n      pop\n      swap1\n      pop\n        /* \"lab01-smart-contracts-with-solidity/artifacts/Codes/event_enum.sol\":1537:1912  function getStatus() public view returns (string memory) {... */\n    tag_22:\n      swap1\n      jump\t// out\n        /* \"lab01-smart-contracts-with-solidity/artifacts/Codes/event_enum.sol\":633:866  function shipProduct() public {... */\n    tag_17:\n        /* \"lab01-smart-contracts-with-solidity/artifacts/Codes/event_enum.sol\":691:713  ShippingStatus.Pending */\n      0x00\n        /* \"lab01-smart-contracts-with-solidity/artifacts/Codes/event_enum.sol\":681:713  status == ShippingStatus.Pending */\n      0x03\n      dup2\n      gt\n      iszero\n      tag_43\n      jumpi\n      tag_44\n      tag_25\n      jump\t// in\n    tag_44:\n    tag_43:\n        /* \"lab01-smart-contracts-with-solidity/artifacts/Codes/event_enum.sol\":681:687  status */\n      0x00\n      0x00\n      swap1\n      sload\n      swap1\n      0x0100\n      exp\n      swap1\n      div\n      0xff\n      and\n        /* \"lab01-smart-contracts-with-solidity/artifacts/Codes/event_enum.sol\":681:713  status == ShippingStatus.Pending */\n      0x03\n      dup2\n      gt\n      iszero\n      tag_45\n      jumpi\n      tag_46\n      tag_25\n      jump\t// in\n    tag_46:\n    tag_45:\n      eq\n        /* \"lab01-smart-contracts-with-solidity/artifacts/Codes/event_enum.sol\":673:749  require(status == ShippingStatus.Pending, \"Product is not in Pending state\") */\n      tag_47\n      jumpi\n      mload(0x40)\n      0x08c379a000000000000000000000000000000000000000000000000000000000\n      dup2\n      mstore\n      0x04\n      add\n      tag_48\n      swap1\n      tag_49\n      jump\t// in\n    tag_48:\n      mload(0x40)\n      dup1\n      swap2\n      sub\n      swap1\n      revert\n    tag_47:\n        /* \"lab01-smart-contracts-with-solidity/artifacts/Codes/event_enum.sol\":768:790  ShippingStatus.Shipped */\n      0x01\n        /* \"lab01-smart-contracts-with-solidity/artifacts/Codes/event_enum.sol\":759:765  status */\n      0x00\n      0x00\n        /* \"lab01-smart-contracts-with-solidity/artifacts/Codes/event_enum.sol\":759:790  status = ShippingStatus.Shipped */\n      0x0100\n      exp\n      dup2\n      sload\n      dup2\n      0xff\n      mul\n      not\n      and\n      swap1\n      dup4\n      0x03\n      dup2\n      gt\n      iszero\n      tag_50\n      jumpi\n      tag_51\n      tag_25\n      jump\t// in\n    tag_51:\n    tag_50:\n      mul\n      or\n      swap1\n      sstore\n      pop\n        /* \"lab01-smart-contracts-with-solidity/artifacts/Codes/event_enum.sol\":805:826  StatusChanged(status) */\n      0xafa725e7f44cadb687a7043853fa1a7e7b8f0da74ce87ec546e9420f04da8c1e\n        /* \"lab01-smart-contracts-with-solidity/artifacts/Codes/event_enum.sol\":819:825  status */\n      0x00\n      0x00\n      swap1\n      sload\n      swap1\n      0x0100\n      exp\n      swap1\n      div\n      0xff\n      and\n        /* \"lab01-smart-contracts-with-solidity/artifacts/Codes/event_enum.sol\":805:826  StatusChanged(status) */\n      mload(0x40)\n      tag_52\n      swap2\n      swap1\n      tag_11\n      jump\t// in\n    tag_52:\n      mload(0x40)\n      dup1\n      swap2\n      sub\n      swap1\n      log1\n        /* \"lab01-smart-contracts-with-solidity/artifacts/Codes/event_enum.sol\":633:866  function shipProduct() public {... */\n      jump\t// out\n        /* \"lab01-smart-contracts-with-solidity/artifacts/Codes/event_enum.sol\":1214:1460  function cancelProduct() public {... */\n    tag_19:\n        /* \"lab01-smart-contracts-with-solidity/artifacts/Codes/event_enum.sol\":1274:1296  ShippingStatus.Pending */\n      0x00\n        /* \"lab01-smart-contracts-with-solidity/artifacts/Codes/event_enum.sol\":1264:1296  status == ShippingStatus.Pending */\n      0x03\n      dup2\n      gt\n      iszero\n      tag_54\n      jumpi\n      tag_55\n      tag_25\n      jump\t// in\n    tag_55:\n    tag_54:\n        /* \"lab01-smart-contracts-with-solidity/artifacts/Codes/event_enum.sol\":1264:1270  status */\n      0x00\n      0x00\n      swap1\n      sload\n      swap1\n      0x0100\n      exp\n      swap1\n      div\n      0xff\n      and\n        /* \"lab01-smart-contracts-with-solidity/artifacts/Codes/event_enum.sol\":1264:1296  status == ShippingStatus.Pending */\n      0x03\n      dup2\n      gt\n      iszero\n      tag_56\n      jumpi\n      tag_57\n      tag_25\n      jump\t// in\n    tag_57:\n    tag_56:\n      eq\n        /* \"lab01-smart-contracts-with-solidity/artifacts/Codes/event_enum.sol\":1256:1341  require(status == ShippingStatus.Pending, \"Product can only be cancelled if Pending\") */\n      tag_58\n      jumpi\n      mload(0x40)\n      0x08c379a000000000000000000000000000000000000000000000000000000000\n      dup2\n      mstore\n      0x04\n      add\n      tag_59\n      swap1\n      tag_60\n      jump\t// in\n    tag_59:\n      mload(0x40)\n      dup1\n      swap2\n      sub\n      swap1\n      revert\n    tag_58:\n        /* \"lab01-smart-contracts-with-solidity/artifacts/Codes/event_enum.sol\":1360:1384  ShippingStatus.Cancelled */\n      0x03\n        /* \"lab01-smart-contracts-with-solidity/artifacts/Codes/event_enum.sol\":1351:1357  status */\n      0x00\n      0x00\n        /* \"lab01-smart-contracts-with-solidity/artifacts/Codes/event_enum.sol\":1351:1384  status = ShippingStatus.Cancelled */\n      0x0100\n      exp\n      dup2\n      sload\n      dup2\n      0xff\n      mul\n      not\n      and\n      swap1\n      dup4\n      0x03\n      dup2\n      gt\n      iszero\n      tag_61\n      jumpi\n      tag_62\n      tag_25\n      jump\t// in\n    tag_62:\n    tag_61:\n      mul\n      or\n      swap1\n      sstore\n      pop\n        /* \"lab01-smart-contracts-with-solidity/artifacts/Codes/event_enum.sol\":1399:1420  StatusChanged(status) */\n      0xafa725e7f44cadb687a7043853fa1a7e7b8f0da74ce87ec546e9420f04da8c1e\n        /* \"lab01-smart-contracts-with-solidity/artifacts/Codes/event_enum.sol\":1413:1419  status */\n      0x00\n      0x00\n      swap1\n      sload\n      swap1\n      0x0100\n      exp\n      swap1\n      div\n      0xff\n      and\n        /* \"lab01-smart-contracts-with-solidity/artifacts/Codes/event_enum.sol\":1399:1420  StatusChanged(status) */\n      mload(0x40)\n      tag_63\n      swap2\n      swap1\n      tag_11\n      jump\t// in\n    tag_63:\n      mload(0x40)\n      dup1\n      swap2\n      sub\n      swap1\n      log1\n        /* \"lab01-smart-contracts-with-solidity/artifacts/Codes/event_enum.sol\":1214:1460  function cancelProduct() public {... */\n      jump\t// out\n        /* \"lab01-smart-contracts-with-solidity/artifacts/Codes/event_enum.sol\":931:1169  function deliverProduct() public {... */\n    tag_21:\n        /* \"lab01-smart-contracts-with-solidity/artifacts/Codes/event_enum.sol\":992:1014  ShippingStatus.Shipped */\n      0x01\n        /* \"lab01-smart-contracts-with-solidity/artifacts/Codes/event_enum.sol\":982:1014  status == ShippingStatus.Shipped */\n      0x03\n      dup2\n      gt\n      iszero\n      tag_65\n      jumpi\n      tag_66\n      tag_25\n      jump\t// in\n    tag_66:\n    tag_65:\n        /* \"lab01-smart-contracts-with-solidity/artifacts/Codes/event_enum.sol\":982:988  status */\n      0x00\n      0x00\n      swap1\n      sload\n      swap1\n      0x0100\n      exp\n      swap1\n      div\n      0xff\n      and\n        /* \"lab01-smart-contracts-with-solidity/artifacts/Codes/event_enum.sol\":982:1014  status == ShippingStatus.Shipped */\n      0x03\n      dup2\n      gt\n      iszero\n      tag_67\n      jumpi\n      tag_68\n      tag_25\n      jump\t// in\n    tag_68:\n    tag_67:\n      eq\n        /* \"lab01-smart-contracts-with-solidity/artifacts/Codes/event_enum.sol\":974:1050  require(status == ShippingStatus.Shipped, \"Product is not in Shipped state\") */\n      tag_69\n      jumpi\n      mload(0x40)\n      0x08c379a000000000000000000000000000000000000000000000000000000000\n      dup2\n      mstore\n      0x04\n      add\n      tag_70\n      swap1\n      tag_71\n      jump\t// in\n    tag_70:\n      mload(0x40)\n      dup1\n      swap2\n      sub\n      swap1\n      revert\n    tag_69:\n        /* \"lab01-smart-contracts-with-solidity/artifacts/Codes/event_enum.sol\":1069:1093  ShippingStatus.Delivered */\n      0x02\n        /* \"lab01-smart-contracts-with-solidity/artifacts/Codes/event_enum.sol\":1060:1066  status */\n      0x00\n      0x00\n        /* \"lab01-smart-contracts-with-solidity/artifacts/Codes/event_enum.sol\":1060:1093  status = ShippingStatus.Delivered */\n      0x0100\n      exp\n      dup2\n      sload\n      dup2\n      0xff\n      mul\n      not\n      and\n      swap1\n      dup4\n      0x03\n      dup2\n      gt\n      iszero\n      tag_72\n      jumpi\n      tag_73\n      tag_25\n      jump\t// in\n    tag_73:\n    tag_72:\n      mul\n      or\n      swap1\n      sstore\n      pop\n        /* \"lab01-smart-contracts-with-solidity/artifacts/Codes/event_enum.sol\":1108:1129  StatusChanged(status) */\n      0xafa725e7f44cadb687a7043853fa1a7e7b8f0da74ce87ec546e9420f04da8c1e\n        /* \"lab01-smart-contracts-with-solidity/artifacts/Codes/event_enum.sol\":1122:1128  status */\n      0x00\n      0x00\n      swap1\n      sload\n      swap1\n      0x0100\n      exp\n      swap1\n      div\n      0xff\n      and\n        /* \"lab01-smart-contracts-with-solidity/artifacts/Codes/event_enum.sol\":1108:1129  StatusChanged(status) */\n      mload(0x40)\n      tag_74\n      swap2\n      swap1\n      tag_11\n      jump\t// in\n    tag_74:\n      mload(0x40)\n      dup1\n      swap2\n      sub\n      swap1\n      log1\n        /* \"lab01-smart-contracts-with-solidity/artifacts/Codes/event_enum.sol\":931:1169  function deliverProduct() public {... */\n      jump\t// out\n        /* \"#utility.yul\":7:187   */\n    tag_25:\n        /* \"#utility.yul\":55:132   */\n      0x4e487b7100000000000000000000000000000000000000000000000000000000\n        /* \"#utility.yul\":52:53   */\n      0x00\n        /* \"#utility.yul\":45:133   */\n      mstore\n        /* \"#utility.yul\":152:156   */\n      0x21\n        /* \"#utility.yul\":149:150   */\n      0x04\n        /* \"#utility.yul\":142:157   */\n      mstore\n        /* \"#utility.yul\":176:180   */\n      0x24\n        /* \"#utility.yul\":173:174   */\n      0x00\n        /* \"#utility.yul\":166:181   */\n      revert\n        /* \"#utility.yul\":193:314   */\n    tag_75:\n        /* \"#utility.yul\":282:283   */\n      0x04\n        /* \"#utility.yul\":275:280   */\n      dup2\n        /* \"#utility.yul\":272:284   */\n      lt\n        /* \"#utility.yul\":262:308   */\n      tag_93\n      jumpi\n        /* \"#utility.yul\":288:306   */\n      tag_94\n      tag_25\n      jump\t// in\n    tag_94:\n        /* \"#utility.yul\":262:308   */\n    tag_93:\n        /* \"#utility.yul\":193:314   */\n      pop\n      jump\t// out\n        /* \"#utility.yul\":320:463   */\n    tag_76:\n        /* \"#utility.yul\":373:380   */\n      0x00\n        /* \"#utility.yul\":402:407   */\n      dup2\n        /* \"#utility.yul\":391:407   */\n      swap1\n      pop\n        /* \"#utility.yul\":408:457   */\n      tag_96\n        /* \"#utility.yul\":451:456   */\n      dup3\n        /* \"#utility.yul\":408:457   */\n      tag_75\n      jump\t// in\n    tag_96:\n        /* \"#utility.yul\":320:463   */\n      swap2\n      swap1\n      pop\n      jump\t// out\n        /* \"#utility.yul\":469:612   */\n    tag_77:\n        /* \"#utility.yul\":533:542   */\n      0x00\n        /* \"#utility.yul\":566:606   */\n      tag_98\n        /* \"#utility.yul\":600:605   */\n      dup3\n        /* \"#utility.yul\":566:606   */\n      tag_76\n      jump\t// in\n    tag_98:\n        /* \"#utility.yul\":553:606   */\n      swap1\n      pop\n        /* \"#utility.yul\":469:612   */\n      swap2\n      swap1\n      pop\n      jump\t// out\n        /* \"#utility.yul\":618:777   */\n    tag_78:\n        /* \"#utility.yul\":719:770   */\n      tag_100\n        /* \"#utility.yul\":764:769   */\n      dup2\n        /* \"#utility.yul\":719:770   */\n      tag_77\n      jump\t// in\n    tag_100:\n        /* \"#utility.yul\":714:717   */\n      dup3\n        /* \"#utility.yul\":707:771   */\n      mstore\n        /* \"#utility.yul\":618:777   */\n      pop\n      pop\n      jump\t// out\n        /* \"#utility.yul\":783:1033   */\n    tag_11:\n        /* \"#utility.yul\":890:894   */\n      0x00\n        /* \"#utility.yul\":928:930   */\n      0x20\n        /* \"#utility.yul\":917:926   */\n      dup3\n        /* \"#utility.yul\":913:931   */\n      add\n        /* \"#utility.yul\":905:931   */\n      swap1\n      pop\n        /* \"#utility.yul\":941:1026   */\n      tag_102\n        /* \"#utility.yul\":1023:1024   */\n      0x00\n        /* \"#utility.yul\":1012:1021   */\n      dup4\n        /* \"#utility.yul\":1008:1025   */\n      add\n        /* \"#utility.yul\":999:1005   */\n      dup5\n        /* \"#utility.yul\":941:1026   */\n      tag_78\n      jump\t// in\n    tag_102:\n        /* \"#utility.yul\":783:1033   */\n      swap3\n      swap2\n      pop\n      pop\n      jump\t// out\n        /* \"#utility.yul\":1039:1138   */\n    tag_79:\n        /* \"#utility.yul\":1091:1097   */\n      0x00\n        /* \"#utility.yul\":1125:1130   */\n      dup2\n        /* \"#utility.yul\":1119:1131   */\n      mload\n        /* \"#utility.yul\":1109:1131   */\n      swap1\n      pop\n        /* \"#utility.yul\":1039:1138   */\n      swap2\n      swap1\n      pop\n      jump\t// out\n        /* \"#utility.yul\":1144:1313   */\n    tag_80:\n        /* \"#utility.yul\":1228:1239   */\n      0x00\n        /* \"#utility.yul\":1262:1268   */\n      dup3\n        /* \"#utility.yul\":1257:1260   */\n      dup3\n        /* \"#utility.yul\":1250:1269   */\n      mstore\n        /* \"#utility.yul\":1302:1306   */\n      0x20\n        /* \"#utility.yul\":1297:1300   */\n      dup3\n        /* \"#utility.yul\":1293:1307   */\n      add\n        /* \"#utility.yul\":1278:1307   */\n      swap1\n      pop\n        /* \"#utility.yul\":1144:1313   */\n      swap3\n      swap2\n      pop\n      pop\n      jump\t// out\n        /* \"#utility.yul\":1319:1458   */\n    tag_81:\n        /* \"#utility.yul\":1408:1414   */\n      dup3\n        /* \"#utility.yul\":1403:1406   */\n      dup2\n        /* \"#utility.yul\":1398:1401   */\n      dup4\n        /* \"#utility.yul\":1392:1415   */\n      mcopy\n        /* \"#utility.yul\":1449:1450   */\n      0x00\n        /* \"#utility.yul\":1440:1446   */\n      dup4\n        /* \"#utility.yul\":1435:1438   */\n      dup4\n        /* \"#utility.yul\":1431:1447   */\n      add\n        /* \"#utility.yul\":1424:1451   */\n      mstore\n        /* \"#utility.yul\":1319:1458   */\n      pop\n      pop\n      pop\n      jump\t// out\n        /* \"#utility.yul\":1464:1566   */\n    tag_82:\n        /* \"#utility.yul\":1505:1511   */\n      0x00\n        /* \"#utility.yul\":1556:1558   */\n      0x1f\n        /* \"#utility.yul\":1552:1559   */\n      not\n        /* \"#utility.yul\":1547:1549   */\n      0x1f\n        /* \"#utility.yul\":1540:1545   */\n      dup4\n        /* \"#utility.yul\":1536:1550   */\n      add\n        /* \"#utility.yul\":1532:1560   */\n      and\n        /* \"#utility.yul\":1522:1560   */\n      swap1\n      pop\n        /* \"#utility.yul\":1464:1566   */\n      swap2\n      swap1\n      pop\n      jump\t// out\n        /* \"#utility.yul\":1572:1949   */\n    tag_83:\n        /* \"#utility.yul\":1660:1663   */\n      0x00\n        /* \"#utility.yul\":1688:1727   */\n      tag_108\n        /* \"#utility.yul\":1721:1726   */\n      dup3\n        /* \"#utility.yul\":1688:1727   */\n      tag_79\n      jump\t// in\n    tag_108:\n        /* \"#utility.yul\":1743:1814   */\n      tag_109\n        /* \"#utility.yul\":1807:1813   */\n      dup2\n        /* \"#utility.yul\":1802:1805   */\n      dup6\n        /* \"#utility.yul\":1743:1814   */\n      tag_80\n      jump\t// in\n    tag_109:\n        /* \"#utility.yul\":1736:1814   */\n      swap4\n      pop\n        /* \"#utility.yul\":1823:1888   */\n      tag_110\n        /* \"#utility.yul\":1881:1887   */\n      dup2\n        /* \"#utility.yul\":1876:1879   */\n      dup6\n        /* \"#utility.yul\":1869:1873   */\n      0x20\n        /* \"#utility.yul\":1862:1867   */\n      dup7\n        /* \"#utility.yul\":1858:1874   */\n      add\n        /* \"#utility.yul\":1823:1888   */\n      tag_81\n      jump\t// in\n    tag_110:\n        /* \"#utility.yul\":1913:1942   */\n      tag_111\n        /* \"#utility.yul\":1935:1941   */\n      dup2\n        /* \"#utility.yul\":1913:1942   */\n      tag_82\n      jump\t// in\n    tag_111:\n        /* \"#utility.yul\":1908:1911   */\n      dup5\n        /* \"#utility.yul\":1904:1943   */\n      add\n        /* \"#utility.yul\":1897:1943   */\n      swap2\n      pop\n        /* \"#utility.yul\":1664:1949   */\n      pop\n        /* \"#utility.yul\":1572:1949   */\n      swap3\n      swap2\n      pop\n      pop\n      jump\t// out\n        /* \"#utility.yul\":1955:2268   */\n    tag_15:\n        /* \"#utility.yul\":2068:2072   */\n      0x00\n        /* \"#utility.yul\":2106:2108   */\n      0x20\n        /* \"#utility.yul\":2095:2104   */\n      dup3\n        /* \"#utility.yul\":2091:2109   */\n      add\n        /* \"#utility.yul\":2083:2109   */\n      swap1\n      pop\n        /* \"#utility.yul\":2155:2164   */\n      dup2\n        /* \"#utility.yul\":2149:2153   */\n      dup2\n        /* \"#utility.yul\":2145:2165   */\n      sub\n        /* \"#utility.yul\":2141:2142   */\n      0x00\n        /* \"#utility.yul\":2130:2139   */\n      dup4\n        /* \"#utility.yul\":2126:2143   */\n      add\n        /* \"#utility.yul\":2119:2166   */\n      mstore\n        /* \"#utility.yul\":2183:2261   */\n      tag_113\n        /* \"#utility.yul\":2256:2260   */\n      dup2\n        /* \"#utility.yul\":2247:2253   */\n      dup5\n        /* \"#utility.yul\":2183:2261   */\n      tag_83\n      jump\t// in\n    tag_113:\n        /* \"#utility.yul\":2175:2261   */\n      swap1\n      pop\n        /* \"#utility.yul\":1955:2268   */\n      swap3\n      swap2\n      pop\n      pop\n      jump\t// out\n        /* \"#utility.yul\":2274:2455   */\n    tag_84:\n        /* \"#utility.yul\":2414:2447   */\n      0x50726f64756374206973206e6f7420696e2050656e64696e6720737461746500\n        /* \"#utility.yul\":2410:2411   */\n      0x00\n        /* \"#utility.yul\":2402:2408   */\n      dup3\n        /* \"#utility.yul\":2398:2412   */\n      add\n        /* \"#utility.yul\":2391:2448   */\n      mstore\n        /* \"#utility.yul\":2274:2455   */\n      pop\n      jump\t// out\n        /* \"#utility.yul\":2461:2827   */\n    tag_85:\n        /* \"#utility.yul\":2603:2606   */\n      0x00\n        /* \"#utility.yul\":2624:2691   */\n      tag_116\n        /* \"#utility.yul\":2688:2690   */\n      0x1f\n        /* \"#utility.yul\":2683:2686   */\n      dup4\n        /* \"#utility.yul\":2624:2691   */\n      tag_80\n      jump\t// in\n    tag_116:\n        /* \"#utility.yul\":2617:2691   */\n      swap2\n      pop\n        /* \"#utility.yul\":2700:2793   */\n      tag_117\n        /* \"#utility.yul\":2789:2792   */\n      dup3\n        /* \"#utility.yul\":2700:2793   */\n      tag_84\n      jump\t// in\n    tag_117:\n        /* \"#utility.yul\":2818:2820   */\n      0x20\n        /* \"#utility.yul\":2813:2816   */\n      dup3\n        /* \"#utility.yul\":2809:2821   */\n      add\n        /* \"#utility.yul\":2802:2821   */\n      swap1\n      pop\n        /* \"#utility.yul\":2461:2827   */\n      swap2\n      swap1\n      pop\n      jump\t// out\n        /* \"#utility.yul\":2833:3252   */\n    tag_49:\n        /* \"#utility.yul\":2999:3003   */\n      0x00\n        /* \"#utility.yul\":3037:3039   */\n      0x20\n        /* \"#utility.yul\":3026:3035   */\n      dup3\n        /* \"#utility.yul\":3022:3040   */\n      add\n        /* \"#utility.yul\":3014:3040   */\n      swap1\n      pop\n        /* \"#utility.yul\":3086:3095   */\n      dup2\n        /* \"#utility.yul\":3080:3084   */\n      dup2\n        /* \"#utility.yul\":3076:3096   */\n      sub\n        /* \"#utility.yul\":3072:3073   */\n      0x00\n        /* \"#utility.yul\":3061:3070   */\n      dup4\n        /* \"#utility.yul\":3057:3074   */\n      add\n        /* \"#utility.yul\":3050:3097   */\n      mstore\n        /* \"#utility.yul\":3114:3245   */\n      tag_119\n        /* \"#utility.yul\":3240:3244   */\n      dup2\n        /* \"#utility.yul\":3114:3245   */\n      tag_85\n      jump\t// in\n    tag_119:\n        /* \"#utility.yul\":3106:3245   */\n      swap1\n      pop\n        /* \"#utility.yul\":2833:3252   */\n      swap2\n      swap1\n      pop\n      jump\t// out\n        /* \"#utility.yul\":3258:3485   */\n    tag_86:\n        /* \"#utility.yul\":3398:3432   */\n      0x50726f647563742063616e206f6e6c792062652063616e63656c6c6564206966\n        /* \"#utility.yul\":3394:3395   */\n      0x00\n        /* \"#utility.yul\":3386:3392   */\n      dup3\n        /* \"#utility.yul\":3382:3396   */\n      add\n        /* \"#utility.yul\":3375:3433   */\n      mstore\n        /* \"#utility.yul\":3467:3477   */\n      0x2050656e64696e67000000000000000000000000000000000000000000000000\n        /* \"#utility.yul\":3462:3464   */\n      0x20\n        /* \"#utility.yul\":3454:3460   */\n      dup3\n        /* \"#utility.yul\":3450:3465   */\n      add\n        /* \"#utility.yul\":3443:3478   */\n      mstore\n        /* \"#utility.yul\":3258:3485   */\n      pop\n      jump\t// out\n        /* \"#utility.yul\":3491:3857   */\n    tag_87:\n        /* \"#utility.yul\":3633:3636   */\n      0x00\n        /* \"#utility.yul\":3654:3721   */\n      tag_122\n        /* \"#utility.yul\":3718:3720   */\n      0x28\n        /* \"#utility.yul\":3713:3716   */\n      dup4\n        /* \"#utility.yul\":3654:3721   */\n      tag_80\n      jump\t// in\n    tag_122:\n        /* \"#utility.yul\":3647:3721   */\n      swap2\n      pop\n        /* \"#utility.yul\":3730:3823   */\n      tag_123\n        /* \"#utility.yul\":3819:3822   */\n      dup3\n        /* \"#utility.yul\":3730:3823   */\n      tag_86\n      jump\t// in\n    tag_123:\n        /* \"#utility.yul\":3848:3850   */\n      0x40\n        /* \"#utility.yul\":3843:3846   */\n      dup3\n        /* \"#utility.yul\":3839:3851   */\n      add\n        /* \"#utility.yul\":3832:3851   */\n      swap1\n      pop\n        /* \"#utility.yul\":3491:3857   */\n      swap2\n      swap1\n      pop\n      jump\t// out\n        /* \"#utility.yul\":3863:4282   */\n    tag_60:\n        /* \"#utility.yul\":4029:4033   */\n      0x00\n        /* \"#utility.yul\":4067:4069   */\n      0x20\n        /* \"#utility.yul\":4056:4065   */\n      dup3\n        /* \"#utility.yul\":4052:4070   */\n      add\n        /* \"#utility.yul\":4044:4070   */\n      swap1\n      pop\n        /* \"#utility.yul\":4116:4125   */\n      dup2\n        /* \"#utility.yul\":4110:4114   */\n      dup2\n        /* \"#utility.yul\":4106:4126   */\n      sub\n        /* \"#utility.yul\":4102:4103   */\n      0x00\n        /* \"#utility.yul\":4091:4100   */\n      dup4\n        /* \"#utility.yul\":4087:4104   */\n      add\n        /* \"#utility.yul\":4080:4127   */\n      mstore\n        /* \"#utility.yul\":4144:4275   */\n      tag_125\n        /* \"#utility.yul\":4270:4274   */\n      dup2\n        /* \"#utility.yul\":4144:4275   */\n      tag_87\n      jump\t// in\n    tag_125:\n        /* \"#utility.yul\":4136:4275   */\n      swap1\n      pop\n        /* \"#utility.yul\":3863:4282   */\n      swap2\n      swap1\n      pop\n      jump\t// out\n        /* \"#utility.yul\":4288:4469   */\n    tag_88:\n        /* \"#utility.yul\":4428:4461   */\n      0x50726f64756374206973206e6f7420696e205368697070656420737461746500\n        /* \"#utility.yul\":4424:4425   */\n      0x00\n        /* \"#utility.yul\":4416:4422   */\n      dup3\n        /* \"#utility.yul\":4412:4426   */\n      add\n        /* \"#utility.yul\":4405:4462   */\n      mstore\n        /* \"#utility.yul\":4288:4469   */\n      pop\n      jump\t// out\n        /* \"#utility.yul\":4475:4841   */\n    tag_89:\n        /* \"#utility.yul\":4617:4620   */\n      0x00\n        /* \"#utility.yul\":4638:4705   */\n      tag_128\n        /* \"#utility.yul\":4702:4704   */\n      0x1f\n        /* \"#utility.yul\":4697:4700   */\n      dup4\n        /* \"#utility.yul\":4638:4705   */\n      tag_80\n      jump\t// in\n    tag_128:\n        /* \"#utility.yul\":4631:4705   */\n      swap2\n      pop\n        /* \"#utility.yul\":4714:4807   */\n      tag_129\n        /* \"#utility.yul\":4803:4806   */\n      dup3\n        /* \"#utility.yul\":4714:4807   */\n      tag_88\n      jump\t// in\n    tag_129:\n        /* \"#utility.yul\":4832:4834   */\n      0x20\n        /* \"#utility.yul\":4827:4830   */\n      dup3\n        /* \"#utility.yul\":4823:4835   */\n      add\n        /* \"#utility.yul\":4816:4835   */\n      swap1\n      pop\n        /* \"#utility.yul\":4475:4841   */\n      swap2\n      swap1\n      pop\n      jump\t// out\n        /* \"#utility.yul\":4847:5266   */\n    tag_71:\n        /* \"#utility.yul\":5013:5017   */\n      0x00\n        /* \"#utility.yul\":5051:5053   */\n      0x20\n        /* \"#utility.yul\":5040:5049   */\n      dup3\n        /* \"#utility.yul\":5036:5054   */\n      add\n        /* \"#utility.yul\":5028:5054   */\n      swap1\n      pop\n        /* \"#utility.yul\":5100:5109   */\n      dup2\n        /* \"#utility.yul\":5094:5098   */\n      dup2\n        /* \"#utility.yul\":5090:5110   */\n      sub\n        /* \"#utility.yul\":5086:5087   */\n      0x00\n        /* \"#utility.yul\":5075:5084   */\n      dup4\n        /* \"#utility.yul\":5071:5088   */\n      add\n        /* \"#utility.yul\":5064:5111   */\n      mstore\n        /* \"#utility.yul\":5128:5259   */\n      tag_131\n        /* \"#utility.yul\":5254:5258   */\n      dup2\n        /* \"#utility.yul\":5128:5259   */\n      tag_89\n      jump\t// in\n    tag_131:\n        /* \"#utility.yul\":5120:5259   */\n      swap1\n      pop\n        /* \"#utility.yul\":4847:5266   */\n      swap2\n      swap1\n      pop\n      jump\t// out\n\n    auxdata: 0xa264697066735822122061754579cc7121b6a2e767cec1ac623fa753efde606ebc71bf0b01983584310864736f6c634300081e0033\n}\n",
				"bytecode": {
					"linkReferences": {},
					"object": "608060405234801561000f575f5ffd5b505f5f5f6101000a81548160ff0219169083600381111561003357610032610081565b5b02179055507fafa725e7f44cadb687a7043853fa1a7e7b8f0da74ce87ec546e9420f04da8c1e5f5f9054906101000a900460ff1660405161007491906100f4565b60405180910390a161010d565b7f4e487b71000000000000000000000000000000000000000000000000000000005f52602160045260245ffd5b600481106100bf576100be610081565b5b50565b5f8190506100cf826100ae565b919050565b5f6100de826100c2565b9050919050565b6100ee816100d4565b82525050565b5f6020820190506101075f8301846100e5565b92915050565b6107ba8061011a5f395ff3fe608060405234801561000f575f5ffd5b5060043610610055575f3560e01c8063200d2ed2146100595780634e69d560146100775780637272a9c614610095578063d2ceb00c1461009f578063f513a4b2146100a9575b5f5ffd5b6100616100b3565b60405161006e919061057d565b60405180910390f35b61007f6100c4565b60405161008c9190610606565b60405180910390f35b61009d610263565b005b6100a7610345565b005b6100b1610427565b005b5f5f9054906101000a900460ff1681565b60605f60038111156100d9576100d861050a565b5b5f5f9054906101000a900460ff1660038111156100f9576100f861050a565b5b0361013b576040518060400160405280600781526020017f50656e64696e67000000000000000000000000000000000000000000000000008152509050610260565b6001600381111561014f5761014e61050a565b5b5f5f9054906101000a900460ff16600381111561016f5761016e61050a565b5b036101b1576040518060400160405280600781526020017f53686970706564000000000000000000000000000000000000000000000000008152509050610260565b600260038111156101c5576101c461050a565b5b5f5f9054906101000a900460ff1660038111156101e5576101e461050a565b5b03610227576040518060400160405280600981526020017f44656c69766572656400000000000000000000000000000000000000000000008152509050610260565b6040518060400160405280600981526020017f43616e63656c6c6564000000000000000000000000000000000000000000000081525090505b90565b5f60038111156102765761027561050a565b5b5f5f9054906101000a900460ff1660038111156102965761029561050a565b5b146102d6576040517f08c379a00000000000000000000000000000000000000000000000000000000081526004016102cd90610670565b60405180910390fd5b60015f5f6101000a81548160ff021916908360038111156102fa576102f961050a565b5b02179055507fafa725e7f44cadb687a7043853fa1a7e7b8f0da74ce87ec546e9420f04da8c1e5f5f9054906101000a900460ff1660405161033b919061057d565b60405180910390a1565b5f60038111156103585761035761050a565b5b5f5f9054906101000a900460ff1660038111156103785761037761050a565b5b146103b8576040517f08c379a00000000000000000000000000000000000000000000000000000000081526004016103af906106fe565b60405180910390fd5b60035f5f6101000a81548160ff021916908360038111156103dc576103db61050a565b5b02179055507fafa725e7f44cadb687a7043853fa1a7e7b8f0da74ce87ec546e9420f04da8c1e5f5f9054906101000a900460ff1660405161041d919061057d565b60405180910390a1565b6001600381111561043b5761043a61050a565b5b5f5f9054906101000a900460ff16600381111561045b5761045a61050a565b5b1461049b576040517f08c379a000000000000000000000000000000000000000000000000000000000815260040161049290610766565b60405180910390fd5b60025f5f6101000a81548160ff021916908360038111156104bf576104be61050a565b5b02179055507fafa725e7f44cadb687a7043853fa1a7e7b8f0da74ce87ec546e9420f04da8c1e5f5f9054906101000a900460ff16604051610500919061057d565b60405180910390a1565b7f4e487b71000000000000000000000000000000000000000000000000000000005f52602160045260245ffd5b600481106105485761054761050a565b5b50565b5f81905061055882610537565b919050565b5f6105678261054b565b9050919050565b6105778161055d565b82525050565b5f6020820190506105905f83018461056e565b92915050565b5f81519050919050565b5f82825260208201905092915050565b8281835e5f83830152505050565b5f601f19601f8301169050919050565b5f6105d882610596565b6105e281856105a0565b93506105f28185602086016105b0565b6105fb816105be565b840191505092915050565b5f6020820190508181035f83015261061e81846105ce565b905092915050565b7f50726f64756374206973206e6f7420696e2050656e64696e67207374617465005f82015250565b5f61065a601f836105a0565b915061066582610626565b602082019050919050565b5f6020820190508181035f8301526106878161064e565b9050919050565b7f50726f647563742063616e206f6e6c792062652063616e63656c6c65642069665f8201527f2050656e64696e67000000000000000000000000000000000000000000000000602082015250565b5f6106e86028836105a0565b91506106f38261068e565b604082019050919050565b5f6020820190508181035f830152610715816106dc565b9050919050565b7f50726f64756374206973206e6f7420696e2053686970706564207374617465005f82015250565b5f610750601f836105a0565b915061075b8261071c565b602082019050919050565b5f6020820190508181035f83015261077d81610744565b905091905056fea264697066735822122061754579cc7121b6a2e767cec1ac623fa753efde606ebc71bf0b01983584310864736f6c634300081e0033",
					"opcodes": "PUSH1 0x80 PUSH1 0x40 MSTORE CALLVALUE DUP1 ISZERO PUSH2 0xF JUMPI PUSH0 PUSH0 REVERT JUMPDEST POP PUSH0 PUSH0 PUSH0 PUSH2 0x100 EXP DUP2 SLOAD DUP2 PUSH1 0xFF MUL NOT AND SWAP1 DUP4 PUSH1 0x3 DUP2 GT ISZERO PUSH2 0x33 JUMPI PUSH2 0x32 PUSH2 0x81 JUMP JUMPDEST JUMPDEST MUL OR SWAP1 SSTORE POP PUSH32 0xAFA725E7F44CADB687A7043853FA1A7E7B8F0DA74CE87EC546E9420F04DA8C1E PUSH0 PUSH0 SWAP1 SLOAD SWAP1 PUSH2 0x100 EXP SWAP1 DIV PUSH1 0xFF AND PUSH1 0x40 MLOAD PUSH2 0x74 SWAP2 SWAP1 PUSH2 0xF4 JUMP JUMPDEST PUSH1 0x40 MLOAD DUP1 SWAP2 SUB SWAP1 LOG1 PUSH2 0x10D JUMP JUMPDEST PUSH32 0x4E487B7100000000000000000000000000000000000000000000000000000000 PUSH0 MSTORE PUSH1 0x21 PUSH1 0x4 MSTORE PUSH1 0x24 PUSH0 REVERT JUMPDEST PUSH1 0x4 DUP2 LT PUSH2 0xBF JUMPI PUSH2 0xBE PUSH2 0x81 JUMP JUMPDEST JUMPDEST POP JUMP JUMPDEST PUSH0 DUP2 SWAP1 POP PUSH2 0xCF DUP3 PUSH2 0xAE JUMP JUMPDEST SWAP2 SWAP1 POP JUMP JUMPDEST PUSH0 PUSH2 0xDE DUP3 PUSH2 0xC2 JUMP JUMPDEST SWAP1 POP SWAP2 SWAP1 POP JUMP JUMPDEST PUSH2 0xEE DUP2 PUSH2 0xD4 JUMP JUMPDEST DUP3 MSTORE POP POP JUMP JUMPDEST PUSH0 PUSH1 0x20 DUP3 ADD SWAP1 POP PUSH2 0x107 PUSH0 DUP4 ADD DUP5 PUSH2 0xE5 JUMP JUMPDEST SWAP3 SWAP2 POP POP JUMP JUMPDEST PUSH2 0x7BA DUP1 PUSH2 0x11A PUSH0 CODECOPY PUSH0 RETURN INVALID PUSH1 0x80 PUSH1 0x40 MSTORE CALLVALUE DUP1 ISZERO PUSH2 0xF JUMPI PUSH0 PUSH0 REVERT JUMPDEST POP PUSH1 0x4 CALLDATASIZE LT PUSH2 0x55 JUMPI PUSH0 CALLDATALOAD PUSH1 0xE0 SHR DUP1 PUSH4 0x200D2ED2 EQ PUSH2 0x59 JUMPI DUP1 PUSH4 0x4E69D560 EQ PUSH2 0x77 JUMPI DUP1 PUSH4 0x7272A9C6 EQ PUSH2 0x95 JUMPI DUP1 PUSH4 0xD2CEB00C EQ PUSH2 0x9F JUMPI DUP1 PUSH4 0xF513A4B2 EQ PUSH2 0xA9 JUMPI JUMPDEST PUSH0 PUSH0 REVERT JUMPDEST PUSH2 0x61 PUSH2 0xB3 JUMP JUMPDEST PUSH1 0x40 MLOAD PUSH2 0x6E SWAP2 SWAP1 PUSH2 0x57D JUMP JUMPDEST PUSH1 0x40 MLOAD DUP1 SWAP2 SUB SWAP1 RETURN JUMPDEST PUSH2 0x7F PUSH2 0xC4 JUMP JUMPDEST PUSH1 0x40 MLOAD PUSH2 0x8C SWAP2 SWAP1 PUSH2 0x606 JUMP JUMPDEST PUSH1 0x40 MLOAD DUP1 SWAP2 SUB SWAP1 RETURN JUMPDEST PUSH2 0x9D PUSH2 0x263 JUMP JUMPDEST STOP JUMPDEST PUSH2 0xA7 PUSH2 0x345 JUMP JUMPDEST STOP JUMPDEST PUSH2 0xB1 PUSH2 0x427 JUMP JUMPDEST STOP JUMPDEST PUSH0 PUSH0 SWAP1 SLOAD SWAP1 PUSH2 0x100 EXP SWAP1 DIV PUSH1 0xFF AND DUP2 JUMP JUMPDEST PUSH1 0x60 PUSH0 PUSH1 0x3 DUP2 GT ISZERO PUSH2 0xD9 JUMPI PUSH2 0xD8 PUSH2 0x50A JUMP JUMPDEST JUMPDEST PUSH0 PUSH0 SWAP1 SLOAD SWAP1 PUSH2 0x100 EXP SWAP1 DIV PUSH1 0xFF AND PUSH1 0x3 DUP2 GT ISZERO PUSH2 0xF9 JUMPI PUSH2 0xF8 PUSH2 0x50A JUMP JUMPDEST JUMPDEST SUB PUSH2 0x13B JUMPI PUSH1 0x40 MLOAD DUP1 PUSH1 0x40 ADD PUSH1 0x40 MSTORE DUP1 PUSH1 0x7 DUP2 MSTORE PUSH1 0x20 ADD PUSH32 0x50656E64696E6700000000000000000000000000000000000000000000000000 DUP2 MSTORE POP SWAP1 POP PUSH2 0x260 JUMP JUMPDEST PUSH1 0x1 PUSH1 0x3 DUP2 GT ISZERO PUSH2 0x14F JUMPI PUSH2 0x14E PUSH2 0x50A JUMP JUMPDEST JUMPDEST PUSH0 PUSH0 SWAP1 SLOAD SWAP1 PUSH2 0x100 EXP SWAP1 DIV PUSH1 0xFF AND PUSH1 0x3 DUP2 GT ISZERO PUSH2 0x16F JUMPI PUSH2 0x16E PUSH2 0x50A JUMP JUMPDEST JUMPDEST SUB PUSH2 0x1B1 JUMPI PUSH1 0x40 MLOAD DUP1 PUSH1 0x40 ADD PUSH1 0x40 MSTORE DUP1 PUSH1 0x7 DUP2 MSTORE PUSH1 0x20 ADD PUSH32 0x5368697070656400000000000000000000000000000000000000000000000000 DUP2 MSTORE POP SWAP1 POP PUSH2 0x260 JUMP JUMPDEST PUSH1 0x2 PUSH1 0x3 DUP2 GT ISZERO PUSH2 0x1C5 JUMPI PUSH2 0x1C4 PUSH2 0x50A JUMP JUMPDEST JUMPDEST PUSH0 PUSH0 SWAP1 SLOAD SWAP1 PUSH2 0x100 EXP SWAP1 DIV PUSH1 0xFF AND PUSH1 0x3 DUP2 GT ISZERO PUSH2 0x1E5 JUMPI PUSH2 0x1E4 PUSH2 0x50A JUMP JUMPDEST JUMPDEST SUB PUSH2 0x227 JUMPI PUSH1 0x40 MLOAD DUP1 PUSH1 0x40 ADD PUSH1 0x40 MSTORE DUP1 PUSH1 0x9 DUP2 MSTORE PUSH1 0x20 ADD PUSH32 0x44656C6976657265640000000000000000000000000000000000000000000000 DUP2 MSTORE POP SWAP1 POP PUSH2 0x260 JUMP JUMPDEST PUSH1 0x40 MLOAD DUP1 PUSH1 0x40 ADD PUSH1 0x40 MSTORE DUP1 PUSH1 0x9 DUP2 MSTORE PUSH1 0x20 ADD PUSH32 0x43616E63656C6C65640000000000000000000000000000000000000000000000 DUP2 MSTORE POP SWAP1 POP JUMPDEST SWAP1 JUMP JUMPDEST PUSH0 PUSH1 0x3 DUP2 GT ISZERO PUSH2 0x276 JUMPI PUSH2 0x275 PUSH2 0x50A JUMP JUMPDEST JUMPDEST PUSH0 PUSH0 SWAP1 SLOAD SWAP1 PUSH2 0x100 EXP SWAP1 DIV PUSH1 0xFF AND PUSH1 0x3 DUP2 GT ISZERO PUSH2 0x296 JUMPI PUSH2 0x295 PUSH2 0x50A JUMP JUMPDEST JUMPDEST EQ PUSH2 0x2D6 JUMPI PUSH1 0x40 MLOAD PUSH32 0x8C379A000000000000000000000000000000000000000000000000000000000 DUP2 MSTORE PUSH1 0x4 ADD PUSH2 0x2CD SWAP1 PUSH2 0x670 JUMP JUMPDEST PUSH1 0x40 MLOAD DUP1 SWAP2 SUB SWAP1 REVERT JUMPDEST PUSH1 0x1 PUSH0 PUSH0 PUSH2 0x100 EXP DUP2 SLOAD DUP2 PUSH1 0xFF MUL NOT AND SWAP1 DUP4 PUSH1 0x3 DUP2 GT ISZERO PUSH2 0x2FA JUMPI PUSH2 0x2F9 PUSH2 0x50A JUMP JUMPDEST JUMPDEST MUL OR SWAP1 SSTORE POP PUSH32 0xAFA725E7F44CADB687A7043853FA1A7E7B8F0DA74CE87EC546E9420F04DA8C1E PUSH0 PUSH0 SWAP1 SLOAD SWAP1 PUSH2 0x100 EXP SWAP1 DIV PUSH1 0xFF AND PUSH1 0x40 MLOAD PUSH2 0x33B SWAP2 SWAP1 PUSH2 0x57D JUMP JUMPDEST PUSH1 0x40 MLOAD DUP1 SWAP2 SUB SWAP1 LOG1 JUMP JUMPDEST PUSH0 PUSH1 0x3 DUP2 GT ISZERO PUSH2 0x358 JUMPI PUSH2 0x357 PUSH2 0x50A JUMP JUMPDEST JUMPDEST PUSH0 PUSH0 SWAP1 SLOAD SWAP1 PUSH2 0x100 EXP SWAP1 DIV PUSH1 0xFF AND PUSH1 0x3 DUP2 GT ISZERO PUSH2 0x378 JUMPI PUSH2 0x377 PUSH2 0x50A JUMP JUMPDEST JUMPDEST EQ PUSH2 0x3B8 JUMPI PUSH1 0x40 MLOAD PUSH32 0x8C379A000000000000000000000000000000000000000000000000000000000 DUP2 MSTORE PUSH1 0x4 ADD PUSH2 0x3AF SWAP1 PUSH2 0x6FE JUMP JUMPDEST PUSH1 0x40 MLOAD DUP1 SWAP2 SUB SWAP1 REVERT JUMPDEST PUSH1 0x3 PUSH0 PUSH0 PUSH2 0x100 EXP DUP2 SLOAD DUP2 PUSH1 0xFF MUL NOT AND SWAP1 DUP4 PUSH1 0x3 DUP2 GT ISZERO PUSH2 0x3DC JUMPI PUSH2 0x3DB PUSH2 0x50A JUMP JUMPDEST JUMPDEST MUL OR SWAP1 SSTORE POP PUSH32 0xAFA725E7F44CADB687A7043853FA1A7E7B8F0DA74CE87EC546E9420F04DA8C1E PUSH0 PUSH0 SWAP1 SLOAD SWAP1 PUSH2 0x100 EXP SWAP1 DIV PUSH1 0xFF AND PUSH1 0x40 MLOAD PUSH2 0x41D SWAP2 SWAP1 PUSH2 0x57D JUMP JUMPDEST PUSH1 0x40 MLOAD DUP1 SWAP2 SUB SWAP1 LOG1 JUMP JUMPDEST PUSH1 0x1 PUSH1 0x3 DUP2 GT ISZERO PUSH2 0x43B JUMPI PUSH2 0x43A PUSH2 0x50A JUMP JUMPDEST JUMPDEST PUSH0 PUSH0 SWAP1 SLOAD SWAP1 PUSH2 0x100 EXP SWAP1 DIV PUSH1 0xFF AND PUSH1 0x3 DUP2 GT ISZERO PUSH2 0x45B JUMPI PUSH2 0x45A PUSH2 0x50A JUMP JUMPDEST JUMPDEST EQ PUSH2 0x49B JUMPI PUSH1 0x40 MLOAD PUSH32 0x8C379A000000000000000000000000000000000000000000000000000000000 DUP2 MSTORE PUSH1 0x4 ADD PUSH2 0x492 SWAP1 PUSH2 0x766 JUMP JUMPDEST PUSH1 0x40 MLOAD DUP1 SWAP2 SUB SWAP1 REVERT JUMPDEST PUSH1 0x2 PUSH0 PUSH0 PUSH2 0x100 EXP DUP2 SLOAD DUP2 PUSH1 0xFF MUL NOT AND SWAP1 DUP4 PUSH1 0x3 DUP2 GT ISZERO PUSH2 0x4BF JUMPI PUSH2 0x4BE PUSH2 0x50A JUMP JUMPDEST JUMPDEST MUL OR SWAP1 SSTORE POP PUSH32 0xAFA725E7F44CADB687A7043853FA1A7E7B8F0DA74CE87EC546E9420F04DA8C1E PUSH0 PUSH0 SWAP1 SLOAD SWAP1 PUSH2 0x100 EXP SWAP1 DIV PUSH1 0xFF AND PUSH1 0x40 MLOAD PUSH2 0x500 SWAP2 SWAP1 PUSH2 0x57D JUMP JUMPDEST PUSH1 0x40 MLOAD DUP1 SWAP2 SUB SWAP1 LOG1 JUMP JUMPDEST PUSH32 0x4E487B7100000000000000000000000000000000000000000000000000000000 PUSH0 MSTORE PUSH1 0x21 PUSH1 0x4 MSTORE PUSH1 0x24 PUSH0 REVERT JUMPDEST PUSH1 0x4 DUP2 LT PUSH2 0x548 JUMPI PUSH2 0x547 PUSH2 0x50A JUMP JUMPDEST JUMPDEST POP JUMP JUMPDEST PUSH0 DUP2 SWAP1 POP PUSH2 0x558 DUP3 PUSH2 0x537 JUMP JUMPDEST SWAP2 SWAP1 POP JUMP JUMPDEST PUSH0 PUSH2 0x567 DUP3 PUSH2 0x54B JUMP JUMPDEST SWAP1 POP SWAP2 SWAP1 POP JUMP JUMPDEST PUSH2 0x577 DUP2 PUSH2 0x55D JUMP JUMPDEST DUP3 MSTORE POP POP JUMP JUMPDEST PUSH0 PUSH1 0x20 DUP3 ADD SWAP1 POP PUSH2 0x590 PUSH0 DUP4 ADD DUP5 PUSH2 0x56E JUMP JUMPDEST SWAP3 SWAP2 POP POP JUMP JUMPDEST PUSH0 DUP2 MLOAD SWAP1 POP SWAP2 SWAP1 POP JUMP JUMPDEST PUSH0 DUP3 DUP3 MSTORE PUSH1 0x20 DUP3 ADD SWAP1 POP SWAP3 SWAP2 POP POP JUMP JUMPDEST DUP3 DUP2 DUP4 MCOPY PUSH0 DUP4 DUP4 ADD MSTORE POP POP POP JUMP JUMPDEST PUSH0 PUSH1 0x1F NOT PUSH1 0x1F DUP4 ADD AND SWAP1 POP SWAP2 SWAP1 POP JUMP JUMPDEST PUSH0 PUSH2 0x5D8 DUP3 PUSH2 0x596 JUMP JUMPDEST PUSH2 0x5E2 DUP2 DUP6 PUSH2 0x5A0 JUMP JUMPDEST SWAP4 POP PUSH2 0x5F2 DUP2 DUP6 PUSH1 0x20 DUP7 ADD PUSH2 0x5B0 JUMP JUMPDEST PUSH2 0x5FB DUP2 PUSH2 0x5BE JUMP JUMPDEST DUP5 ADD SWAP2 POP POP SWAP3 SWAP2 POP POP JUMP JUMPDEST PUSH0 PUSH1 0x20 DUP3 ADD SWAP1 POP DUP2 DUP2 SUB PUSH0 DUP4 ADD MSTORE PUSH2 0x61E DUP2 DUP5 PUSH2 0x5CE JUMP JUMPDEST SWAP1 POP SWAP3 SWAP2 POP POP JUMP JUMPDEST PUSH32 0x50726F64756374206973206E6F7420696E2050656E64696E6720737461746500 PUSH0 DUP3 ADD MSTORE POP JUMP JUMPDEST PUSH0 PUSH2 0x65A PUSH1 0x1F DUP4 PUSH2 0x5A0 JUMP JUMPDEST SWAP2 POP PUSH2 0x665 DUP3 PUSH2 0x626 JUMP JUMPDEST PUSH1 0x20 DUP3 ADD SWAP1 POP SWAP2 SWAP1 POP JUMP JUMPDEST PUSH0 PUSH1 0x20 DUP3 ADD SWAP1 POP DUP2 DUP2 SUB PUSH0 DUP4 ADD MSTORE PUSH2 0x687 DUP2 PUSH2 0x64E JUMP JUMPDEST SWAP1 POP SWAP2 SWAP1 POP JUMP JUMPDEST PUSH32 0x50726F647563742063616E206F6E6C792062652063616E63656C6C6564206966 PUSH0 DUP3 ADD MSTORE PUSH32 0x2050656E64696E67000000000000000000000000000000000000000000000000 PUSH1 0x20 DUP3 ADD MSTORE POP JUMP JUMPDEST PUSH0 PUSH2 0x6E8 PUSH1 0x28 DUP4 PUSH2 0x5A0 JUMP JUMPDEST SWAP2 POP PUSH2 0x6F3 DUP3 PUSH2 0x68E JUMP JUMPDEST PUSH1 0x40 DUP3 ADD SWAP1 POP SWAP2 SWAP1 POP JUMP JUMPDEST PUSH0 PUSH1 0x20 DUP3 ADD SWAP1 POP DUP2 DUP2 SUB PUSH0 DUP4 ADD MSTORE PUSH2 0x715 DUP2 PUSH2 0x6DC JUMP JUMPDEST SWAP1 POP SWAP2 SWAP1 POP JUMP JUMPDEST PUSH32 0x50726F64756374206973206E6F7420696E205368697070656420737461746500 PUSH0 DUP3 ADD MSTORE POP JUMP JUMPDEST PUSH0 PUSH2 0x750 PUSH1 0x1F DUP4 PUSH2 0x5A0 JUMP JUMPDEST SWAP2 POP PUSH2 0x75B DUP3 PUSH2 0x71C JUMP JUMPDEST PUSH1 0x20 DUP3 ADD SWAP1 POP SWAP2 SWAP1 POP JUMP JUMPDEST PUSH0 PUSH1 0x20 DUP3 ADD SWAP1 POP DUP2 DUP2 SUB PUSH0 DUP4 ADD MSTORE PUSH2 0x77D DUP2 PUSH2 0x744 JUMP JUMPDEST SWAP1 POP SWAP2 SWAP1 POP JUMP INVALID LOG2 PUSH5 0x6970667358 0x22 SLT KECCAK256 PUSH2 0x7545 PUSH26 0xCC7121B6A2E767CEC1AC623FA753EFDE606EBC71BF0B01983584 BALANCE ADDMOD PUSH5 0x736F6C6343 STOP ADDMOD 0x1E STOP CALLER "
				},
				"gasEstimates": {
					"creation": {
						"codeDepositCost": "395600",
						"executionCost": "28134",
						"totalCost": "423734"
					},
					"external": {
						"cancelProduct()": "30096",
						"deliverProduct()": "30119",
						"getStatus()": "infinite",
						"shipProduct()": "30074",
						"status()": "2531"
					}
				},
				"methodIdentifiers": {
					"cancelProduct()": "d2ceb00c",
					"deliverProduct()": "f513a4b2",
					"getStatus()": "4e69d560",
					"shipProduct()": "7272a9c6",
					"status()": "200d2ed2"
				}
			},
			"storageLayout": {
				"storage": [
					{
						"astId": 9,
						"contract": "lab01-smart-contracts-with-solidity/artifacts/Codes/event_enum.sol:EnumAndEventsExample",
						"label": "status",
						"offset": 0,
						"slot": "0",
						"type": "t_enum(ShippingStatus)6"
					}
				],
				"types": {
					"t_enum(ShippingStatus)6": {
						"encoding": "inplace",
						"label": "enum EnumAndEventsExample.ShippingStatus",
						"numberOfBytes": "1"
					}
				}
			},
			"userdoc": {
				"kind": "user",
				"methods": {},
				"version": 1
			}
		}
	}
}