{
	"lab01-smart-contracts-with-solidity/artifacts/Codes/functions.sol": {
		"FunctionTypesExample": {
			"abi": [
				{
					"inputs": [
						{
							"internalType": "uint256",
							"name": "_data",
							"type": "uint256"
						}
					],
					"stateMutability": "nonpayable",
					"type": "constructor"
				},
				{
					"inputs": [
						{
							"internalType": "uint256",
							"name": "a",
							"type": "uint256"
						},
						{
							"internalType": "uint256",
							"name": "b",
							"type": "uint256"
						}
					],
					"name": "addNumbers",
					"outputs": [
						{
							"internalType": "uint256",
							"name": "",
							"type": "uint256"
						}
					],
					"stateMutability": "pure",
					"type": "function"
				},
				{
					"inputs": [
						{
							"internalType": "address",
							"name": "",
							"type": "address"
						}
					],
					"name": "balances",
					"outputs": [
						{
							"internalType": "uint256",
							"name": "",
							"type": "uint256"
						}
					],
					"stateMutability": "view",
					"type": "function"
				},
				{
					"inputs": [],
					"name": "callInternalFunction",
					"outputs": [
						{
							"internalType": "uint256",
							"name": "",
							"type": "uint256"
						}
					],
					"stateMutability": "view",
					"type": "function"
				},
				{
					"inputs": [],
					"name": "data",
					"outputs": [
						{
							"internalType": "uint256",
							"name": "",
							"type": "uint256"
						}
					],
					"stateMutability": "view",
					"type": "function"
				},
				{
					"inputs": [],
					"name": "deposit",
					"outputs": [],
					"stateMutability": "payable",
					"type": "function"
				},
				{
					"inputs": [],
					"name": "externalDoubleData",
					"outputs": [
						{
							"internalType": "uint256",
							"name": "",
							"type": "uint256"
						}
					],
					"stateMutability": "view",
					"type": "function"
				},
				{
					"inputs": [],
					"name": "getContractBalance",
					"outputs": [
						{
							"internalType": "uint256",
							"name": "",
							"type": "uint256"
						}
					],
					"stateMutability": "view",
					"type": "function"
				},
				{
					"inputs": [],
					"name": "getData",
					"outputs": [
						{
							"internalType": "uint256",
							"name": "",
							"type": "uint256"
						}
					],
					"stateMutability": "view",
					"type": "function"
				},
				{
					"inputs": [
						{
							"internalType": "uint256",
							"name": "_data",
							"type": "uint256"
						}
					],
					"name": "setData",
					"outputs": [],
					"stateMutability": "nonpayable",
					"type": "function"
				},
				{
					"inputs": [
						{
							"internalType": "uint256",
							"name": "amount",
							"type": "uint256"
						}
					],
					"name": "withdraw",
					"outputs": [],
					"stateMutability": "nonpayable",
					"type": "function"
				}
			],
			"devdoc": {
				"kind": "dev",
				"methods": {},
				"version": 1
			},
			"evm": {
				"assembly": "    /* \"lab01-smart-contracts-with-solidity/artifacts/Codes/functions.sol\":57:3180  contract FunctionTypesExample {... */\n  mstore(0x40, 0x80)\n    /* \"lab01-smart-contracts-with-solidity/artifacts/Codes/functions.sol\":216:269  constructor(uint _data) {... */\n  callvalue\n  dup1\n  iszero\n  tag_1\n  jumpi\n  revert(0x00, 0x00)\ntag_1:\n  pop\n  mload(0x40)\n  sub(codesize, bytecodeSize)\n  dup1\n  bytecodeSize\n  dup4\n  codecopy\n  dup2\n  dup2\n  add\n  0x40\n  mstore\n  dup2\n  add\n  swap1\n  tag_2\n  swap2\n  swap1\n  tag_3\n  jump\t// in\ntag_2:\n    /* \"lab01-smart-contracts-with-solidity/artifacts/Codes/functions.sol\":257:262  _data */\n  dup1\n    /* \"lab01-smart-contracts-with-solidity/artifacts/Codes/functions.sol\":250:254  data */\n  0x00\n    /* \"lab01-smart-contracts-with-solidity/artifacts/Codes/functions.sol\":250:262  data = _data */\n  dup2\n  swap1\n  sstore\n  pop\n    /* \"lab01-smart-contracts-with-solidity/artifacts/Codes/functions.sol\":216:269  constructor(uint _data) {... */\n  pop\n    /* \"lab01-smart-contracts-with-solidity/artifacts/Codes/functions.sol\":57:3180  contract FunctionTypesExample {... */\n  jump(tag_6)\n    /* \"#utility.yul\":88:205   */\ntag_8:\n    /* \"#utility.yul\":197:198   */\n  0x00\n    /* \"#utility.yul\":194:195   */\n  0x00\n    /* \"#utility.yul\":187:199   */\n  revert\n    /* \"#utility.yul\":334:411   */\ntag_10:\n    /* \"#utility.yul\":371:378   */\n  0x00\n    /* \"#utility.yul\":400:405   */\n  dup2\n    /* \"#utility.yul\":389:405   */\n  swap1\n  pop\n    /* \"#utility.yul\":334:411   */\n  swap2\n  swap1\n  pop\n  jump\t// out\n    /* \"#utility.yul\":417:539   */\ntag_11:\n    /* \"#utility.yul\":490:514   */\n  tag_19\n    /* \"#utility.yul\":508:513   */\n  dup2\n    /* \"#utility.yul\":490:514   */\n  tag_10\n  jump\t// in\ntag_19:\n    /* \"#utility.yul\":483:488   */\n  dup2\n    /* \"#utility.yul\":480:515   */\n  eq\n    /* \"#utility.yul\":470:533   */\n  tag_20\n  jumpi\n    /* \"#utility.yul\":529:530   */\n  0x00\n    /* \"#utility.yul\":526:527   */\n  0x00\n    /* \"#utility.yul\":519:531   */\n  revert\n    /* \"#utility.yul\":470:533   */\ntag_20:\n    /* \"#utility.yul\":417:539   */\n  pop\n  jump\t// out\n    /* \"#utility.yul\":545:688   */\ntag_12:\n    /* \"#utility.yul\":602:607   */\n  0x00\n    /* \"#utility.yul\":633:639   */\n  dup2\n    /* \"#utility.yul\":627:640   */\n  mload\n    /* \"#utility.yul\":618:640   */\n  swap1\n  pop\n    /* \"#utility.yul\":649:682   */\n  tag_22\n    /* \"#utility.yul\":676:681   */\n  dup2\n    /* \"#utility.yul\":649:682   */\n  tag_11\n  jump\t// in\ntag_22:\n    /* \"#utility.yul\":545:688   */\n  swap3\n  swap2\n  pop\n  pop\n  jump\t// out\n    /* \"#utility.yul\":694:1045   */\ntag_3:\n    /* \"#utility.yul\":764:770   */\n  0x00\n    /* \"#utility.yul\":813:815   */\n  0x20\n    /* \"#utility.yul\":801:810   */\n  dup3\n    /* \"#utility.yul\":792:799   */\n  dup5\n    /* \"#utility.yul\":788:811   */\n  sub\n    /* \"#utility.yul\":784:816   */\n  slt\n    /* \"#utility.yul\":781:900   */\n  iszero\n  tag_24\n  jumpi\n    /* \"#utility.yul\":819:898   */\n  tag_25\n  tag_8\n  jump\t// in\ntag_25:\n    /* \"#utility.yul\":781:900   */\ntag_24:\n    /* \"#utility.yul\":939:940   */\n  0x00\n    /* \"#utility.yul\":964:1028   */\n  tag_26\n    /* \"#utility.yul\":1020:1027   */\n  dup5\n    /* \"#utility.yul\":1011:1017   */\n  dup3\n    /* \"#utility.yul\":1000:1009   */\n  dup6\n    /* \"#utility.yul\":996:1018   */\n  add\n    /* \"#utility.yul\":964:1028   */\n  tag_12\n  jump\t// in\ntag_26:\n    /* \"#utility.yul\":954:1028   */\n  swap2\n  pop\n    /* \"#utility.yul\":910:1038   */\n  pop\n    /* \"#utility.yul\":694:1045   */\n  swap3\n  swap2\n  pop\n  pop\n  jump\t// out\n    /* \"lab01-smart-contracts-with-solidity/artifacts/Codes/functions.sol\":57:3180  contract FunctionTypesExample {... */\ntag_6:\n  dataSize(sub_0)\n  dup1\n  dataOffset(sub_0)\n  0x00\n  codecopy\n  0x00\n  return\nstop\n\nsub_0: assembly {\n        /* \"lab01-smart-contracts-with-solidity/artifacts/Codes/functions.sol\":57:3180  contract FunctionTypesExample {... */\n      mstore(0x40, 0x80)\n      jumpi(tag_1, lt(calldatasize, 0x04))\n      shr(0xe0, calldataload(0x00))\n      dup1\n      0x73d4a13a\n      gt\n      tag_12\n      jumpi\n      dup1\n      0x73d4a13a\n      eq\n      tag_7\n      jumpi\n      dup1\n      0x8701f8ca\n      eq\n      tag_8\n      jumpi\n      dup1\n      0xa94f2623\n      eq\n      tag_9\n      jumpi\n      dup1\n      0xd0e30db0\n      eq\n      tag_10\n      jumpi\n      dup1\n      0xef9fc50b\n      eq\n      tag_11\n      jumpi\n      jump(tag_1)\n    tag_12:\n      dup1\n      0x27e235e3\n      eq\n      tag_2\n      jumpi\n      dup1\n      0x2e1a7d4d\n      eq\n      tag_3\n      jumpi\n      dup1\n      0x3bc5de30\n      eq\n      tag_4\n      jumpi\n      dup1\n      0x5b4b73a9\n      eq\n      tag_5\n      jumpi\n      dup1\n      0x6f9fb98a\n      eq\n      tag_6\n      jumpi\n    tag_1:\n      revert(0x00, 0x00)\n        /* \"lab01-smart-contracts-with-solidity/artifacts/Codes/functions.sol\":2000:2043  mapping(address => uint256) public balances */\n    tag_2:\n      callvalue\n      dup1\n      iszero\n      tag_13\n      jumpi\n      revert(0x00, 0x00)\n    tag_13:\n      pop\n      tag_14\n      0x04\n      dup1\n      calldatasize\n      sub\n      dup2\n      add\n      swap1\n      tag_15\n      swap2\n      swap1\n      tag_16\n      jump\t// in\n    tag_15:\n      tag_17\n      jump\t// in\n    tag_14:\n      mload(0x40)\n      tag_18\n      swap2\n      swap1\n      tag_19\n      jump\t// in\n    tag_18:\n      mload(0x40)\n      dup1\n      swap2\n      sub\n      swap1\n      return\n        /* \"lab01-smart-contracts-with-solidity/artifacts/Codes/functions.sol\":2774:3178  function withdraw(uint256 amount) public {... */\n    tag_3:\n      callvalue\n      dup1\n      iszero\n      tag_20\n      jumpi\n      revert(0x00, 0x00)\n    tag_20:\n      pop\n      tag_21\n      0x04\n      dup1\n      calldatasize\n      sub\n      dup2\n      add\n      swap1\n      tag_22\n      swap2\n      swap1\n      tag_23\n      jump\t// in\n    tag_22:\n      tag_24\n      jump\t// in\n    tag_21:\n      stop\n        /* \"lab01-smart-contracts-with-solidity/artifacts/Codes/functions.sol\":1353:1474  function getData() public view returns (uint) {... */\n    tag_4:\n      callvalue\n      dup1\n      iszero\n      tag_25\n      jumpi\n      revert(0x00, 0x00)\n    tag_25:\n      pop\n      tag_26\n      tag_27\n      jump\t// in\n    tag_26:\n      mload(0x40)\n      tag_28\n      swap2\n      swap1\n      tag_19\n      jump\t// in\n    tag_28:\n      mload(0x40)\n      dup1\n      swap2\n      sub\n      swap1\n      return\n        /* \"lab01-smart-contracts-with-solidity/artifacts/Codes/functions.sol\":381:476  function setData(uint _data) public {... */\n    tag_5:\n      callvalue\n      dup1\n      iszero\n      tag_29\n      jumpi\n      revert(0x00, 0x00)\n    tag_29:\n      pop\n      tag_30\n      0x04\n      dup1\n      calldatasize\n      sub\n      dup2\n      add\n      swap1\n      tag_31\n      swap2\n      swap1\n      tag_23\n      jump\t// in\n    tag_31:\n      tag_32\n      jump\t// in\n    tag_30:\n      stop\n        /* \"lab01-smart-contracts-with-solidity/artifacts/Codes/functions.sol\":2551:2714  function getContractBalance() public view returns (uint256) {... */\n    tag_6:\n      callvalue\n      dup1\n      iszero\n      tag_33\n      jumpi\n      revert(0x00, 0x00)\n    tag_33:\n      pop\n      tag_34\n      tag_35\n      jump\t// in\n    tag_34:\n      mload(0x40)\n      tag_36\n      swap2\n      swap1\n      tag_19\n      jump\t// in\n    tag_36:\n      mload(0x40)\n      dup1\n      swap2\n      sub\n      swap1\n      return\n        /* \"lab01-smart-contracts-with-solidity/artifacts/Codes/functions.sol\":145:161  uint public data */\n    tag_7:\n      callvalue\n      dup1\n      iszero\n      tag_37\n      jumpi\n      revert(0x00, 0x00)\n    tag_37:\n      pop\n      tag_38\n      tag_39\n      jump\t// in\n    tag_38:\n      mload(0x40)\n      tag_40\n      swap2\n      swap1\n      tag_19\n      jump\t// in\n    tag_40:\n      mload(0x40)\n      dup1\n      swap2\n      sub\n      swap1\n      return\n        /* \"lab01-smart-contracts-with-solidity/artifacts/Codes/functions.sol\":1783:1925  function callInternalFunction() public view returns (uint) {... */\n    tag_8:\n      callvalue\n      dup1\n      iszero\n      tag_41\n      jumpi\n      revert(0x00, 0x00)\n    tag_41:\n      pop\n      tag_42\n      tag_43\n      jump\t// in\n    tag_42:\n      mload(0x40)\n      tag_44\n      swap2\n      swap1\n      tag_19\n      jump\t// in\n    tag_44:\n      mload(0x40)\n      dup1\n      swap2\n      sub\n      swap1\n      return\n        /* \"lab01-smart-contracts-with-solidity/artifacts/Codes/functions.sol\":1061:1200  function externalDoubleData() external view returns (uint) {... */\n    tag_9:\n      callvalue\n      dup1\n      iszero\n      tag_45\n      jumpi\n      revert(0x00, 0x00)\n    tag_45:\n      pop\n      tag_46\n      tag_47\n      jump\t// in\n    tag_46:\n      mload(0x40)\n      tag_48\n      swap2\n      swap1\n      tag_19\n      jump\t// in\n    tag_48:\n      mload(0x40)\n      dup1\n      swap2\n      sub\n      swap1\n      return\n        /* \"lab01-smart-contracts-with-solidity/artifacts/Codes/functions.sol\":2165:2429  function deposit() public payable {... */\n    tag_10:\n      tag_49\n      tag_50\n      jump\t// in\n    tag_49:\n      stop\n        /* \"lab01-smart-contracts-with-solidity/artifacts/Codes/functions.sol\":1588:1723  function addNumbers(uint a, uint b) public pure returns (uint) {... */\n    tag_11:\n      callvalue\n      dup1\n      iszero\n      tag_51\n      jumpi\n      revert(0x00, 0x00)\n    tag_51:\n      pop\n      tag_52\n      0x04\n      dup1\n      calldatasize\n      sub\n      dup2\n      add\n      swap1\n      tag_53\n      swap2\n      swap1\n      tag_54\n      jump\t// in\n    tag_53:\n      tag_55\n      jump\t// in\n    tag_52:\n      mload(0x40)\n      tag_56\n      swap2\n      swap1\n      tag_19\n      jump\t// in\n    tag_56:\n      mload(0x40)\n      dup1\n      swap2\n      sub\n      swap1\n      return\n        /* \"lab01-smart-contracts-with-solidity/artifacts/Codes/functions.sol\":2000:2043  mapping(address => uint256) public balances */\n    tag_17:\n      mstore(0x20, 0x01)\n      dup1\n      0x00\n      mstore\n      keccak256(0x00, 0x40)\n      0x00\n      swap2\n      pop\n      swap1\n      pop\n      sload\n      dup2\n      jump\t// out\n        /* \"lab01-smart-contracts-with-solidity/artifacts/Codes/functions.sol\":2774:3178  function withdraw(uint256 amount) public {... */\n    tag_24:\n        /* \"lab01-smart-contracts-with-solidity/artifacts/Codes/functions.sol\":2915:2921  amount */\n      dup1\n        /* \"lab01-smart-contracts-with-solidity/artifacts/Codes/functions.sol\":2891:2899  balances */\n      0x01\n        /* \"lab01-smart-contracts-with-solidity/artifacts/Codes/functions.sol\":2891:2911  balances[msg.sender] */\n      0x00\n        /* \"lab01-smart-contracts-with-solidity/artifacts/Codes/functions.sol\":2900:2910  msg.sender */\n      caller\n        /* \"lab01-smart-contracts-with-solidity/artifacts/Codes/functions.sol\":2891:2911  balances[msg.sender] */\n      0xffffffffffffffffffffffffffffffffffffffff\n      and\n      0xffffffffffffffffffffffffffffffffffffffff\n      and\n      dup2\n      mstore\n      0x20\n      add\n      swap1\n      dup2\n      mstore\n      0x20\n      add\n      0x00\n      keccak256\n      sload\n        /* \"lab01-smart-contracts-with-solidity/artifacts/Codes/functions.sol\":2891:2921  balances[msg.sender] >= amount */\n      lt\n      iszero\n        /* \"lab01-smart-contracts-with-solidity/artifacts/Codes/functions.sol\":2883:2944  require(balances[msg.sender] >= amount, \"Insufficient funds\") */\n      tag_58\n      jumpi\n      mload(0x40)\n      0x08c379a000000000000000000000000000000000000000000000000000000000\n      dup2\n      mstore\n      0x04\n      add\n      tag_59\n      swap1\n      tag_60\n      jump\t// in\n    tag_59:\n      mload(0x40)\n      dup1\n      swap2\n      sub\n      swap1\n      revert\n    tag_58:\n        /* \"lab01-smart-contracts-with-solidity/artifacts/Codes/functions.sol\":3047:3053  amount */\n      dup1\n        /* \"lab01-smart-contracts-with-solidity/artifacts/Codes/functions.sol\":3023:3031  balances */\n      0x01\n        /* \"lab01-smart-contracts-with-solidity/artifacts/Codes/functions.sol\":3023:3043  balances[msg.sender] */\n      0x00\n        /* \"lab01-smart-contracts-with-solidity/artifacts/Codes/functions.sol\":3032:3042  msg.sender */\n      caller\n        /* \"lab01-smart-contracts-with-solidity/artifacts/Codes/functions.sol\":3023:3043  balances[msg.sender] */\n      0xffffffffffffffffffffffffffffffffffffffff\n      and\n      0xffffffffffffffffffffffffffffffffffffffff\n      and\n      dup2\n      mstore\n      0x20\n      add\n      swap1\n      dup2\n      mstore\n      0x20\n      add\n      0x00\n      keccak256\n      0x00\n        /* \"lab01-smart-contracts-with-solidity/artifacts/Codes/functions.sol\":3023:3053  balances[msg.sender] -= amount */\n      dup3\n      dup3\n      sload\n      tag_61\n      swap2\n      swap1\n      tag_62\n      jump\t// in\n    tag_61:\n      swap3\n      pop\n      pop\n      dup2\n      swap1\n      sstore\n      pop\n        /* \"lab01-smart-contracts-with-solidity/artifacts/Codes/functions.sol\":3143:3153  msg.sender */\n      caller\n        /* \"lab01-smart-contracts-with-solidity/artifacts/Codes/functions.sol\":3135:3163  payable(msg.sender).transfer */\n      0xffffffffffffffffffffffffffffffffffffffff\n      and\n        /* \"lab01-smart-contracts-with-solidity/artifacts/Codes/functions.sol\":3135:3171  payable(msg.sender).transfer(amount) */\n      0x08fc\n        /* \"lab01-smart-contracts-with-solidity/artifacts/Codes/functions.sol\":3164:3170  amount */\n      dup3\n        /* \"lab01-smart-contracts-with-solidity/artifacts/Codes/functions.sol\":3135:3171  payable(msg.sender).transfer(amount) */\n      swap1\n      dup2\n      iszero\n      mul\n      swap1\n      mload(0x40)\n      0x00\n      mload(0x40)\n      dup1\n      dup4\n      sub\n      dup2\n      dup6\n      dup9\n      dup9\n      call\n      swap4\n      pop\n      pop\n      pop\n      pop\n      iszero\n      dup1\n      iszero\n      tag_64\n      jumpi\n      returndatacopy(0x00, 0x00, returndatasize)\n      revert(0x00, returndatasize)\n    tag_64:\n      pop\n        /* \"lab01-smart-contracts-with-solidity/artifacts/Codes/functions.sol\":2774:3178  function withdraw(uint256 amount) public {... */\n      pop\n      jump\t// out\n        /* \"lab01-smart-contracts-with-solidity/artifacts/Codes/functions.sol\":1353:1474  function getData() public view returns (uint) {... */\n    tag_27:\n        /* \"lab01-smart-contracts-with-solidity/artifacts/Codes/functions.sol\":1393:1397  uint */\n      0x00\n        /* \"lab01-smart-contracts-with-solidity/artifacts/Codes/functions.sol\":1416:1420  data */\n      sload(0x00)\n        /* \"lab01-smart-contracts-with-solidity/artifacts/Codes/functions.sol\":1409:1420  return data */\n      swap1\n      pop\n        /* \"lab01-smart-contracts-with-solidity/artifacts/Codes/functions.sol\":1353:1474  function getData() public view returns (uint) {... */\n      swap1\n      jump\t// out\n        /* \"lab01-smart-contracts-with-solidity/artifacts/Codes/functions.sol\":381:476  function setData(uint _data) public {... */\n    tag_32:\n        /* \"lab01-smart-contracts-with-solidity/artifacts/Codes/functions.sol\":434:439  _data */\n      dup1\n        /* \"lab01-smart-contracts-with-solidity/artifacts/Codes/functions.sol\":427:431  data */\n      0x00\n        /* \"lab01-smart-contracts-with-solidity/artifacts/Codes/functions.sol\":427:439  data = _data */\n      dup2\n      swap1\n      sstore\n      pop\n        /* \"lab01-smart-contracts-with-solidity/artifacts/Codes/functions.sol\":381:476  function setData(uint _data) public {... */\n      pop\n      jump\t// out\n        /* \"lab01-smart-contracts-with-solidity/artifacts/Codes/functions.sol\":2551:2714  function getContractBalance() public view returns (uint256) {... */\n    tag_35:\n        /* \"lab01-smart-contracts-with-solidity/artifacts/Codes/functions.sol\":2602:2609  uint256 */\n      0x00\n        /* \"lab01-smart-contracts-with-solidity/artifacts/Codes/functions.sol\":2686:2707  address(this).balance */\n      selfbalance\n        /* \"lab01-smart-contracts-with-solidity/artifacts/Codes/functions.sol\":2679:2707  return address(this).balance */\n      swap1\n      pop\n        /* \"lab01-smart-contracts-with-solidity/artifacts/Codes/functions.sol\":2551:2714  function getContractBalance() public view returns (uint256) {... */\n      swap1\n      jump\t// out\n        /* \"lab01-smart-contracts-with-solidity/artifacts/Codes/functions.sol\":145:161  uint public data */\n    tag_39:\n      sload(0x00)\n      dup2\n      jump\t// out\n        /* \"lab01-smart-contracts-with-solidity/artifacts/Codes/functions.sol\":1783:1925  function callInternalFunction() public view returns (uint) {... */\n    tag_43:\n        /* \"lab01-smart-contracts-with-solidity/artifacts/Codes/functions.sol\":1836:1840  uint */\n      0x00\n        /* \"lab01-smart-contracts-with-solidity/artifacts/Codes/functions.sol\":1859:1874  getDoubleData() */\n      tag_69\n        /* \"lab01-smart-contracts-with-solidity/artifacts/Codes/functions.sol\":1859:1872  getDoubleData */\n      tag_70\n        /* \"lab01-smart-contracts-with-solidity/artifacts/Codes/functions.sol\":1859:1874  getDoubleData() */\n      jump\t// in\n    tag_69:\n        /* \"lab01-smart-contracts-with-solidity/artifacts/Codes/functions.sol\":1852:1874  return getDoubleData() */\n      swap1\n      pop\n        /* \"lab01-smart-contracts-with-solidity/artifacts/Codes/functions.sol\":1783:1925  function callInternalFunction() public view returns (uint) {... */\n      swap1\n      jump\t// out\n        /* \"lab01-smart-contracts-with-solidity/artifacts/Codes/functions.sol\":1061:1200  function externalDoubleData() external view returns (uint) {... */\n    tag_47:\n        /* \"lab01-smart-contracts-with-solidity/artifacts/Codes/functions.sol\":1114:1118  uint */\n      0x00\n        /* \"lab01-smart-contracts-with-solidity/artifacts/Codes/functions.sol\":1137:1150  _doubleData() */\n      tag_72\n        /* \"lab01-smart-contracts-with-solidity/artifacts/Codes/functions.sol\":1137:1148  _doubleData */\n      tag_73\n        /* \"lab01-smart-contracts-with-solidity/artifacts/Codes/functions.sol\":1137:1150  _doubleData() */\n      jump\t// in\n    tag_72:\n        /* \"lab01-smart-contracts-with-solidity/artifacts/Codes/functions.sol\":1130:1150  return _doubleData() */\n      swap1\n      pop\n        /* \"lab01-smart-contracts-with-solidity/artifacts/Codes/functions.sol\":1061:1200  function externalDoubleData() external view returns (uint) {... */\n      swap1\n      jump\t// out\n        /* \"lab01-smart-contracts-with-solidity/artifacts/Codes/functions.sol\":2165:2429  function deposit() public payable {... */\n    tag_50:\n        /* \"lab01-smart-contracts-with-solidity/artifacts/Codes/functions.sol\":2287:2288  0 */\n      0x00\n        /* \"lab01-smart-contracts-with-solidity/artifacts/Codes/functions.sol\":2275:2284  msg.value */\n      callvalue\n        /* \"lab01-smart-contracts-with-solidity/artifacts/Codes/functions.sol\":2275:2288  msg.value > 0 */\n      gt\n        /* \"lab01-smart-contracts-with-solidity/artifacts/Codes/functions.sol\":2267:2313  require(msg.value > 0, \"Must send some Ether\") */\n      tag_75\n      jumpi\n      mload(0x40)\n      0x08c379a000000000000000000000000000000000000000000000000000000000\n      dup2\n      mstore\n      0x04\n      add\n      tag_76\n      swap1\n      tag_77\n      jump\t// in\n    tag_76:\n      mload(0x40)\n      dup1\n      swap2\n      sub\n      swap1\n      revert\n    tag_75:\n        /* \"lab01-smart-contracts-with-solidity/artifacts/Codes/functions.sol\":2413:2422  msg.value */\n      callvalue\n        /* \"lab01-smart-contracts-with-solidity/artifacts/Codes/functions.sol\":2389:2397  balances */\n      0x01\n        /* \"lab01-smart-contracts-with-solidity/artifacts/Codes/functions.sol\":2389:2409  balances[msg.sender] */\n      0x00\n        /* \"lab01-smart-contracts-with-solidity/artifacts/Codes/functions.sol\":2398:2408  msg.sender */\n      caller\n        /* \"lab01-smart-contracts-with-solidity/artifacts/Codes/functions.sol\":2389:2409  balances[msg.sender] */\n      0xffffffffffffffffffffffffffffffffffffffff\n      and\n      0xffffffffffffffffffffffffffffffffffffffff\n      and\n      dup2\n      mstore\n      0x20\n      add\n      swap1\n      dup2\n      mstore\n      0x20\n      add\n      0x00\n      keccak256\n      0x00\n        /* \"lab01-smart-contracts-with-solidity/artifacts/Codes/functions.sol\":2389:2422  balances[msg.sender] += msg.value */\n      dup3\n      dup3\n      sload\n      tag_78\n      swap2\n      swap1\n      tag_79\n      jump\t// in\n    tag_78:\n      swap3\n      pop\n      pop\n      dup2\n      swap1\n      sstore\n      pop\n        /* \"lab01-smart-contracts-with-solidity/artifacts/Codes/functions.sol\":2165:2429  function deposit() public payable {... */\n      jump\t// out\n        /* \"lab01-smart-contracts-with-solidity/artifacts/Codes/functions.sol\":1588:1723  function addNumbers(uint a, uint b) public pure returns (uint) {... */\n    tag_55:\n        /* \"lab01-smart-contracts-with-solidity/artifacts/Codes/functions.sol\":1645:1649  uint */\n      0x00\n        /* \"lab01-smart-contracts-with-solidity/artifacts/Codes/functions.sol\":1672:1673  b */\n      dup2\n        /* \"lab01-smart-contracts-with-solidity/artifacts/Codes/functions.sol\":1668:1669  a */\n      dup4\n        /* \"lab01-smart-contracts-with-solidity/artifacts/Codes/functions.sol\":1668:1673  a + b */\n      tag_81\n      swap2\n      swap1\n      tag_79\n      jump\t// in\n    tag_81:\n        /* \"lab01-smart-contracts-with-solidity/artifacts/Codes/functions.sol\":1661:1673  return a + b */\n      swap1\n      pop\n        /* \"lab01-smart-contracts-with-solidity/artifacts/Codes/functions.sol\":1588:1723  function addNumbers(uint a, uint b) public pure returns (uint) {... */\n      swap3\n      swap2\n      pop\n      pop\n      jump\t// out\n        /* \"lab01-smart-contracts-with-solidity/artifacts/Codes/functions.sol\":807:950  function getDoubleData() internal view returns (uint) {... */\n    tag_70:\n        /* \"lab01-smart-contracts-with-solidity/artifacts/Codes/functions.sol\":855:859  uint */\n      0x00\n        /* \"lab01-smart-contracts-with-solidity/artifacts/Codes/functions.sol\":878:891  _doubleData() */\n      tag_83\n        /* \"lab01-smart-contracts-with-solidity/artifacts/Codes/functions.sol\":878:889  _doubleData */\n      tag_73\n        /* \"lab01-smart-contracts-with-solidity/artifacts/Codes/functions.sol\":878:891  _doubleData() */\n      jump\t// in\n    tag_83:\n        /* \"lab01-smart-contracts-with-solidity/artifacts/Codes/functions.sol\":871:891  return _doubleData() */\n      swap1\n      pop\n        /* \"lab01-smart-contracts-with-solidity/artifacts/Codes/functions.sol\":807:950  function getDoubleData() internal view returns (uint) {... */\n      swap1\n      jump\t// out\n        /* \"lab01-smart-contracts-with-solidity/artifacts/Codes/functions.sol\":586:691  function _doubleData() private view returns (uint) {... */\n    tag_73:\n        /* \"lab01-smart-contracts-with-solidity/artifacts/Codes/functions.sol\":631:635  uint */\n      0x00\n        /* \"lab01-smart-contracts-with-solidity/artifacts/Codes/functions.sol\":661:662  2 */\n      0x02\n        /* \"lab01-smart-contracts-with-solidity/artifacts/Codes/functions.sol\":654:658  data */\n      sload(0x00)\n        /* \"lab01-smart-contracts-with-solidity/artifacts/Codes/functions.sol\":654:662  data * 2 */\n      tag_85\n      swap2\n      swap1\n      tag_86\n      jump\t// in\n    tag_85:\n        /* \"lab01-smart-contracts-with-solidity/artifacts/Codes/functions.sol\":647:662  return data * 2 */\n      swap1\n      pop\n        /* \"lab01-smart-contracts-with-solidity/artifacts/Codes/functions.sol\":586:691  function _doubleData() private view returns (uint) {... */\n      swap1\n      jump\t// out\n        /* \"#utility.yul\":88:205   */\n    tag_88:\n        /* \"#utility.yul\":197:198   */\n      0x00\n        /* \"#utility.yul\":194:195   */\n      0x00\n        /* \"#utility.yul\":187:199   */\n      revert\n        /* \"#utility.yul\":334:460   */\n    tag_90:\n        /* \"#utility.yul\":371:378   */\n      0x00\n        /* \"#utility.yul\":411:453   */\n      0xffffffffffffffffffffffffffffffffffffffff\n        /* \"#utility.yul\":404:409   */\n      dup3\n        /* \"#utility.yul\":400:454   */\n      and\n        /* \"#utility.yul\":389:454   */\n      swap1\n      pop\n        /* \"#utility.yul\":334:460   */\n      swap2\n      swap1\n      pop\n      jump\t// out\n        /* \"#utility.yul\":466:562   */\n    tag_91:\n        /* \"#utility.yul\":503:510   */\n      0x00\n        /* \"#utility.yul\":532:556   */\n      tag_110\n        /* \"#utility.yul\":550:555   */\n      dup3\n        /* \"#utility.yul\":532:556   */\n      tag_90\n      jump\t// in\n    tag_110:\n        /* \"#utility.yul\":521:556   */\n      swap1\n      pop\n        /* \"#utility.yul\":466:562   */\n      swap2\n      swap1\n      pop\n      jump\t// out\n        /* \"#utility.yul\":568:690   */\n    tag_92:\n        /* \"#utility.yul\":641:665   */\n      tag_112\n        /* \"#utility.yul\":659:664   */\n      dup2\n        /* \"#utility.yul\":641:665   */\n      tag_91\n      jump\t// in\n    tag_112:\n        /* \"#utility.yul\":634:639   */\n      dup2\n        /* \"#utility.yul\":631:666   */\n      eq\n        /* \"#utility.yul\":621:684   */\n      tag_113\n      jumpi\n        /* \"#utility.yul\":680:681   */\n      0x00\n        /* \"#utility.yul\":677:678   */\n      0x00\n        /* \"#utility.yul\":670:682   */\n      revert\n        /* \"#utility.yul\":621:684   */\n    tag_113:\n        /* \"#utility.yul\":568:690   */\n      pop\n      jump\t// out\n        /* \"#utility.yul\":696:835   */\n    tag_93:\n        /* \"#utility.yul\":742:747   */\n      0x00\n        /* \"#utility.yul\":780:786   */\n      dup2\n        /* \"#utility.yul\":767:787   */\n      calldataload\n        /* \"#utility.yul\":758:787   */\n      swap1\n      pop\n        /* \"#utility.yul\":796:829   */\n      tag_115\n        /* \"#utility.yul\":823:828   */\n      dup2\n        /* \"#utility.yul\":796:829   */\n      tag_92\n      jump\t// in\n    tag_115:\n        /* \"#utility.yul\":696:835   */\n      swap3\n      swap2\n      pop\n      pop\n      jump\t// out\n        /* \"#utility.yul\":841:1170   */\n    tag_16:\n        /* \"#utility.yul\":900:906   */\n      0x00\n        /* \"#utility.yul\":949:951   */\n      0x20\n        /* \"#utility.yul\":937:946   */\n      dup3\n        /* \"#utility.yul\":928:935   */\n      dup5\n        /* \"#utility.yul\":924:947   */\n      sub\n        /* \"#utility.yul\":920:952   */\n      slt\n        /* \"#utility.yul\":917:1036   */\n      iszero\n      tag_117\n      jumpi\n        /* \"#utility.yul\":955:1034   */\n      tag_118\n      tag_88\n      jump\t// in\n    tag_118:\n        /* \"#utility.yul\":917:1036   */\n    tag_117:\n        /* \"#utility.yul\":1075:1076   */\n      0x00\n        /* \"#utility.yul\":1100:1153   */\n      tag_119\n        /* \"#utility.yul\":1145:1152   */\n      dup5\n        /* \"#utility.yul\":1136:1142   */\n      dup3\n        /* \"#utility.yul\":1125:1134   */\n      dup6\n        /* \"#utility.yul\":1121:1143   */\n      add\n        /* \"#utility.yul\":1100:1153   */\n      tag_93\n      jump\t// in\n    tag_119:\n        /* \"#utility.yul\":1090:1153   */\n      swap2\n      pop\n        /* \"#utility.yul\":1046:1163   */\n      pop\n        /* \"#utility.yul\":841:1170   */\n      swap3\n      swap2\n      pop\n      pop\n      jump\t// out\n        /* \"#utility.yul\":1176:1253   */\n    tag_94:\n        /* \"#utility.yul\":1213:1220   */\n      0x00\n        /* \"#utility.yul\":1242:1247   */\n      dup2\n        /* \"#utility.yul\":1231:1247   */\n      swap1\n      pop\n        /* \"#utility.yul\":1176:1253   */\n      swap2\n      swap1\n      pop\n      jump\t// out\n        /* \"#utility.yul\":1259:1377   */\n    tag_95:\n        /* \"#utility.yul\":1346:1370   */\n      tag_122\n        /* \"#utility.yul\":1364:1369   */\n      dup2\n        /* \"#utility.yul\":1346:1370   */\n      tag_94\n      jump\t// in\n    tag_122:\n        /* \"#utility.yul\":1341:1344   */\n      dup3\n        /* \"#utility.yul\":1334:1371   */\n      mstore\n        /* \"#utility.yul\":1259:1377   */\n      pop\n      pop\n      jump\t// out\n        /* \"#utility.yul\":1383:1605   */\n    tag_19:\n        /* \"#utility.yul\":1476:1480   */\n      0x00\n        /* \"#utility.yul\":1514:1516   */\n      0x20\n        /* \"#utility.yul\":1503:1512   */\n      dup3\n        /* \"#utility.yul\":1499:1517   */\n      add\n        /* \"#utility.yul\":1491:1517   */\n      swap1\n      pop\n        /* \"#utility.yul\":1527:1598   */\n      tag_124\n        /* \"#utility.yul\":1595:1596   */\n      0x00\n        /* \"#utility.yul\":1584:1593   */\n      dup4\n        /* \"#utility.yul\":1580:1597   */\n      add\n        /* \"#utility.yul\":1571:1577   */\n      dup5\n        /* \"#utility.yul\":1527:1598   */\n      tag_95\n      jump\t// in\n    tag_124:\n        /* \"#utility.yul\":1383:1605   */\n      swap3\n      swap2\n      pop\n      pop\n      jump\t// out\n        /* \"#utility.yul\":1611:1733   */\n    tag_96:\n        /* \"#utility.yul\":1684:1708   */\n      tag_126\n        /* \"#utility.yul\":1702:1707   */\n      dup2\n        /* \"#utility.yul\":1684:1708   */\n      tag_94\n      jump\t// in\n    tag_126:\n        /* \"#utility.yul\":1677:1682   */\n      dup2\n        /* \"#utility.yul\":1674:1709   */\n      eq\n        /* \"#utility.yul\":1664:1727   */\n      tag_127\n      jumpi\n        /* \"#utility.yul\":1723:1724   */\n      0x00\n        /* \"#utility.yul\":1720:1721   */\n      0x00\n        /* \"#utility.yul\":1713:1725   */\n      revert\n        /* \"#utility.yul\":1664:1727   */\n    tag_127:\n        /* \"#utility.yul\":1611:1733   */\n      pop\n      jump\t// out\n        /* \"#utility.yul\":1739:1878   */\n    tag_97:\n        /* \"#utility.yul\":1785:1790   */\n      0x00\n        /* \"#utility.yul\":1823:1829   */\n      dup2\n        /* \"#utility.yul\":1810:1830   */\n      calldataload\n        /* \"#utility.yul\":1801:1830   */\n      swap1\n      pop\n        /* \"#utility.yul\":1839:1872   */\n      tag_129\n        /* \"#utility.yul\":1866:1871   */\n      dup2\n        /* \"#utility.yul\":1839:1872   */\n      tag_96\n      jump\t// in\n    tag_129:\n        /* \"#utility.yul\":1739:1878   */\n      swap3\n      swap2\n      pop\n      pop\n      jump\t// out\n        /* \"#utility.yul\":1884:2213   */\n    tag_23:\n        /* \"#utility.yul\":1943:1949   */\n      0x00\n        /* \"#utility.yul\":1992:1994   */\n      0x20\n        /* \"#utility.yul\":1980:1989   */\n      dup3\n        /* \"#utility.yul\":1971:1978   */\n      dup5\n        /* \"#utility.yul\":1967:1990   */\n      sub\n        /* \"#utility.yul\":1963:1995   */\n      slt\n        /* \"#utility.yul\":1960:2079   */\n      iszero\n      tag_131\n      jumpi\n        /* \"#utility.yul\":1998:2077   */\n      tag_132\n      tag_88\n      jump\t// in\n    tag_132:\n        /* \"#utility.yul\":1960:2079   */\n    tag_131:\n        /* \"#utility.yul\":2118:2119   */\n      0x00\n        /* \"#utility.yul\":2143:2196   */\n      tag_133\n        /* \"#utility.yul\":2188:2195   */\n      dup5\n        /* \"#utility.yul\":2179:2185   */\n      dup3\n        /* \"#utility.yul\":2168:2177   */\n      dup6\n        /* \"#utility.yul\":2164:2186   */\n      add\n        /* \"#utility.yul\":2143:2196   */\n      tag_97\n      jump\t// in\n    tag_133:\n        /* \"#utility.yul\":2133:2196   */\n      swap2\n      pop\n        /* \"#utility.yul\":2089:2206   */\n      pop\n        /* \"#utility.yul\":1884:2213   */\n      swap3\n      swap2\n      pop\n      pop\n      jump\t// out\n        /* \"#utility.yul\":2219:2693   */\n    tag_54:\n        /* \"#utility.yul\":2287:2293   */\n      0x00\n        /* \"#utility.yul\":2295:2301   */\n      0x00\n        /* \"#utility.yul\":2344:2346   */\n      0x40\n        /* \"#utility.yul\":2332:2341   */\n      dup4\n        /* \"#utility.yul\":2323:2330   */\n      dup6\n        /* \"#utility.yul\":2319:2342   */\n      sub\n        /* \"#utility.yul\":2315:2347   */\n      slt\n        /* \"#utility.yul\":2312:2431   */\n      iszero\n      tag_135\n      jumpi\n        /* \"#utility.yul\":2350:2429   */\n      tag_136\n      tag_88\n      jump\t// in\n    tag_136:\n        /* \"#utility.yul\":2312:2431   */\n    tag_135:\n        /* \"#utility.yul\":2470:2471   */\n      0x00\n        /* \"#utility.yul\":2495:2548   */\n      tag_137\n        /* \"#utility.yul\":2540:2547   */\n      dup6\n        /* \"#utility.yul\":2531:2537   */\n      dup3\n        /* \"#utility.yul\":2520:2529   */\n      dup7\n        /* \"#utility.yul\":2516:2538   */\n      add\n        /* \"#utility.yul\":2495:2548   */\n      tag_97\n      jump\t// in\n    tag_137:\n        /* \"#utility.yul\":2485:2548   */\n      swap3\n      pop\n        /* \"#utility.yul\":2441:2558   */\n      pop\n        /* \"#utility.yul\":2597:2599   */\n      0x20\n        /* \"#utility.yul\":2623:2676   */\n      tag_138\n        /* \"#utility.yul\":2668:2675   */\n      dup6\n        /* \"#utility.yul\":2659:2665   */\n      dup3\n        /* \"#utility.yul\":2648:2657   */\n      dup7\n        /* \"#utility.yul\":2644:2666   */\n      add\n        /* \"#utility.yul\":2623:2676   */\n      tag_97\n      jump\t// in\n    tag_138:\n        /* \"#utility.yul\":2613:2676   */\n      swap2\n      pop\n        /* \"#utility.yul\":2568:2686   */\n      pop\n        /* \"#utility.yul\":2219:2693   */\n      swap3\n      pop\n      swap3\n      swap1\n      pop\n      jump\t// out\n        /* \"#utility.yul\":2699:2868   */\n    tag_98:\n        /* \"#utility.yul\":2783:2794   */\n      0x00\n        /* \"#utility.yul\":2817:2823   */\n      dup3\n        /* \"#utility.yul\":2812:2815   */\n      dup3\n        /* \"#utility.yul\":2805:2824   */\n      mstore\n        /* \"#utility.yul\":2857:2861   */\n      0x20\n        /* \"#utility.yul\":2852:2855   */\n      dup3\n        /* \"#utility.yul\":2848:2862   */\n      add\n        /* \"#utility.yul\":2833:2862   */\n      swap1\n      pop\n        /* \"#utility.yul\":2699:2868   */\n      swap3\n      swap2\n      pop\n      pop\n      jump\t// out\n        /* \"#utility.yul\":2874:3042   */\n    tag_99:\n        /* \"#utility.yul\":3014:3034   */\n      0x496e73756666696369656e742066756e64730000000000000000000000000000\n        /* \"#utility.yul\":3010:3011   */\n      0x00\n        /* \"#utility.yul\":3002:3008   */\n      dup3\n        /* \"#utility.yul\":2998:3012   */\n      add\n        /* \"#utility.yul\":2991:3035   */\n      mstore\n        /* \"#utility.yul\":2874:3042   */\n      pop\n      jump\t// out\n        /* \"#utility.yul\":3048:3414   */\n    tag_100:\n        /* \"#utility.yul\":3190:3193   */\n      0x00\n        /* \"#utility.yul\":3211:3278   */\n      tag_142\n        /* \"#utility.yul\":3275:3277   */\n      0x12\n        /* \"#utility.yul\":3270:3273   */\n      dup4\n        /* \"#utility.yul\":3211:3278   */\n      tag_98\n      jump\t// in\n    tag_142:\n        /* \"#utility.yul\":3204:3278   */\n      swap2\n      pop\n        /* \"#utility.yul\":3287:3380   */\n      tag_143\n        /* \"#utility.yul\":3376:3379   */\n      dup3\n        /* \"#utility.yul\":3287:3380   */\n      tag_99\n      jump\t// in\n    tag_143:\n        /* \"#utility.yul\":3405:3407   */\n      0x20\n        /* \"#utility.yul\":3400:3403   */\n      dup3\n        /* \"#utility.yul\":3396:3408   */\n      add\n        /* \"#utility.yul\":3389:3408   */\n      swap1\n      pop\n        /* \"#utility.yul\":3048:3414   */\n      swap2\n      swap1\n      pop\n      jump\t// out\n        /* \"#utility.yul\":3420:3839   */\n    tag_60:\n        /* \"#utility.yul\":3586:3590   */\n      0x00\n        /* \"#utility.yul\":3624:3626   */\n      0x20\n        /* \"#utility.yul\":3613:3622   */\n      dup3\n        /* \"#utility.yul\":3609:3627   */\n      add\n        /* \"#utility.yul\":3601:3627   */\n      swap1\n      pop\n        /* \"#utility.yul\":3673:3682   */\n      dup2\n        /* \"#utility.yul\":3667:3671   */\n      dup2\n        /* \"#utility.yul\":3663:3683   */\n      sub\n        /* \"#utility.yul\":3659:3660   */\n      0x00\n        /* \"#utility.yul\":3648:3657   */\n      dup4\n        /* \"#utility.yul\":3644:3661   */\n      add\n        /* \"#utility.yul\":3637:3684   */\n      mstore\n        /* \"#utility.yul\":3701:3832   */\n      tag_145\n        /* \"#utility.yul\":3827:3831   */\n      dup2\n        /* \"#utility.yul\":3701:3832   */\n      tag_100\n      jump\t// in\n    tag_145:\n        /* \"#utility.yul\":3693:3832   */\n      swap1\n      pop\n        /* \"#utility.yul\":3420:3839   */\n      swap2\n      swap1\n      pop\n      jump\t// out\n        /* \"#utility.yul\":3845:4025   */\n    tag_101:\n        /* \"#utility.yul\":3893:3970   */\n      0x4e487b7100000000000000000000000000000000000000000000000000000000\n        /* \"#utility.yul\":3890:3891   */\n      0x00\n        /* \"#utility.yul\":3883:3971   */\n      mstore\n        /* \"#utility.yul\":3990:3994   */\n      0x11\n        /* \"#utility.yul\":3987:3988   */\n      0x04\n        /* \"#utility.yul\":3980:3995   */\n      mstore\n        /* \"#utility.yul\":4014:4018   */\n      0x24\n        /* \"#utility.yul\":4011:4012   */\n      0x00\n        /* \"#utility.yul\":4004:4019   */\n      revert\n        /* \"#utility.yul\":4031:4225   */\n    tag_62:\n        /* \"#utility.yul\":4071:4075   */\n      0x00\n        /* \"#utility.yul\":4091:4111   */\n      tag_148\n        /* \"#utility.yul\":4109:4110   */\n      dup3\n        /* \"#utility.yul\":4091:4111   */\n      tag_94\n      jump\t// in\n    tag_148:\n        /* \"#utility.yul\":4086:4111   */\n      swap2\n      pop\n        /* \"#utility.yul\":4125:4145   */\n      tag_149\n        /* \"#utility.yul\":4143:4144   */\n      dup4\n        /* \"#utility.yul\":4125:4145   */\n      tag_94\n      jump\t// in\n    tag_149:\n        /* \"#utility.yul\":4120:4145   */\n      swap3\n      pop\n        /* \"#utility.yul\":4169:4170   */\n      dup3\n        /* \"#utility.yul\":4166:4167   */\n      dup3\n        /* \"#utility.yul\":4162:4171   */\n      sub\n        /* \"#utility.yul\":4154:4171   */\n      swap1\n      pop\n        /* \"#utility.yul\":4193:4194   */\n      dup2\n        /* \"#utility.yul\":4187:4191   */\n      dup2\n        /* \"#utility.yul\":4184:4195   */\n      gt\n        /* \"#utility.yul\":4181:4218   */\n      iszero\n      tag_150\n      jumpi\n        /* \"#utility.yul\":4198:4216   */\n      tag_151\n      tag_101\n      jump\t// in\n    tag_151:\n        /* \"#utility.yul\":4181:4218   */\n    tag_150:\n        /* \"#utility.yul\":4031:4225   */\n      swap3\n      swap2\n      pop\n      pop\n      jump\t// out\n        /* \"#utility.yul\":4231:4401   */\n    tag_102:\n        /* \"#utility.yul\":4371:4393   */\n      0x4d7573742073656e6420736f6d65204574686572000000000000000000000000\n        /* \"#utility.yul\":4367:4368   */\n      0x00\n        /* \"#utility.yul\":4359:4365   */\n      dup3\n        /* \"#utility.yul\":4355:4369   */\n      add\n        /* \"#utility.yul\":4348:4394   */\n      mstore\n        /* \"#utility.yul\":4231:4401   */\n      pop\n      jump\t// out\n        /* \"#utility.yul\":4407:4773   */\n    tag_103:\n        /* \"#utility.yul\":4549:4552   */\n      0x00\n        /* \"#utility.yul\":4570:4637   */\n      tag_154\n        /* \"#utility.yul\":4634:4636   */\n      0x14\n        /* \"#utility.yul\":4629:4632   */\n      dup4\n        /* \"#utility.yul\":4570:4637   */\n      tag_98\n      jump\t// in\n    tag_154:\n        /* \"#utility.yul\":4563:4637   */\n      swap2\n      pop\n        /* \"#utility.yul\":4646:4739   */\n      tag_155\n        /* \"#utility.yul\":4735:4738   */\n      dup3\n        /* \"#utility.yul\":4646:4739   */\n      tag_102\n      jump\t// in\n    tag_155:\n        /* \"#utility.yul\":4764:4766   */\n      0x20\n        /* \"#utility.yul\":4759:4762   */\n      dup3\n        /* \"#utility.yul\":4755:4767   */\n      add\n        /* \"#utility.yul\":4748:4767   */\n      swap1\n      pop\n        /* \"#utility.yul\":4407:4773   */\n      swap2\n      swap1\n      pop\n      jump\t// out\n        /* \"#utility.yul\":4779:5198   */\n    tag_77:\n        /* \"#utility.yul\":4945:4949   */\n      0x00\n        /* \"#utility.yul\":4983:4985   */\n      0x20\n        /* \"#utility.yul\":4972:4981   */\n      dup3\n        /* \"#utility.yul\":4968:4986   */\n      add\n        /* \"#utility.yul\":4960:4986   */\n      swap1\n      pop\n        /* \"#utility.yul\":5032:5041   */\n      dup2\n        /* \"#utility.yul\":5026:5030   */\n      dup2\n        /* \"#utility.yul\":5022:5042   */\n      sub\n        /* \"#utility.yul\":5018:5019   */\n      0x00\n        /* \"#utility.yul\":5007:5016   */\n      dup4\n        /* \"#utility.yul\":5003:5020   */\n      add\n        /* \"#utility.yul\":4996:5043   */\n      mstore\n        /* \"#utility.yul\":5060:5191   */\n      tag_157\n        /* \"#utility.yul\":5186:5190   */\n      dup2\n        /* \"#utility.yul\":5060:5191   */\n      tag_103\n      jump\t// in\n    tag_157:\n        /* \"#utility.yul\":5052:5191   */\n      swap1\n      pop\n        /* \"#utility.yul\":4779:5198   */\n      swap2\n      swap1\n      pop\n      jump\t// out\n        /* \"#utility.yul\":5204:5395   */\n    tag_79:\n        /* \"#utility.yul\":5244:5247   */\n      0x00\n        /* \"#utility.yul\":5263:5283   */\n      tag_159\n        /* \"#utility.yul\":5281:5282   */\n      dup3\n        /* \"#utility.yul\":5263:5283   */\n      tag_94\n      jump\t// in\n    tag_159:\n        /* \"#utility.yul\":5258:5283   */\n      swap2\n      pop\n        /* \"#utility.yul\":5297:5317   */\n      tag_160\n        /* \"#utility.yul\":5315:5316   */\n      dup4\n        /* \"#utility.yul\":5297:5317   */\n      tag_94\n      jump\t// in\n    tag_160:\n        /* \"#utility.yul\":5292:5317   */\n      swap3\n      pop\n        /* \"#utility.yul\":5340:5341   */\n      dup3\n        /* \"#utility.yul\":5337:5338   */\n      dup3\n        /* \"#utility.yul\":5333:5342   */\n      add\n        /* \"#utility.yul\":5326:5342   */\n      swap1\n      pop\n        /* \"#utility.yul\":5361:5364   */\n      dup1\n        /* \"#utility.yul\":5358:5359   */\n      dup3\n        /* \"#utility.yul\":5355:5365   */\n      gt\n        /* \"#utility.yul\":5352:5388   */\n      iszero\n      tag_161\n      jumpi\n        /* \"#utility.yul\":5368:5386   */\n      tag_162\n      tag_101\n      jump\t// in\n    tag_162:\n        /* \"#utility.yul\":5352:5388   */\n    tag_161:\n        /* \"#utility.yul\":5204:5395   */\n      swap3\n      swap2\n      pop\n      pop\n      jump\t// out\n        /* \"#utility.yul\":5401:5811   */\n    tag_86:\n        /* \"#utility.yul\":5441:5448   */\n      0x00\n        /* \"#utility.yul\":5464:5484   */\n      tag_164\n        /* \"#utility.yul\":5482:5483   */\n      dup3\n        /* \"#utility.yul\":5464:5484   */\n      tag_94\n      jump\t// in\n    tag_164:\n        /* \"#utility.yul\":5459:5484   */\n      swap2\n      pop\n        /* \"#utility.yul\":5498:5518   */\n      tag_165\n        /* \"#utility.yul\":5516:5517   */\n      dup4\n        /* \"#utility.yul\":5498:5518   */\n      tag_94\n      jump\t// in\n    tag_165:\n        /* \"#utility.yul\":5493:5518   */\n      swap3\n      pop\n        /* \"#utility.yul\":5553:5554   */\n      dup3\n        /* \"#utility.yul\":5550:5551   */\n      dup3\n        /* \"#utility.yul\":5546:5555   */\n      mul\n        /* \"#utility.yul\":5575:5605   */\n      tag_166\n        /* \"#utility.yul\":5593:5604   */\n      dup2\n        /* \"#utility.yul\":5575:5605   */\n      tag_94\n      jump\t// in\n    tag_166:\n        /* \"#utility.yul\":5564:5605   */\n      swap2\n      pop\n        /* \"#utility.yul\":5754:5755   */\n      dup3\n        /* \"#utility.yul\":5745:5752   */\n      dup3\n        /* \"#utility.yul\":5741:5756   */\n      div\n        /* \"#utility.yul\":5738:5739   */\n      dup5\n        /* \"#utility.yul\":5735:5757   */\n      eq\n        /* \"#utility.yul\":5715:5716   */\n      dup4\n        /* \"#utility.yul\":5708:5717   */\n      iszero\n        /* \"#utility.yul\":5688:5771   */\n      or\n        /* \"#utility.yul\":5665:5804   */\n      tag_167\n      jumpi\n        /* \"#utility.yul\":5784:5802   */\n      tag_168\n      tag_101\n      jump\t// in\n    tag_168:\n        /* \"#utility.yul\":5665:5804   */\n    tag_167:\n        /* \"#utility.yul\":5449:5811   */\n      pop\n        /* \"#utility.yul\":5401:5811   */\n      swap3\n      swap2\n      pop\n      pop\n      jump\t// out\n\n    auxdata: 0xa2646970667358221220937997f6a7e8e26baf69d90cab741c49fd16db72a86070e3032db5598d54d26b64736f6c634300081e0033\n}\n",
				"bytecode": {
					"linkReferences": {},
					"object": "6080604052348015600e575f5ffd5b506040516108433803806108438339818101604052810190602e9190606b565b805f81905550506091565b5f5ffd5b5f819050919050565b604d81603d565b81146056575f5ffd5b50565b5f815190506065816046565b92915050565b5f60208284031215607d57607c6039565b5b5f6088848285016059565b91505092915050565b6107a58061009e5f395ff3fe608060405260043610610090575f3560e01c806373d4a13a1161005857806373d4a13a146101745780638701f8ca1461019e578063a94f2623146101c8578063d0e30db0146101f2578063ef9fc50b146101fc57610090565b806327e235e3146100945780632e1a7d4d146100d05780633bc5de30146100f85780635b4b73a9146101225780636f9fb98a1461014a575b5f5ffd5b34801561009f575f5ffd5b506100ba60048036038101906100b591906104cc565b610238565b6040516100c7919061050f565b60405180910390f35b3480156100db575f5ffd5b506100f660048036038101906100f19190610552565b61024d565b005b348015610103575f5ffd5b5061010c610367565b604051610119919061050f565b60405180910390f35b34801561012d575f5ffd5b5061014860048036038101906101439190610552565b61036f565b005b348015610155575f5ffd5b5061015e610378565b60405161016b919061050f565b60405180910390f35b34801561017f575f5ffd5b5061018861037f565b604051610195919061050f565b60405180910390f35b3480156101a9575f5ffd5b506101b2610384565b6040516101bf919061050f565b60405180910390f35b3480156101d3575f5ffd5b506101dc610392565b6040516101e9919061050f565b60405180910390f35b6101fa6103a0565b005b348015610207575f5ffd5b50610222600480360381019061021d919061057d565b610437565b60405161022f919061050f565b60405180910390f35b6001602052805f5260405f205f915090505481565b8060015f3373ffffffffffffffffffffffffffffffffffffffff1673ffffffffffffffffffffffffffffffffffffffff1681526020019081526020015f205410156102cd576040517f08c379a00000000000000000000000000000000000000000000000000000000081526004016102c490610615565b60405180910390fd5b8060015f3373ffffffffffffffffffffffffffffffffffffffff1673ffffffffffffffffffffffffffffffffffffffff1681526020019081526020015f205f8282546103199190610660565b925050819055503373ffffffffffffffffffffffffffffffffffffffff166108fc8290811502906040515f60405180830381858888f19350505050158015610363573d5f5f3e3d5ffd5b5050565b5f5f54905090565b805f8190555050565b5f47905090565b5f5481565b5f61038d61044c565b905090565b5f61039b61045a565b905090565b5f34116103e2576040517f08c379a00000000000000000000000000000000000000000000000000000000081526004016103d9906106dd565b60405180910390fd5b3460015f3373ffffffffffffffffffffffffffffffffffffffff1673ffffffffffffffffffffffffffffffffffffffff1681526020019081526020015f205f82825461042e91906106fb565b92505081905550565b5f818361044491906106fb565b905092915050565b5f61045561045a565b905090565b5f60025f54610469919061072e565b905090565b5f5ffd5b5f73ffffffffffffffffffffffffffffffffffffffff82169050919050565b5f61049b82610472565b9050919050565b6104ab81610491565b81146104b5575f5ffd5b50565b5f813590506104c6816104a2565b92915050565b5f602082840312156104e1576104e061046e565b5b5f6104ee848285016104b8565b91505092915050565b5f819050919050565b610509816104f7565b82525050565b5f6020820190506105225f830184610500565b92915050565b610531816104f7565b811461053b575f5ffd5b50565b5f8135905061054c81610528565b92915050565b5f602082840312156105675761056661046e565b5b5f6105748482850161053e565b91505092915050565b5f5f604083850312156105935761059261046e565b5b5f6105a08582860161053e565b92505060206105b18582860161053e565b9150509250929050565b5f82825260208201905092915050565b7f496e73756666696369656e742066756e647300000000000000000000000000005f82015250565b5f6105ff6012836105bb565b915061060a826105cb565b602082019050919050565b5f6020820190508181035f83015261062c816105f3565b9050919050565b7f4e487b71000000000000000000000000000000000000000000000000000000005f52601160045260245ffd5b5f61066a826104f7565b9150610675836104f7565b925082820390508181111561068d5761068c610633565b5b92915050565b7f4d7573742073656e6420736f6d652045746865720000000000000000000000005f82015250565b5f6106c76014836105bb565b91506106d282610693565b602082019050919050565b5f6020820190508181035f8301526106f4816106bb565b9050919050565b5f610705826104f7565b9150610710836104f7565b925082820190508082111561072857610727610633565b5b92915050565b5f610738826104f7565b9150610743836104f7565b9250828202610751816104f7565b9150828204841483151761076857610767610633565b5b509291505056fea2646970667358221220937997f6a7e8e26baf69d90cab741c49fd16db72a86070e3032db5598d54d26b64736f6c634300081e0033",
					"opcodes": "PUSH1 0x80 PUSH1 0x40 MSTORE CALLVALUE DUP1 ISZERO PUSH1 0xE JUMPI PUSH0 PUSH0 REVERT JUMPDEST POP PUSH1 0x40 MLOAD PUSH2 0x843 CODESIZE SUB DUP1 PUSH2 0x843 DUP4 CODECOPY DUP2 DUP2 ADD PUSH1 0x40 MSTORE DUP2 ADD SWAP1 PUSH1 0x2E SWAP2 SWAP1 PUSH1 0x6B JUMP JUMPDEST DUP1 PUSH0 DUP2 SWAP1 SSTORE POP POP PUSH1 0x91 JUMP JUMPDEST PUSH0 PUSH0 REVERT JUMPDEST PUSH0 DUP2 SWAP1 POP SWAP2 SWAP1 POP JUMP JUMPDEST PUSH1 0x4D DUP2 PUSH1 0x3D JUMP JUMPDEST DUP2 EQ PUSH1 0x56 JUMPI PUSH0 PUSH0 REVERT JUMPDEST POP JUMP JUMPDEST PUSH0 DUP2 MLOAD SWAP1 POP PUSH1 0x65 DUP2 PUSH1 0x46 JUMP JUMPDEST SWAP3 SWAP2 POP POP JUMP JUMPDEST PUSH0 PUSH1 0x20 DUP3 DUP5 SUB SLT ISZERO PUSH1 0x7D JUMPI PUSH1 0x7C PUSH1 0x39 JUMP JUMPDEST JUMPDEST PUSH0 PUSH1 0x88 DUP5 DUP3 DUP6 ADD PUSH1 0x59 JUMP JUMPDEST SWAP2 POP POP SWAP3 SWAP2 POP POP JUMP JUMPDEST PUSH2 0x7A5 DUP1 PUSH2 0x9E PUSH0 CODECOPY PUSH0 RETURN INVALID PUSH1 0x80 PUSH1 0x40 MSTORE PUSH1 0x4 CALLDATASIZE LT PUSH2 0x90 JUMPI PUSH0 CALLDATALOAD PUSH1 0xE0 SHR DUP1 PUSH4 0x73D4A13A GT PUSH2 0x58 JUMPI DUP1 PUSH4 0x73D4A13A EQ PUSH2 0x174 JUMPI DUP1 PUSH4 0x8701F8CA EQ PUSH2 0x19E JUMPI DUP1 PUSH4 0xA94F2623 EQ PUSH2 0x1C8 JUMPI DUP1 PUSH4 0xD0E30DB0 EQ PUSH2 0x1F2 JUMPI DUP1 PUSH4 0xEF9FC50B EQ PUSH2 0x1FC JUMPI PUSH2 0x90 JUMP JUMPDEST DUP1 PUSH4 0x27E235E3 EQ PUSH2 0x94 JUMPI DUP1 PUSH4 0x2E1A7D4D EQ PUSH2 0xD0 JUMPI DUP1 PUSH4 0x3BC5DE30 EQ PUSH2 0xF8 JUMPI DUP1 PUSH4 0x5B4B73A9 EQ PUSH2 0x122 JUMPI DUP1 PUSH4 0x6F9FB98A EQ PUSH2 0x14A JUMPI JUMPDEST PUSH0 PUSH0 REVERT JUMPDEST CALLVALUE DUP1 ISZERO PUSH2 0x9F JUMPI PUSH0 PUSH0 REVERT JUMPDEST POP PUSH2 0xBA PUSH1 0x4 DUP1 CALLDATASIZE SUB DUP2 ADD SWAP1 PUSH2 0xB5 SWAP2 SWAP1 PUSH2 0x4CC JUMP JUMPDEST PUSH2 0x238 JUMP JUMPDEST PUSH1 0x40 MLOAD PUSH2 0xC7 SWAP2 SWAP1 PUSH2 0x50F JUMP JUMPDEST PUSH1 0x40 MLOAD DUP1 SWAP2 SUB SWAP1 RETURN JUMPDEST CALLVALUE DUP1 ISZERO PUSH2 0xDB JUMPI PUSH0 PUSH0 REVERT JUMPDEST POP PUSH2 0xF6 PUSH1 0x4 DUP1 CALLDATASIZE SUB DUP2 ADD SWAP1 PUSH2 0xF1 SWAP2 SWAP1 PUSH2 0x552 JUMP JUMPDEST PUSH2 0x24D JUMP JUMPDEST STOP JUMPDEST CALLVALUE DUP1 ISZERO PUSH2 0x103 JUMPI PUSH0 PUSH0 REVERT JUMPDEST POP PUSH2 0x10C PUSH2 0x367 JUMP JUMPDEST PUSH1 0x40 MLOAD PUSH2 0x119 SWAP2 SWAP1 PUSH2 0x50F JUMP JUMPDEST PUSH1 0x40 MLOAD DUP1 SWAP2 SUB SWAP1 RETURN JUMPDEST CALLVALUE DUP1 ISZERO PUSH2 0x12D JUMPI PUSH0 PUSH0 REVERT JUMPDEST POP PUSH2 0x148 PUSH1 0x4 DUP1 CALLDATASIZE SUB DUP2 ADD SWAP1 PUSH2 0x143 SWAP2 SWAP1 PUSH2 0x552 JUMP JUMPDEST PUSH2 0x36F JUMP JUMPDEST STOP JUMPDEST CALLVALUE DUP1 ISZERO PUSH2 0x155 JUMPI PUSH0 PUSH0 REVERT JUMPDEST POP PUSH2 0x15E PUSH2 0x378 JUMP JUMPDEST PUSH1 0x40 MLOAD PUSH2 0x16B SWAP2 SWAP1 PUSH2 0x50F JUMP JUMPDEST PUSH1 0x40 MLOAD DUP1 SWAP2 SUB SWAP1 RETURN JUMPDEST CALLVALUE DUP1 ISZERO PUSH2 0x17F JUMPI PUSH0 PUSH0 REVERT JUMPDEST POP PUSH2 0x188 PUSH2 0x37F JUMP JUMPDEST PUSH1 0x40 MLOAD PUSH2 0x195 SWAP2 SWAP1 PUSH2 0x50F JUMP JUMPDEST PUSH1 0x40 MLOAD DUP1 SWAP2 SUB SWAP1 RETURN JUMPDEST CALLVALUE DUP1 ISZERO PUSH2 0x1A9 JUMPI PUSH0 PUSH0 REVERT JUMPDEST POP PUSH2 0x1B2 PUSH2 0x384 JUMP JUMPDEST PUSH1 0x40 MLOAD PUSH2 0x1BF SWAP2 SWAP1 PUSH2 0x50F JUMP JUMPDEST PUSH1 0x40 MLOAD DUP1 SWAP2 SUB SWAP1 RETURN JUMPDEST CALLVALUE DUP1 ISZERO PUSH2 0x1D3 JUMPI PUSH0 PUSH0 REVERT JUMPDEST POP PUSH2 0x1DC PUSH2 0x392 JUMP JUMPDEST PUSH1 0x40 MLOAD PUSH2 0x1E9 SWAP2 SWAP1 PUSH2 0x50F JUMP JUMPDEST PUSH1 0x40 MLOAD DUP1 SWAP2 SUB SWAP1 RETURN JUMPDEST PUSH2 0x1FA PUSH2 0x3A0 JUMP JUMPDEST STOP JUMPDEST CALLVALUE DUP1 ISZERO PUSH2 0x207 JUMPI PUSH0 PUSH0 REVERT JUMPDEST POP PUSH2 0x222 PUSH1 0x4 DUP1 CALLDATASIZE SUB DUP2 ADD SWAP1 PUSH2 0x21D SWAP2 SWAP1 PUSH2 0x57D JUMP JUMPDEST PUSH2 0x437 JUMP JUMPDEST PUSH1 0x40 MLOAD PUSH2 0x22F SWAP2 SWAP1 PUSH2 0x50F JUMP JUMPDEST PUSH1 0x40 MLOAD DUP1 SWAP2 SUB SWAP1 RETURN JUMPDEST PUSH1 0x1 PUSH1 0x20 MSTORE DUP1 PUSH0 MSTORE PUSH1 0x40 PUSH0 KECCAK256 PUSH0 SWAP2 POP SWAP1 POP SLOAD DUP2 JUMP JUMPDEST DUP1 PUSH1 0x1 PUSH0 CALLER PUSH20 0xFFFFFFFFFFFFFFFFFFFFFFFFFFFFFFFFFFFFFFFF AND PUSH20 0xFFFFFFFFFFFFFFFFFFFFFFFFFFFFFFFFFFFFFFFF AND DUP2 MSTORE PUSH1 0x20 ADD SWAP1 DUP2 MSTORE PUSH1 0x20 ADD PUSH0 KECCAK256 SLOAD LT ISZERO PUSH2 0x2CD JUMPI PUSH1 0x40 MLOAD PUSH32 0x8C379A000000000000000000000000000000000000000000000000000000000 DUP2 MSTORE PUSH1 0x4 ADD PUSH2 0x2C4 SWAP1 PUSH2 0x615 JUMP JUMPDEST PUSH1 0x40 MLOAD DUP1 SWAP2 SUB SWAP1 REVERT JUMPDEST DUP1 PUSH1 0x1 PUSH0 CALLER PUSH20 0xFFFFFFFFFFFFFFFFFFFFFFFFFFFFFFFFFFFFFFFF AND PUSH20 0xFFFFFFFFFFFFFFFFFFFFFFFFFFFFFFFFFFFFFFFF AND DUP2 MSTORE PUSH1 0x20 ADD SWAP1 DUP2 MSTORE PUSH1 0x20 ADD PUSH0 KECCAK256 PUSH0 DUP3 DUP3 SLOAD PUSH2 0x319 SWAP2 SWAP1 PUSH2 0x660 JUMP JUMPDEST SWAP3 POP POP DUP2 SWAP1 SSTORE POP CALLER PUSH20 0xFFFFFFFFFFFFFFFFFFFFFFFFFFFFFFFFFFFFFFFF AND PUSH2 0x8FC DUP3 SWAP1 DUP2 ISZERO MUL SWAP1 PUSH1 0x40 MLOAD PUSH0 PUSH1 0x40 MLOAD DUP1 DUP4 SUB DUP2 DUP6 DUP9 DUP9 CALL SWAP4 POP POP POP POP ISZERO DUP1 ISZERO PUSH2 0x363 JUMPI RETURNDATASIZE PUSH0 PUSH0 RETURNDATACOPY RETURNDATASIZE PUSH0 REVERT JUMPDEST POP POP JUMP JUMPDEST PUSH0 PUSH0 SLOAD SWAP1 POP SWAP1 JUMP JUMPDEST DUP1 PUSH0 DUP2 SWAP1 SSTORE POP POP JUMP JUMPDEST PUSH0 SELFBALANCE SWAP1 POP SWAP1 JUMP JUMPDEST PUSH0 SLOAD DUP2 JUMP JUMPDEST PUSH0 PUSH2 0x38D PUSH2 0x44C JUMP JUMPDEST SWAP1 POP SWAP1 JUMP JUMPDEST PUSH0 PUSH2 0x39B PUSH2 0x45A JUMP JUMPDEST SWAP1 POP SWAP1 JUMP JUMPDEST PUSH0 CALLVALUE GT PUSH2 0x3E2 JUMPI PUSH1 0x40 MLOAD PUSH32 0x8C379A000000000000000000000000000000000000000000000000000000000 DUP2 MSTORE PUSH1 0x4 ADD PUSH2 0x3D9 SWAP1 PUSH2 0x6DD JUMP JUMPDEST PUSH1 0x40 MLOAD DUP1 SWAP2 SUB SWAP1 REVERT JUMPDEST CALLVALUE PUSH1 0x1 PUSH0 CALLER PUSH20 0xFFFFFFFFFFFFFFFFFFFFFFFFFFFFFFFFFFFFFFFF AND PUSH20 0xFFFFFFFFFFFFFFFFFFFFFFFFFFFFFFFFFFFFFFFF AND DUP2 MSTORE PUSH1 0x20 ADD SWAP1 DUP2 MSTORE PUSH1 0x20 ADD PUSH0 KECCAK256 PUSH0 DUP3 DUP3 SLOAD PUSH2 0x42E SWAP2 SWAP1 PUSH2 0x6FB JUMP JUMPDEST SWAP3 POP POP DUP2 SWAP1 SSTORE POP JUMP JUMPDEST PUSH0 DUP2 DUP4 PUSH2 0x444 SWAP2 SWAP1 PUSH2 0x6FB JUMP JUMPDEST SWAP1 POP SWAP3 SWAP2 POP POP JUMP JUMPDEST PUSH0 PUSH2 0x455 PUSH2 0x45A JUMP JUMPDEST SWAP1 POP SWAP1 JUMP JUMPDEST PUSH0 PUSH1 0x2 PUSH0 SLOAD PUSH2 0x469 SWAP2 SWAP1 PUSH2 0x72E JUMP JUMPDEST SWAP1 POP SWAP1 JUMP JUMPDEST PUSH0 PUSH0 REVERT JUMPDEST PUSH0 PUSH20 0xFFFFFFFFFFFFFFFFFFFFFFFFFFFFFFFFFFFFFFFF DUP3 AND SWAP1 POP SWAP2 SWAP1 POP JUMP JUMPDEST PUSH0 PUSH2 0x49B DUP3 PUSH2 0x472 JUMP JUMPDEST SWAP1 POP SWAP2 SWAP1 POP JUMP JUMPDEST PUSH2 0x4AB DUP2 PUSH2 0x491 JUMP JUMPDEST DUP2 EQ PUSH2 0x4B5 JUMPI PUSH0 PUSH0 REVERT JUMPDEST POP JUMP JUMPDEST PUSH0 DUP2 CALLDATALOAD SWAP1 POP PUSH2 0x4C6 DUP2 PUSH2 0x4A2 JUMP JUMPDEST SWAP3 SWAP2 POP POP JUMP JUMPDEST PUSH0 PUSH1 0x20 DUP3 DUP5 SUB SLT ISZERO PUSH2 0x4E1 JUMPI PUSH2 0x4E0 PUSH2 0x46E JUMP JUMPDEST JUMPDEST PUSH0 PUSH2 0x4EE DUP5 DUP3 DUP6 ADD PUSH2 0x4B8 JUMP JUMPDEST SWAP2 POP POP SWAP3 SWAP2 POP POP JUMP JUMPDEST PUSH0 DUP2 SWAP1 POP SWAP2 SWAP1 POP JUMP JUMPDEST PUSH2 0x509 DUP2 PUSH2 0x4F7 JUMP JUMPDEST DUP3 MSTORE POP POP JUMP JUMPDEST PUSH0 PUSH1 0x20 DUP3 ADD SWAP1 POP PUSH2 0x522 PUSH0 DUP4 ADD DUP5 PUSH2 0x500 JUMP JUMPDEST SWAP3 SWAP2 POP POP JUMP JUMPDEST PUSH2 0x531 DUP2 PUSH2 0x4F7 JUMP JUMPDEST DUP2 EQ PUSH2 0x53B JUMPI PUSH0 PUSH0 REVERT JUMPDEST POP JUMP JUMPDEST PUSH0 DUP2 CALLDATALOAD SWAP1 POP PUSH2 0x54C DUP2 PUSH2 0x528 JUMP JUMPDEST SWAP3 SWAP2 POP POP JUMP JUMPDEST PUSH0 PUSH1 0x20 DUP3 DUP5 SUB SLT ISZERO PUSH2 0x567 JUMPI PUSH2 0x566 PUSH2 0x46E JUMP JUMPDEST JUMPDEST PUSH0 PUSH2 0x574 DUP5 DUP3 DUP6 ADD PUSH2 0x53E JUMP JUMPDEST SWAP2 POP POP SWAP3 SWAP2 POP POP JUMP JUMPDEST PUSH0 PUSH0 PUSH1 0x40 DUP4 DUP6 SUB SLT ISZERO PUSH2 0x593 JUMPI PUSH2 0x592 PUSH2 0x46E JUMP JUMPDEST JUMPDEST PUSH0 PUSH2 0x5A0 DUP6 DUP3 DUP7 ADD PUSH2 0x53E JUMP JUMPDEST SWAP3 POP POP PUSH1 0x20 PUSH2 0x5B1 DUP6 DUP3 DUP7 ADD PUSH2 0x53E JUMP JUMPDEST SWAP2 POP POP SWAP3 POP SWAP3 SWAP1 POP JUMP JUMPDEST PUSH0 DUP3 DUP3 MSTORE PUSH1 0x20 DUP3 ADD SWAP1 POP SWAP3 SWAP2 POP POP JUMP JUMPDEST PUSH32 0x496E73756666696369656E742066756E64730000000000000000000000000000 PUSH0 DUP3 ADD MSTORE POP JUMP JUMPDEST PUSH0 PUSH2 0x5FF PUSH1 0x12 DUP4 PUSH2 0x5BB JUMP JUMPDEST SWAP2 POP PUSH2 0x60A DUP3 PUSH2 0x5CB JUMP JUMPDEST PUSH1 0x20 DUP3 ADD SWAP1 POP SWAP2 SWAP1 POP JUMP JUMPDEST PUSH0 PUSH1 0x20 DUP3 ADD SWAP1 POP DUP2 DUP2 SUB PUSH0 DUP4 ADD MSTORE PUSH2 0x62C DUP2 PUSH2 0x5F3 JUMP JUMPDEST SWAP1 POP SWAP2 SWAP1 POP JUMP JUMPDEST PUSH32 0x4E487B7100000000000000000000000000000000000000000000000000000000 PUSH0 MSTORE PUSH1 0x11 PUSH1 0x4 MSTORE PUSH1 0x24 PUSH0 REVERT JUMPDEST PUSH0 PUSH2 0x66A DUP3 PUSH2 0x4F7 JUMP JUMPDEST SWAP2 POP PUSH2 0x675 DUP4 PUSH2 0x4F7 JUMP JUMPDEST SWAP3 POP DUP3 DUP3 SUB SWAP1 POP DUP2 DUP2 GT ISZERO PUSH2 0x68D JUMPI PUSH2 0x68C PUSH2 0x633 JUMP JUMPDEST JUMPDEST SWAP3 SWAP2 POP POP JUMP JUMPDEST PUSH32 0x4D7573742073656E6420736F6D65204574686572000000000000000000000000 PUSH0 DUP3 ADD MSTORE POP JUMP JUMPDEST PUSH0 PUSH2 0x6C7 PUSH1 0x14 DUP4 PUSH2 0x5BB JUMP JUMPDEST SWAP2 POP PUSH2 0x6D2 DUP3 PUSH2 0x693 JUMP JUMPDEST PUSH1 0x20 DUP3 ADD SWAP1 POP SWAP2 SWAP1 POP JUMP JUMPDEST PUSH0 PUSH1 0x20 DUP3 ADD SWAP1 POP DUP2 DUP2 SUB PUSH0 DUP4 ADD MSTORE PUSH2 0x6F4 DUP2 PUSH2 0x6BB JUMP JUMPDEST SWAP1 POP SWAP2 SWAP1 POP JUMP JUMPDEST PUSH0 PUSH2 0x705 DUP3 PUSH2 0x4F7 JUMP JUMPDEST SWAP2 POP PUSH2 0x710 DUP4 PUSH2 0x4F7 JUMP JUMPDEST SWAP3 POP DUP3 DUP3 ADD SWAP1 POP DUP1 DUP3 GT ISZERO PUSH2 0x728 JUMPI PUSH2 0x727 PUSH2 0x633 JUMP JUMPDEST JUMPDEST SWAP3 SWAP2 POP POP JUMP JUMPDEST PUSH0 PUSH2 0x738 DUP3 PUSH2 0x4F7 JUMP JUMPDEST SWAP2 POP PUSH2 0x743 DUP4 PUSH2 0x4F7 JUMP JUMPDEST SWAP3 POP DUP3 DUP3 MUL PUSH2 0x751 DUP2 PUSH2 0x4F7 JUMP JUMPDEST SWAP2 POP DUP3 DUP3 DIV DUP5 EQ DUP4 ISZERO OR PUSH2 0x768 JUMPI PUSH2 0x767 PUSH2 0x633 JUMP JUMPDEST JUMPDEST POP SWAP3 SWAP2 POP POP JUMP INVALID LOG2 PUSH5 0x6970667358 0x22 SLT KECCAK256 SWAP4 PUSH26 0x97F6A7E8E26BAF69D90CAB741C49FD16DB72A86070E3032DB559 DUP14 SLOAD 0xD2 PUSH12 0x64736F6C634300081E003300 "
				},
				"gasEstimates": {
					"creation": {
						"codeDepositCost": "391400",
						"executionCost": "infinite",
						"totalCost": "infinite"
					},
					"external": {
						"addNumbers(uint256,uint256)": "infinite",
						"balances(address)": "2803",
						"callInternalFunction()": "infinite",
						"data()": "2424",
						"deposit()": "infinite",
						"externalDoubleData()": "infinite",
						"getContractBalance()": "423",
						"getData()": "2476",
						"setData(uint256)": "22581",
						"withdraw(uint256)": "infinite"
					},
					"internal": {
						"_doubleData()": "infinite",
						"getDoubleData()": "infinite"
					}
				},
				"methodIdentifiers": {
					"addNumbers(uint256,uint256)": "ef9fc50b",
					"balances(address)": "27e235e3",
					"callInternalFunction()": "8701f8ca",
					"data()": "73d4a13a",
					"deposit()": "d0e30db0",
					"externalDoubleData()": "a94f2623",
					"getContractBalance()": "6f9fb98a",
					"getData()": "3bc5de30",
					"setData(uint256)": "5b4b73a9",
					"withdraw(uint256)": "2e1a7d4d"
				}
			},
			"storageLayout": {
				"storage": [
					{
						"astId": 3,
						"contract": "lab01-smart-contracts-with-solidity/artifacts/Codes/functions.sol:FunctionTypesExample",
						"label": "data",
						"offset": 0,
						"slot": "0",
						"type": "t_uint256"
					},
					{
						"astId": 86,
						"contract": "lab01-smart-contracts-with-solidity/artifacts/Codes/functions.sol:FunctionTypesExample",
						"label": "balances",
						"offset": 0,
						"slot": "1",
						"type": "t_mapping(t_address,t_uint256)"
					}
				],
				"types": {
					"t_address": {
						"encoding": "inplace",
						"label": "address",
						"numberOfBytes": "20"
					},
					"t_mapping(t_address,t_uint256)": {
						"encoding": "mapping",
						"key": "t_address",
						"label": "mapping(address => uint256)",
						"numberOfBytes": "32",
						"value": "t_uint256"
					},
					"t_uint256": {
						"encoding": "inplace",
						"label": "uint256",
						"numberOfBytes": "32"
					}
				}
			},
			"userdoc": {
				"kind": "user",
				"methods": {},
				"version": 1
			}
		}
	}
}