{
	"lab01-smart-contracts-with-solidity/artifacts/Codes/auction.sol": {
		"SimpleAuction": {
			"abi": [
				{
					"inputs": [
						{
							"internalType": "uint256",
							"name": "_biddingTime",
							"type": "uint256"
						},
						{
							"internalType": "address payable",
							"name": "_beneficiary",
							"type": "address"
						}
					],
					"stateMutability": "nonpayable",
					"type": "constructor"
				},
				{
					"anonymous": false,
					"inputs": [
						{
							"indexed": false,
							"internalType": "address",
							"name": "winner",
							"type": "address"
						},
						{
							"indexed": false,
							"internalType": "uint256",
							"name": "amount",
							"type": "uint256"
						}
					],
					"name": "AuctionEnded",
					"type": "event"
				},
				{
					"anonymous": false,
					"inputs": [
						{
							"indexed": false,
							"internalType": "address",
							"name": "bidder",
							"type": "address"
						},
						{
							"indexed": false,
							"internalType": "uint256",
							"name": "amount",
							"type": "uint256"
						}
					],
					"name": "HighestBidIncreased",
					"type": "event"
				},
				{
					"inputs": [],
					"name": "auctionEnd",
					"outputs": [],
					"stateMutability": "nonpayable",
					"type": "function"
				},
				{
					"inputs": [],
					"name": "auctionEndTime",
					"outputs": [
						{
							"internalType": "uint256",
							"name": "",
							"type": "uint256"
						}
					],
					"stateMutability": "view",
					"type": "function"
				},
				{
					"inputs": [],
					"name": "beneficiary",
					"outputs": [
						{
							"internalType": "address payable",
							"name": "",
							"type": "address"
						}
					],
					"stateMutability": "view",
					"type": "function"
				},
				{
					"inputs": [],
					"name": "bid",
					"outputs": [],
					"stateMutability": "payable",
					"type": "function"
				},
				{
					"inputs": [],
					"name": "highestBid",
					"outputs": [
						{
							"internalType": "uint256",
							"name": "",
							"type": "uint256"
						}
					],
					"stateMutability": "view",
					"type": "function"
				},
				{
					"inputs": [],
					"name": "highestBidder",
					"outputs": [
						{
							"internalType": "address",
							"name": "",
							"type": "address"
						}
					],
					"stateMutability": "view",
					"type": "function"
				},
				{
					"inputs": [],
					"name": "withdraw",
					"outputs": [
						{
							"internalType": "bool",
							"name": "",
							"type": "bool"
						}
					],
					"stateMutability": "nonpayable",
					"type": "function"
				}
			],
			"devdoc": {
				"kind": "dev",
				"methods": {},
				"version": 1
			},
			"evm": {
				"assembly": "    /* \"lab01-smart-contracts-with-solidity/artifacts/Codes/auction.sol\":57:2653  contract SimpleAuction {... */\n  mstore(0x40, 0x80)\n    /* \"lab01-smart-contracts-with-solidity/artifacts/Codes/auction.sol\":769:930  constructor(uint _biddingTime, address payable _beneficiary) {... */\n  callvalue\n  dup1\n  iszero\n  tag_1\n  jumpi\n  revert(0x00, 0x00)\ntag_1:\n  pop\n  mload(0x40)\n  sub(codesize, bytecodeSize)\n  dup1\n  bytecodeSize\n  dup4\n  codecopy\n  dup2\n  dup2\n  add\n  0x40\n  mstore\n  dup2\n  add\n  swap1\n  tag_2\n  swap2\n  swap1\n  tag_3\n  jump\t// in\ntag_2:\n    /* \"lab01-smart-contracts-with-solidity/artifacts/Codes/auction.sol\":854:866  _beneficiary */\n  dup1\n    /* \"lab01-smart-contracts-with-solidity/artifacts/Codes/auction.sol\":840:851  beneficiary */\n  0x00\n  0x00\n    /* \"lab01-smart-contracts-with-solidity/artifacts/Codes/auction.sol\":840:866  beneficiary = _beneficiary */\n  0x0100\n  exp\n  dup2\n  sload\n  dup2\n  0xffffffffffffffffffffffffffffffffffffffff\n  mul\n  not\n  and\n  swap1\n  dup4\n  0xffffffffffffffffffffffffffffffffffffffff\n  and\n  mul\n  or\n  swap1\n  sstore\n  pop\n    /* \"lab01-smart-contracts-with-solidity/artifacts/Codes/auction.sol\":911:923  _biddingTime */\n  dup2\n    /* \"lab01-smart-contracts-with-solidity/artifacts/Codes/auction.sol\":893:908  block.timestamp */\n  timestamp\n    /* \"lab01-smart-contracts-with-solidity/artifacts/Codes/auction.sol\":893:923  block.timestamp + _biddingTime */\n  tag_6\n  swap2\n  swap1\n  tag_7\n  jump\t// in\ntag_6:\n    /* \"lab01-smart-contracts-with-solidity/artifacts/Codes/auction.sol\":876:890  auctionEndTime */\n  0x01\n    /* \"lab01-smart-contracts-with-solidity/artifacts/Codes/auction.sol\":876:923  auctionEndTime = block.timestamp + _biddingTime */\n  dup2\n  swap1\n  sstore\n  pop\n    /* \"lab01-smart-contracts-with-solidity/artifacts/Codes/auction.sol\":769:930  constructor(uint _biddingTime, address payable _beneficiary) {... */\n  pop\n  pop\n    /* \"lab01-smart-contracts-with-solidity/artifacts/Codes/auction.sol\":57:2653  contract SimpleAuction {... */\n  jump(tag_8)\n    /* \"#utility.yul\":88:205   */\ntag_10:\n    /* \"#utility.yul\":197:198   */\n  0x00\n    /* \"#utility.yul\":194:195   */\n  0x00\n    /* \"#utility.yul\":187:199   */\n  revert\n    /* \"#utility.yul\":334:411   */\ntag_12:\n    /* \"#utility.yul\":371:378   */\n  0x00\n    /* \"#utility.yul\":400:405   */\n  dup2\n    /* \"#utility.yul\":389:405   */\n  swap1\n  pop\n    /* \"#utility.yul\":334:411   */\n  swap2\n  swap1\n  pop\n  jump\t// out\n    /* \"#utility.yul\":417:539   */\ntag_13:\n    /* \"#utility.yul\":490:514   */\n  tag_26\n    /* \"#utility.yul\":508:513   */\n  dup2\n    /* \"#utility.yul\":490:514   */\n  tag_12\n  jump\t// in\ntag_26:\n    /* \"#utility.yul\":483:488   */\n  dup2\n    /* \"#utility.yul\":480:515   */\n  eq\n    /* \"#utility.yul\":470:533   */\n  tag_27\n  jumpi\n    /* \"#utility.yul\":529:530   */\n  0x00\n    /* \"#utility.yul\":526:527   */\n  0x00\n    /* \"#utility.yul\":519:531   */\n  revert\n    /* \"#utility.yul\":470:533   */\ntag_27:\n    /* \"#utility.yul\":417:539   */\n  pop\n  jump\t// out\n    /* \"#utility.yul\":545:688   */\ntag_14:\n    /* \"#utility.yul\":602:607   */\n  0x00\n    /* \"#utility.yul\":633:639   */\n  dup2\n    /* \"#utility.yul\":627:640   */\n  mload\n    /* \"#utility.yul\":618:640   */\n  swap1\n  pop\n    /* \"#utility.yul\":649:682   */\n  tag_29\n    /* \"#utility.yul\":676:681   */\n  dup2\n    /* \"#utility.yul\":649:682   */\n  tag_13\n  jump\t// in\ntag_29:\n    /* \"#utility.yul\":545:688   */\n  swap3\n  swap2\n  pop\n  pop\n  jump\t// out\n    /* \"#utility.yul\":694:820   */\ntag_15:\n    /* \"#utility.yul\":731:738   */\n  0x00\n    /* \"#utility.yul\":771:813   */\n  0xffffffffffffffffffffffffffffffffffffffff\n    /* \"#utility.yul\":764:769   */\n  dup3\n    /* \"#utility.yul\":760:814   */\n  and\n    /* \"#utility.yul\":749:814   */\n  swap1\n  pop\n    /* \"#utility.yul\":694:820   */\n  swap2\n  swap1\n  pop\n  jump\t// out\n    /* \"#utility.yul\":826:930   */\ntag_16:\n    /* \"#utility.yul\":871:878   */\n  0x00\n    /* \"#utility.yul\":900:924   */\n  tag_32\n    /* \"#utility.yul\":918:923   */\n  dup3\n    /* \"#utility.yul\":900:924   */\n  tag_15\n  jump\t// in\ntag_32:\n    /* \"#utility.yul\":889:924   */\n  swap1\n  pop\n    /* \"#utility.yul\":826:930   */\n  swap2\n  swap1\n  pop\n  jump\t// out\n    /* \"#utility.yul\":936:1074   */\ntag_17:\n    /* \"#utility.yul\":1017:1049   */\n  tag_34\n    /* \"#utility.yul\":1043:1048   */\n  dup2\n    /* \"#utility.yul\":1017:1049   */\n  tag_16\n  jump\t// in\ntag_34:\n    /* \"#utility.yul\":1010:1015   */\n  dup2\n    /* \"#utility.yul\":1007:1050   */\n  eq\n    /* \"#utility.yul\":997:1068   */\n  tag_35\n  jumpi\n    /* \"#utility.yul\":1064:1065   */\n  0x00\n    /* \"#utility.yul\":1061:1062   */\n  0x00\n    /* \"#utility.yul\":1054:1066   */\n  revert\n    /* \"#utility.yul\":997:1068   */\ntag_35:\n    /* \"#utility.yul\":936:1074   */\n  pop\n  jump\t// out\n    /* \"#utility.yul\":1080:1239   */\ntag_18:\n    /* \"#utility.yul\":1145:1150   */\n  0x00\n    /* \"#utility.yul\":1176:1182   */\n  dup2\n    /* \"#utility.yul\":1170:1183   */\n  mload\n    /* \"#utility.yul\":1161:1183   */\n  swap1\n  pop\n    /* \"#utility.yul\":1192:1233   */\n  tag_37\n    /* \"#utility.yul\":1227:1232   */\n  dup2\n    /* \"#utility.yul\":1192:1233   */\n  tag_17\n  jump\t// in\ntag_37:\n    /* \"#utility.yul\":1080:1239   */\n  swap3\n  swap2\n  pop\n  pop\n  jump\t// out\n    /* \"#utility.yul\":1245:1768   */\ntag_3:\n    /* \"#utility.yul\":1332:1338   */\n  0x00\n    /* \"#utility.yul\":1340:1346   */\n  0x00\n    /* \"#utility.yul\":1389:1391   */\n  0x40\n    /* \"#utility.yul\":1377:1386   */\n  dup4\n    /* \"#utility.yul\":1368:1375   */\n  dup6\n    /* \"#utility.yul\":1364:1387   */\n  sub\n    /* \"#utility.yul\":1360:1392   */\n  slt\n    /* \"#utility.yul\":1357:1476   */\n  iszero\n  tag_39\n  jumpi\n    /* \"#utility.yul\":1395:1474   */\n  tag_40\n  tag_10\n  jump\t// in\ntag_40:\n    /* \"#utility.yul\":1357:1476   */\ntag_39:\n    /* \"#utility.yul\":1515:1516   */\n  0x00\n    /* \"#utility.yul\":1540:1604   */\n  tag_41\n    /* \"#utility.yul\":1596:1603   */\n  dup6\n    /* \"#utility.yul\":1587:1593   */\n  dup3\n    /* \"#utility.yul\":1576:1585   */\n  dup7\n    /* \"#utility.yul\":1572:1594   */\n  add\n    /* \"#utility.yul\":1540:1604   */\n  tag_14\n  jump\t// in\ntag_41:\n    /* \"#utility.yul\":1530:1604   */\n  swap3\n  pop\n    /* \"#utility.yul\":1486:1614   */\n  pop\n    /* \"#utility.yul\":1653:1655   */\n  0x20\n    /* \"#utility.yul\":1679:1751   */\n  tag_42\n    /* \"#utility.yul\":1743:1750   */\n  dup6\n    /* \"#utility.yul\":1734:1740   */\n  dup3\n    /* \"#utility.yul\":1723:1732   */\n  dup7\n    /* \"#utility.yul\":1719:1741   */\n  add\n    /* \"#utility.yul\":1679:1751   */\n  tag_18\n  jump\t// in\ntag_42:\n    /* \"#utility.yul\":1669:1751   */\n  swap2\n  pop\n    /* \"#utility.yul\":1624:1761   */\n  pop\n    /* \"#utility.yul\":1245:1768   */\n  swap3\n  pop\n  swap3\n  swap1\n  pop\n  jump\t// out\n    /* \"#utility.yul\":1774:1954   */\ntag_19:\n    /* \"#utility.yul\":1822:1899   */\n  0x4e487b7100000000000000000000000000000000000000000000000000000000\n    /* \"#utility.yul\":1819:1820   */\n  0x00\n    /* \"#utility.yul\":1812:1900   */\n  mstore\n    /* \"#utility.yul\":1919:1923   */\n  0x11\n    /* \"#utility.yul\":1916:1917   */\n  0x04\n    /* \"#utility.yul\":1909:1924   */\n  mstore\n    /* \"#utility.yul\":1943:1947   */\n  0x24\n    /* \"#utility.yul\":1940:1941   */\n  0x00\n    /* \"#utility.yul\":1933:1948   */\n  revert\n    /* \"#utility.yul\":1960:2151   */\ntag_7:\n    /* \"#utility.yul\":2000:2003   */\n  0x00\n    /* \"#utility.yul\":2019:2039   */\n  tag_45\n    /* \"#utility.yul\":2037:2038   */\n  dup3\n    /* \"#utility.yul\":2019:2039   */\n  tag_12\n  jump\t// in\ntag_45:\n    /* \"#utility.yul\":2014:2039   */\n  swap2\n  pop\n    /* \"#utility.yul\":2053:2073   */\n  tag_46\n    /* \"#utility.yul\":2071:2072   */\n  dup4\n    /* \"#utility.yul\":2053:2073   */\n  tag_12\n  jump\t// in\ntag_46:\n    /* \"#utility.yul\":2048:2073   */\n  swap3\n  pop\n    /* \"#utility.yul\":2096:2097   */\n  dup3\n    /* \"#utility.yul\":2093:2094   */\n  dup3\n    /* \"#utility.yul\":2089:2098   */\n  add\n    /* \"#utility.yul\":2082:2098   */\n  swap1\n  pop\n    /* \"#utility.yul\":2117:2120   */\n  dup1\n    /* \"#utility.yul\":2114:2115   */\n  dup3\n    /* \"#utility.yul\":2111:2121   */\n  gt\n    /* \"#utility.yul\":2108:2144   */\n  iszero\n  tag_47\n  jumpi\n    /* \"#utility.yul\":2124:2142   */\n  tag_48\n  tag_19\n  jump\t// in\ntag_48:\n    /* \"#utility.yul\":2108:2144   */\ntag_47:\n    /* \"#utility.yul\":1960:2151   */\n  swap3\n  swap2\n  pop\n  pop\n  jump\t// out\n    /* \"lab01-smart-contracts-with-solidity/artifacts/Codes/auction.sol\":57:2653  contract SimpleAuction {... */\ntag_8:\n  dataSize(sub_0)\n  dup1\n  dataOffset(sub_0)\n  0x00\n  codecopy\n  0x00\n  return\nstop\n\nsub_0: assembly {\n        /* \"lab01-smart-contracts-with-solidity/artifacts/Codes/auction.sol\":57:2653  contract SimpleAuction {... */\n      mstore(0x40, 0x80)\n      jumpi(tag_1, lt(calldatasize, 0x04))\n      shr(0xe0, calldataload(0x00))\n      dup1\n      0x3ccfd60b\n      gt\n      tag_9\n      jumpi\n      dup1\n      0x3ccfd60b\n      eq\n      tag_5\n      jumpi\n      dup1\n      0x4b449cba\n      eq\n      tag_6\n      jumpi\n      dup1\n      0x91f90157\n      eq\n      tag_7\n      jumpi\n      dup1\n      0xd57bde79\n      eq\n      tag_8\n      jumpi\n      jump(tag_1)\n    tag_9:\n      dup1\n      0x1998aeef\n      eq\n      tag_2\n      jumpi\n      dup1\n      0x2a24f46c\n      eq\n      tag_3\n      jumpi\n      dup1\n      0x38af3eed\n      eq\n      tag_4\n      jumpi\n    tag_1:\n      revert(0x00, 0x00)\n        /* \"lab01-smart-contracts-with-solidity/artifacts/Codes/auction.sol\":995:1628  function bid() public payable {... */\n    tag_2:\n      tag_10\n      tag_11\n      jump\t// in\n    tag_10:\n      stop\n        /* \"lab01-smart-contracts-with-solidity/artifacts/Codes/auction.sol\":2237:2651  function auctionEnd() public {... */\n    tag_3:\n      callvalue\n      dup1\n      iszero\n      tag_12\n      jumpi\n      revert(0x00, 0x00)\n    tag_12:\n      pop\n      tag_13\n      tag_14\n      jump\t// in\n    tag_13:\n      stop\n        /* \"lab01-smart-contracts-with-solidity/artifacts/Codes/auction.sol\":119:153  address payable public beneficiary */\n    tag_4:\n      callvalue\n      dup1\n      iszero\n      tag_15\n      jumpi\n      revert(0x00, 0x00)\n    tag_15:\n      pop\n      tag_16\n      tag_17\n      jump\t// in\n    tag_16:\n      mload(0x40)\n      tag_18\n      swap2\n      swap1\n      tag_19\n      jump\t// in\n    tag_18:\n      mload(0x40)\n      dup1\n      swap2\n      sub\n      swap1\n      return\n        /* \"lab01-smart-contracts-with-solidity/artifacts/Codes/auction.sol\":1672:2164  function withdraw() public returns (bool) {... */\n    tag_5:\n      callvalue\n      dup1\n      iszero\n      tag_20\n      jumpi\n      revert(0x00, 0x00)\n    tag_20:\n      pop\n      tag_21\n      tag_22\n      jump\t// in\n    tag_21:\n      mload(0x40)\n      tag_23\n      swap2\n      swap1\n      tag_24\n      jump\t// in\n    tag_23:\n      mload(0x40)\n      dup1\n      swap2\n      sub\n      swap1\n      return\n        /* \"lab01-smart-contracts-with-solidity/artifacts/Codes/auction.sol\":182:208  uint public auctionEndTime */\n    tag_6:\n      callvalue\n      dup1\n      iszero\n      tag_25\n      jumpi\n      revert(0x00, 0x00)\n    tag_25:\n      pop\n      tag_26\n      tag_27\n      jump\t// in\n    tag_26:\n      mload(0x40)\n      tag_28\n      swap2\n      swap1\n      tag_29\n      jump\t// in\n    tag_28:\n      mload(0x40)\n      dup1\n      swap2\n      sub\n      swap1\n      return\n        /* \"lab01-smart-contracts-with-solidity/artifacts/Codes/auction.sol\":276:304  address public highestBidder */\n    tag_7:\n      callvalue\n      dup1\n      iszero\n      tag_30\n      jumpi\n      revert(0x00, 0x00)\n    tag_30:\n      pop\n      tag_31\n      tag_32\n      jump\t// in\n    tag_31:\n      mload(0x40)\n      tag_33\n      swap2\n      swap1\n      tag_34\n      jump\t// in\n    tag_33:\n      mload(0x40)\n      dup1\n      swap2\n      sub\n      swap1\n      return\n        /* \"lab01-smart-contracts-with-solidity/artifacts/Codes/auction.sol\":350:372  uint public highestBid */\n    tag_8:\n      callvalue\n      dup1\n      iszero\n      tag_35\n      jumpi\n      revert(0x00, 0x00)\n    tag_35:\n      pop\n      tag_36\n      tag_37\n      jump\t// in\n    tag_36:\n      mload(0x40)\n      tag_38\n      swap2\n      swap1\n      tag_29\n      jump\t// in\n    tag_38:\n      mload(0x40)\n      dup1\n      swap2\n      sub\n      swap1\n      return\n        /* \"lab01-smart-contracts-with-solidity/artifacts/Codes/auction.sol\":995:1628  function bid() public payable {... */\n    tag_11:\n        /* \"lab01-smart-contracts-with-solidity/artifacts/Codes/auction.sol\":1122:1136  auctionEndTime */\n      sload(0x01)\n        /* \"lab01-smart-contracts-with-solidity/artifacts/Codes/auction.sol\":1103:1118  block.timestamp */\n      timestamp\n        /* \"lab01-smart-contracts-with-solidity/artifacts/Codes/auction.sol\":1103:1136  block.timestamp <= auctionEndTime */\n      gt\n      iszero\n        /* \"lab01-smart-contracts-with-solidity/artifacts/Codes/auction.sol\":1095:1163  require(block.timestamp <= auctionEndTime, \"Auction already ended.\") */\n      tag_40\n      jumpi\n      mload(0x40)\n      0x08c379a000000000000000000000000000000000000000000000000000000000\n      dup2\n      mstore\n      0x04\n      add\n      tag_41\n      swap1\n      tag_42\n      jump\t// in\n    tag_41:\n      mload(0x40)\n      dup1\n      swap2\n      sub\n      swap1\n      revert\n    tag_40:\n        /* \"lab01-smart-contracts-with-solidity/artifacts/Codes/auction.sol\":1259:1269  highestBid */\n      sload(0x03)\n        /* \"lab01-smart-contracts-with-solidity/artifacts/Codes/auction.sol\":1247:1256  msg.value */\n      callvalue\n        /* \"lab01-smart-contracts-with-solidity/artifacts/Codes/auction.sol\":1247:1269  msg.value > highestBid */\n      gt\n        /* \"lab01-smart-contracts-with-solidity/artifacts/Codes/auction.sol\":1239:1304  require(msg.value > highestBid, \"There already is a higher bid.\") */\n      tag_43\n      jumpi\n      mload(0x40)\n      0x08c379a000000000000000000000000000000000000000000000000000000000\n      dup2\n      mstore\n      0x04\n      add\n      tag_44\n      swap1\n      tag_45\n      jump\t// in\n    tag_44:\n      mload(0x40)\n      dup1\n      swap2\n      sub\n      swap1\n      revert\n    tag_43:\n        /* \"lab01-smart-contracts-with-solidity/artifacts/Codes/auction.sol\":1379:1380  0 */\n      0x00\n        /* \"lab01-smart-contracts-with-solidity/artifacts/Codes/auction.sol\":1365:1375  highestBid */\n      sload(0x03)\n        /* \"lab01-smart-contracts-with-solidity/artifacts/Codes/auction.sol\":1365:1380  highestBid != 0 */\n      eq\n        /* \"lab01-smart-contracts-with-solidity/artifacts/Codes/auction.sol\":1361:1450  if (highestBid != 0) {... */\n      tag_46\n      jumpi\n        /* \"lab01-smart-contracts-with-solidity/artifacts/Codes/auction.sol\":1429:1439  highestBid */\n      sload(0x03)\n        /* \"lab01-smart-contracts-with-solidity/artifacts/Codes/auction.sol\":1396:1410  pendingReturns */\n      0x04\n        /* \"lab01-smart-contracts-with-solidity/artifacts/Codes/auction.sol\":1396:1425  pendingReturns[highestBidder] */\n      0x00\n        /* \"lab01-smart-contracts-with-solidity/artifacts/Codes/auction.sol\":1411:1424  highestBidder */\n      0x02\n      0x00\n      swap1\n      sload\n      swap1\n      0x0100\n      exp\n      swap1\n      div\n      0xffffffffffffffffffffffffffffffffffffffff\n      and\n        /* \"lab01-smart-contracts-with-solidity/artifacts/Codes/auction.sol\":1396:1425  pendingReturns[highestBidder] */\n      0xffffffffffffffffffffffffffffffffffffffff\n      and\n      0xffffffffffffffffffffffffffffffffffffffff\n      and\n      dup2\n      mstore\n      0x20\n      add\n      swap1\n      dup2\n      mstore\n      0x20\n      add\n      0x00\n      keccak256\n      0x00\n        /* \"lab01-smart-contracts-with-solidity/artifacts/Codes/auction.sol\":1396:1439  pendingReturns[highestBidder] += highestBid */\n      dup3\n      dup3\n      sload\n      tag_47\n      swap2\n      swap1\n      tag_48\n      jump\t// in\n    tag_47:\n      swap3\n      pop\n      pop\n      dup2\n      swap1\n      sstore\n      pop\n        /* \"lab01-smart-contracts-with-solidity/artifacts/Codes/auction.sol\":1361:1450  if (highestBid != 0) {... */\n    tag_46:\n        /* \"lab01-smart-contracts-with-solidity/artifacts/Codes/auction.sol\":1521:1531  msg.sender */\n      caller\n        /* \"lab01-smart-contracts-with-solidity/artifacts/Codes/auction.sol\":1505:1518  highestBidder */\n      0x02\n      0x00\n        /* \"lab01-smart-contracts-with-solidity/artifacts/Codes/auction.sol\":1505:1531  highestBidder = msg.sender */\n      0x0100\n      exp\n      dup2\n      sload\n      dup2\n      0xffffffffffffffffffffffffffffffffffffffff\n      mul\n      not\n      and\n      swap1\n      dup4\n      0xffffffffffffffffffffffffffffffffffffffff\n      and\n      mul\n      or\n      swap1\n      sstore\n      pop\n        /* \"lab01-smart-contracts-with-solidity/artifacts/Codes/auction.sol\":1554:1563  msg.value */\n      callvalue\n        /* \"lab01-smart-contracts-with-solidity/artifacts/Codes/auction.sol\":1541:1551  highestBid */\n      0x03\n        /* \"lab01-smart-contracts-with-solidity/artifacts/Codes/auction.sol\":1541:1563  highestBid = msg.value */\n      dup2\n      swap1\n      sstore\n      pop\n        /* \"lab01-smart-contracts-with-solidity/artifacts/Codes/auction.sol\":1579:1621  HighestBidIncreased(msg.sender, msg.value) */\n      0xf4757a49b326036464bec6fe419a4ae38c8a02ce3e68bf0809674f6aab8ad300\n        /* \"lab01-smart-contracts-with-solidity/artifacts/Codes/auction.sol\":1599:1609  msg.sender */\n      caller\n        /* \"lab01-smart-contracts-with-solidity/artifacts/Codes/auction.sol\":1611:1620  msg.value */\n      callvalue\n        /* \"lab01-smart-contracts-with-solidity/artifacts/Codes/auction.sol\":1579:1621  HighestBidIncreased(msg.sender, msg.value) */\n      mload(0x40)\n      tag_49\n      swap3\n      swap2\n      swap1\n      tag_50\n      jump\t// in\n    tag_49:\n      mload(0x40)\n      dup1\n      swap2\n      sub\n      swap1\n      log1\n        /* \"lab01-smart-contracts-with-solidity/artifacts/Codes/auction.sol\":995:1628  function bid() public payable {... */\n      jump\t// out\n        /* \"lab01-smart-contracts-with-solidity/artifacts/Codes/auction.sol\":2237:2651  function auctionEnd() public {... */\n    tag_14:\n        /* \"lab01-smart-contracts-with-solidity/artifacts/Codes/auction.sol\":2358:2372  auctionEndTime */\n      sload(0x01)\n        /* \"lab01-smart-contracts-with-solidity/artifacts/Codes/auction.sol\":2339:2354  block.timestamp */\n      timestamp\n        /* \"lab01-smart-contracts-with-solidity/artifacts/Codes/auction.sol\":2339:2372  block.timestamp >= auctionEndTime */\n      lt\n      iszero\n        /* \"lab01-smart-contracts-with-solidity/artifacts/Codes/auction.sol\":2331:2399  require(block.timestamp >= auctionEndTime, \"Auction not yet ended.\") */\n      tag_52\n      jumpi\n      mload(0x40)\n      0x08c379a000000000000000000000000000000000000000000000000000000000\n      dup2\n      mstore\n      0x04\n      add\n      tag_53\n      swap1\n      tag_54\n      jump\t// in\n    tag_53:\n      mload(0x40)\n      dup1\n      swap2\n      sub\n      swap1\n      revert\n    tag_52:\n        /* \"lab01-smart-contracts-with-solidity/artifacts/Codes/auction.sol\":2418:2423  ended */\n      0x05\n      0x00\n      swap1\n      sload\n      swap1\n      0x0100\n      exp\n      swap1\n      div\n      0xff\n      and\n        /* \"lab01-smart-contracts-with-solidity/artifacts/Codes/auction.sol\":2417:2423  !ended */\n      iszero\n        /* \"lab01-smart-contracts-with-solidity/artifacts/Codes/auction.sol\":2409:2463  require(!ended, \"auctionEnd has already been called.\") */\n      tag_55\n      jumpi\n      mload(0x40)\n      0x08c379a000000000000000000000000000000000000000000000000000000000\n      dup2\n      mstore\n      0x04\n      add\n      tag_56\n      swap1\n      tag_57\n      jump\t// in\n    tag_56:\n      mload(0x40)\n      dup1\n      swap2\n      sub\n      swap1\n      revert\n    tag_55:\n        /* \"lab01-smart-contracts-with-solidity/artifacts/Codes/auction.sol\":2482:2486  true */\n      0x01\n        /* \"lab01-smart-contracts-with-solidity/artifacts/Codes/auction.sol\":2474:2479  ended */\n      0x05\n      0x00\n        /* \"lab01-smart-contracts-with-solidity/artifacts/Codes/auction.sol\":2474:2486  ended = true */\n      0x0100\n      exp\n      dup2\n      sload\n      dup2\n      0xff\n      mul\n      not\n      and\n      swap1\n      dup4\n      iszero\n      iszero\n      mul\n      or\n      swap1\n      sstore\n      pop\n        /* \"lab01-smart-contracts-with-solidity/artifacts/Codes/auction.sol\":2502:2541  AuctionEnded(highestBidder, highestBid) */\n      0xdaec4582d5d9595688c8c98545fdd1c696d41c6aeaeb636737e84ed2f5c00eda\n        /* \"lab01-smart-contracts-with-solidity/artifacts/Codes/auction.sol\":2515:2528  highestBidder */\n      0x02\n      0x00\n      swap1\n      sload\n      swap1\n      0x0100\n      exp\n      swap1\n      div\n      0xffffffffffffffffffffffffffffffffffffffff\n      and\n        /* \"lab01-smart-contracts-with-solidity/artifacts/Codes/auction.sol\":2530:2540  highestBid */\n      sload(0x03)\n        /* \"lab01-smart-contracts-with-solidity/artifacts/Codes/auction.sol\":2502:2541  AuctionEnded(highestBidder, highestBid) */\n      mload(0x40)\n      tag_58\n      swap3\n      swap2\n      swap1\n      tag_50\n      jump\t// in\n    tag_58:\n      mload(0x40)\n      dup1\n      swap2\n      sub\n      swap1\n      log1\n        /* \"lab01-smart-contracts-with-solidity/artifacts/Codes/auction.sol\":2603:2614  beneficiary */\n      0x00\n      0x00\n      swap1\n      sload\n      swap1\n      0x0100\n      exp\n      swap1\n      div\n      0xffffffffffffffffffffffffffffffffffffffff\n      and\n        /* \"lab01-smart-contracts-with-solidity/artifacts/Codes/auction.sol\":2603:2623  beneficiary.transfer */\n      0xffffffffffffffffffffffffffffffffffffffff\n      and\n        /* \"lab01-smart-contracts-with-solidity/artifacts/Codes/auction.sol\":2603:2635  beneficiary.transfer(highestBid) */\n      0x08fc\n        /* \"lab01-smart-contracts-with-solidity/artifacts/Codes/auction.sol\":2624:2634  highestBid */\n      sload(0x03)\n        /* \"lab01-smart-contracts-with-solidity/artifacts/Codes/auction.sol\":2603:2635  beneficiary.transfer(highestBid) */\n      swap1\n      dup2\n      iszero\n      mul\n      swap1\n      mload(0x40)\n      0x00\n      mload(0x40)\n      dup1\n      dup4\n      sub\n      dup2\n      dup6\n      dup9\n      dup9\n      call\n      swap4\n      pop\n      pop\n      pop\n      pop\n      iszero\n      dup1\n      iszero\n      tag_60\n      jumpi\n      returndatacopy(0x00, 0x00, returndatasize)\n      revert(0x00, returndatasize)\n    tag_60:\n      pop\n        /* \"lab01-smart-contracts-with-solidity/artifacts/Codes/auction.sol\":2237:2651  function auctionEnd() public {... */\n      jump\t// out\n        /* \"lab01-smart-contracts-with-solidity/artifacts/Codes/auction.sol\":119:153  address payable public beneficiary */\n    tag_17:\n      0x00\n      0x00\n      swap1\n      sload\n      swap1\n      0x0100\n      exp\n      swap1\n      div\n      0xffffffffffffffffffffffffffffffffffffffff\n      and\n      dup2\n      jump\t// out\n        /* \"lab01-smart-contracts-with-solidity/artifacts/Codes/auction.sol\":1672:2164  function withdraw() public returns (bool) {... */\n    tag_22:\n        /* \"lab01-smart-contracts-with-solidity/artifacts/Codes/auction.sol\":1708:1712  bool */\n      0x00\n        /* \"lab01-smart-contracts-with-solidity/artifacts/Codes/auction.sol\":1724:1735  uint amount */\n      0x00\n        /* \"lab01-smart-contracts-with-solidity/artifacts/Codes/auction.sol\":1738:1752  pendingReturns */\n      0x04\n        /* \"lab01-smart-contracts-with-solidity/artifacts/Codes/auction.sol\":1738:1764  pendingReturns[msg.sender] */\n      0x00\n        /* \"lab01-smart-contracts-with-solidity/artifacts/Codes/auction.sol\":1753:1763  msg.sender */\n      caller\n        /* \"lab01-smart-contracts-with-solidity/artifacts/Codes/auction.sol\":1738:1764  pendingReturns[msg.sender] */\n      0xffffffffffffffffffffffffffffffffffffffff\n      and\n      0xffffffffffffffffffffffffffffffffffffffff\n      and\n      dup2\n      mstore\n      0x20\n      add\n      swap1\n      dup2\n      mstore\n      0x20\n      add\n      0x00\n      keccak256\n      sload\n        /* \"lab01-smart-contracts-with-solidity/artifacts/Codes/auction.sol\":1724:1764  uint amount = pendingReturns[msg.sender] */\n      swap1\n      pop\n        /* \"lab01-smart-contracts-with-solidity/artifacts/Codes/auction.sol\":1787:1788  0 */\n      0x00\n        /* \"lab01-smart-contracts-with-solidity/artifacts/Codes/auction.sol\":1778:1784  amount */\n      dup2\n        /* \"lab01-smart-contracts-with-solidity/artifacts/Codes/auction.sol\":1778:1788  amount > 0 */\n      gt\n        /* \"lab01-smart-contracts-with-solidity/artifacts/Codes/auction.sol\":1774:2137  if (amount > 0) {... */\n      iszero\n      tag_62\n      jumpi\n        /* \"lab01-smart-contracts-with-solidity/artifacts/Codes/auction.sol\":1833:1834  0 */\n      0x00\n        /* \"lab01-smart-contracts-with-solidity/artifacts/Codes/auction.sol\":1804:1818  pendingReturns */\n      0x04\n        /* \"lab01-smart-contracts-with-solidity/artifacts/Codes/auction.sol\":1804:1830  pendingReturns[msg.sender] */\n      0x00\n        /* \"lab01-smart-contracts-with-solidity/artifacts/Codes/auction.sol\":1819:1829  msg.sender */\n      caller\n        /* \"lab01-smart-contracts-with-solidity/artifacts/Codes/auction.sol\":1804:1830  pendingReturns[msg.sender] */\n      0xffffffffffffffffffffffffffffffffffffffff\n      and\n      0xffffffffffffffffffffffffffffffffffffffff\n      and\n      dup2\n      mstore\n      0x20\n      add\n      swap1\n      dup2\n      mstore\n      0x20\n      add\n      0x00\n      keccak256\n        /* \"lab01-smart-contracts-with-solidity/artifacts/Codes/auction.sol\":1804:1834  pendingReturns[msg.sender] = 0 */\n      dup2\n      swap1\n      sstore\n      pop\n        /* \"lab01-smart-contracts-with-solidity/artifacts/Codes/auction.sol\":2003:2013  msg.sender */\n      caller\n        /* \"lab01-smart-contracts-with-solidity/artifacts/Codes/auction.sol\":1995:2019  payable(msg.sender).send */\n      0xffffffffffffffffffffffffffffffffffffffff\n      and\n        /* \"lab01-smart-contracts-with-solidity/artifacts/Codes/auction.sol\":1995:2027  payable(msg.sender).send(amount) */\n      0x08fc\n        /* \"lab01-smart-contracts-with-solidity/artifacts/Codes/auction.sol\":2020:2026  amount */\n      dup3\n        /* \"lab01-smart-contracts-with-solidity/artifacts/Codes/auction.sol\":1995:2027  payable(msg.sender).send(amount) */\n      swap1\n      dup2\n      iszero\n      mul\n      swap1\n      mload(0x40)\n      0x00\n      mload(0x40)\n      dup1\n      dup4\n      sub\n      dup2\n      dup6\n      dup9\n      dup9\n      call\n      swap4\n      pop\n      pop\n      pop\n      pop\n        /* \"lab01-smart-contracts-with-solidity/artifacts/Codes/auction.sol\":1990:2127  if (!payable(msg.sender).send(amount)) {... */\n      tag_64\n      jumpi\n        /* \"lab01-smart-contracts-with-solidity/artifacts/Codes/auction.sol\":2076:2082  amount */\n      dup1\n        /* \"lab01-smart-contracts-with-solidity/artifacts/Codes/auction.sol\":2047:2061  pendingReturns */\n      0x04\n        /* \"lab01-smart-contracts-with-solidity/artifacts/Codes/auction.sol\":2047:2073  pendingReturns[msg.sender] */\n      0x00\n        /* \"lab01-smart-contracts-with-solidity/artifacts/Codes/auction.sol\":2062:2072  msg.sender */\n      caller\n        /* \"lab01-smart-contracts-with-solidity/artifacts/Codes/auction.sol\":2047:2073  pendingReturns[msg.sender] */\n      0xffffffffffffffffffffffffffffffffffffffff\n      and\n      0xffffffffffffffffffffffffffffffffffffffff\n      and\n      dup2\n      mstore\n      0x20\n      add\n      swap1\n      dup2\n      mstore\n      0x20\n      add\n      0x00\n      keccak256\n        /* \"lab01-smart-contracts-with-solidity/artifacts/Codes/auction.sol\":2047:2082  pendingReturns[msg.sender] = amount */\n      dup2\n      swap1\n      sstore\n      pop\n        /* \"lab01-smart-contracts-with-solidity/artifacts/Codes/auction.sol\":2107:2112  false */\n      0x00\n        /* \"lab01-smart-contracts-with-solidity/artifacts/Codes/auction.sol\":2100:2112  return false */\n      swap2\n      pop\n      pop\n      jump(tag_61)\n        /* \"lab01-smart-contracts-with-solidity/artifacts/Codes/auction.sol\":1990:2127  if (!payable(msg.sender).send(amount)) {... */\n    tag_64:\n        /* \"lab01-smart-contracts-with-solidity/artifacts/Codes/auction.sol\":1774:2137  if (amount > 0) {... */\n    tag_62:\n        /* \"lab01-smart-contracts-with-solidity/artifacts/Codes/auction.sol\":2153:2157  true */\n      0x01\n        /* \"lab01-smart-contracts-with-solidity/artifacts/Codes/auction.sol\":2146:2157  return true */\n      swap2\n      pop\n      pop\n        /* \"lab01-smart-contracts-with-solidity/artifacts/Codes/auction.sol\":1672:2164  function withdraw() public returns (bool) {... */\n    tag_61:\n      swap1\n      jump\t// out\n        /* \"lab01-smart-contracts-with-solidity/artifacts/Codes/auction.sol\":182:208  uint public auctionEndTime */\n    tag_27:\n      sload(0x01)\n      dup2\n      jump\t// out\n        /* \"lab01-smart-contracts-with-solidity/artifacts/Codes/auction.sol\":276:304  address public highestBidder */\n    tag_32:\n      0x02\n      0x00\n      swap1\n      sload\n      swap1\n      0x0100\n      exp\n      swap1\n      div\n      0xffffffffffffffffffffffffffffffffffffffff\n      and\n      dup2\n      jump\t// out\n        /* \"lab01-smart-contracts-with-solidity/artifacts/Codes/auction.sol\":350:372  uint public highestBid */\n    tag_37:\n      sload(0x03)\n      dup2\n      jump\t// out\n        /* \"#utility.yul\":7:133   */\n    tag_65:\n        /* \"#utility.yul\":44:51   */\n      0x00\n        /* \"#utility.yul\":84:126   */\n      0xffffffffffffffffffffffffffffffffffffffff\n        /* \"#utility.yul\":77:82   */\n      dup3\n        /* \"#utility.yul\":73:127   */\n      and\n        /* \"#utility.yul\":62:127   */\n      swap1\n      pop\n        /* \"#utility.yul\":7:133   */\n      swap2\n      swap1\n      pop\n      jump\t// out\n        /* \"#utility.yul\":139:243   */\n    tag_66:\n        /* \"#utility.yul\":184:191   */\n      0x00\n        /* \"#utility.yul\":213:237   */\n      tag_87\n        /* \"#utility.yul\":231:236   */\n      dup3\n        /* \"#utility.yul\":213:237   */\n      tag_65\n      jump\t// in\n    tag_87:\n        /* \"#utility.yul\":202:237   */\n      swap1\n      pop\n        /* \"#utility.yul\":139:243   */\n      swap2\n      swap1\n      pop\n      jump\t// out\n        /* \"#utility.yul\":249:391   */\n    tag_67:\n        /* \"#utility.yul\":352:384   */\n      tag_89\n        /* \"#utility.yul\":378:383   */\n      dup2\n        /* \"#utility.yul\":352:384   */\n      tag_66\n      jump\t// in\n    tag_89:\n        /* \"#utility.yul\":347:350   */\n      dup3\n        /* \"#utility.yul\":340:385   */\n      mstore\n        /* \"#utility.yul\":249:391   */\n      pop\n      pop\n      jump\t// out\n        /* \"#utility.yul\":397:651   */\n    tag_19:\n        /* \"#utility.yul\":506:510   */\n      0x00\n        /* \"#utility.yul\":544:546   */\n      0x20\n        /* \"#utility.yul\":533:542   */\n      dup3\n        /* \"#utility.yul\":529:547   */\n      add\n        /* \"#utility.yul\":521:547   */\n      swap1\n      pop\n        /* \"#utility.yul\":557:644   */\n      tag_91\n        /* \"#utility.yul\":641:642   */\n      0x00\n        /* \"#utility.yul\":630:639   */\n      dup4\n        /* \"#utility.yul\":626:643   */\n      add\n        /* \"#utility.yul\":617:623   */\n      dup5\n        /* \"#utility.yul\":557:644   */\n      tag_67\n      jump\t// in\n    tag_91:\n        /* \"#utility.yul\":397:651   */\n      swap3\n      swap2\n      pop\n      pop\n      jump\t// out\n        /* \"#utility.yul\":657:747   */\n    tag_68:\n        /* \"#utility.yul\":691:698   */\n      0x00\n        /* \"#utility.yul\":734:739   */\n      dup2\n        /* \"#utility.yul\":727:740   */\n      iszero\n        /* \"#utility.yul\":720:741   */\n      iszero\n        /* \"#utility.yul\":709:741   */\n      swap1\n      pop\n        /* \"#utility.yul\":657:747   */\n      swap2\n      swap1\n      pop\n      jump\t// out\n        /* \"#utility.yul\":753:862   */\n    tag_69:\n        /* \"#utility.yul\":834:855   */\n      tag_94\n        /* \"#utility.yul\":849:854   */\n      dup2\n        /* \"#utility.yul\":834:855   */\n      tag_68\n      jump\t// in\n    tag_94:\n        /* \"#utility.yul\":829:832   */\n      dup3\n        /* \"#utility.yul\":822:856   */\n      mstore\n        /* \"#utility.yul\":753:862   */\n      pop\n      pop\n      jump\t// out\n        /* \"#utility.yul\":868:1078   */\n    tag_24:\n        /* \"#utility.yul\":955:959   */\n      0x00\n        /* \"#utility.yul\":993:995   */\n      0x20\n        /* \"#utility.yul\":982:991   */\n      dup3\n        /* \"#utility.yul\":978:996   */\n      add\n        /* \"#utility.yul\":970:996   */\n      swap1\n      pop\n        /* \"#utility.yul\":1006:1071   */\n      tag_96\n        /* \"#utility.yul\":1068:1069   */\n      0x00\n        /* \"#utility.yul\":1057:1066   */\n      dup4\n        /* \"#utility.yul\":1053:1070   */\n      add\n        /* \"#utility.yul\":1044:1050   */\n      dup5\n        /* \"#utility.yul\":1006:1071   */\n      tag_69\n      jump\t// in\n    tag_96:\n        /* \"#utility.yul\":868:1078   */\n      swap3\n      swap2\n      pop\n      pop\n      jump\t// out\n        /* \"#utility.yul\":1084:1161   */\n    tag_70:\n        /* \"#utility.yul\":1121:1128   */\n      0x00\n        /* \"#utility.yul\":1150:1155   */\n      dup2\n        /* \"#utility.yul\":1139:1155   */\n      swap1\n      pop\n        /* \"#utility.yul\":1084:1161   */\n      swap2\n      swap1\n      pop\n      jump\t// out\n        /* \"#utility.yul\":1167:1285   */\n    tag_71:\n        /* \"#utility.yul\":1254:1278   */\n      tag_99\n        /* \"#utility.yul\":1272:1277   */\n      dup2\n        /* \"#utility.yul\":1254:1278   */\n      tag_70\n      jump\t// in\n    tag_99:\n        /* \"#utility.yul\":1249:1252   */\n      dup3\n        /* \"#utility.yul\":1242:1279   */\n      mstore\n        /* \"#utility.yul\":1167:1285   */\n      pop\n      pop\n      jump\t// out\n        /* \"#utility.yul\":1291:1513   */\n    tag_29:\n        /* \"#utility.yul\":1384:1388   */\n      0x00\n        /* \"#utility.yul\":1422:1424   */\n      0x20\n        /* \"#utility.yul\":1411:1420   */\n      dup3\n        /* \"#utility.yul\":1407:1425   */\n      add\n        /* \"#utility.yul\":1399:1425   */\n      swap1\n      pop\n        /* \"#utility.yul\":1435:1506   */\n      tag_101\n        /* \"#utility.yul\":1503:1504   */\n      0x00\n        /* \"#utility.yul\":1492:1501   */\n      dup4\n        /* \"#utility.yul\":1488:1505   */\n      add\n        /* \"#utility.yul\":1479:1485   */\n      dup5\n        /* \"#utility.yul\":1435:1506   */\n      tag_71\n      jump\t// in\n    tag_101:\n        /* \"#utility.yul\":1291:1513   */\n      swap3\n      swap2\n      pop\n      pop\n      jump\t// out\n        /* \"#utility.yul\":1519:1615   */\n    tag_72:\n        /* \"#utility.yul\":1556:1563   */\n      0x00\n        /* \"#utility.yul\":1585:1609   */\n      tag_103\n        /* \"#utility.yul\":1603:1608   */\n      dup3\n        /* \"#utility.yul\":1585:1609   */\n      tag_65\n      jump\t// in\n    tag_103:\n        /* \"#utility.yul\":1574:1609   */\n      swap1\n      pop\n        /* \"#utility.yul\":1519:1615   */\n      swap2\n      swap1\n      pop\n      jump\t// out\n        /* \"#utility.yul\":1621:1739   */\n    tag_73:\n        /* \"#utility.yul\":1708:1732   */\n      tag_105\n        /* \"#utility.yul\":1726:1731   */\n      dup2\n        /* \"#utility.yul\":1708:1732   */\n      tag_72\n      jump\t// in\n    tag_105:\n        /* \"#utility.yul\":1703:1706   */\n      dup3\n        /* \"#utility.yul\":1696:1733   */\n      mstore\n        /* \"#utility.yul\":1621:1739   */\n      pop\n      pop\n      jump\t// out\n        /* \"#utility.yul\":1745:1967   */\n    tag_34:\n        /* \"#utility.yul\":1838:1842   */\n      0x00\n        /* \"#utility.yul\":1876:1878   */\n      0x20\n        /* \"#utility.yul\":1865:1874   */\n      dup3\n        /* \"#utility.yul\":1861:1879   */\n      add\n        /* \"#utility.yul\":1853:1879   */\n      swap1\n      pop\n        /* \"#utility.yul\":1889:1960   */\n      tag_107\n        /* \"#utility.yul\":1957:1958   */\n      0x00\n        /* \"#utility.yul\":1946:1955   */\n      dup4\n        /* \"#utility.yul\":1942:1959   */\n      add\n        /* \"#utility.yul\":1933:1939   */\n      dup5\n        /* \"#utility.yul\":1889:1960   */\n      tag_73\n      jump\t// in\n    tag_107:\n        /* \"#utility.yul\":1745:1967   */\n      swap3\n      swap2\n      pop\n      pop\n      jump\t// out\n        /* \"#utility.yul\":1973:2142   */\n    tag_74:\n        /* \"#utility.yul\":2057:2068   */\n      0x00\n        /* \"#utility.yul\":2091:2097   */\n      dup3\n        /* \"#utility.yul\":2086:2089   */\n      dup3\n        /* \"#utility.yul\":2079:2098   */\n      mstore\n        /* \"#utility.yul\":2131:2135   */\n      0x20\n        /* \"#utility.yul\":2126:2129   */\n      dup3\n        /* \"#utility.yul\":2122:2136   */\n      add\n        /* \"#utility.yul\":2107:2136   */\n      swap1\n      pop\n        /* \"#utility.yul\":1973:2142   */\n      swap3\n      swap2\n      pop\n      pop\n      jump\t// out\n        /* \"#utility.yul\":2148:2320   */\n    tag_75:\n        /* \"#utility.yul\":2288:2312   */\n      0x41756374696f6e20616c726561647920656e6465642e00000000000000000000\n        /* \"#utility.yul\":2284:2285   */\n      0x00\n        /* \"#utility.yul\":2276:2282   */\n      dup3\n        /* \"#utility.yul\":2272:2286   */\n      add\n        /* \"#utility.yul\":2265:2313   */\n      mstore\n        /* \"#utility.yul\":2148:2320   */\n      pop\n      jump\t// out\n        /* \"#utility.yul\":2326:2692   */\n    tag_76:\n        /* \"#utility.yul\":2468:2471   */\n      0x00\n        /* \"#utility.yul\":2489:2556   */\n      tag_111\n        /* \"#utility.yul\":2553:2555   */\n      0x16\n        /* \"#utility.yul\":2548:2551   */\n      dup4\n        /* \"#utility.yul\":2489:2556   */\n      tag_74\n      jump\t// in\n    tag_111:\n        /* \"#utility.yul\":2482:2556   */\n      swap2\n      pop\n        /* \"#utility.yul\":2565:2658   */\n      tag_112\n        /* \"#utility.yul\":2654:2657   */\n      dup3\n        /* \"#utility.yul\":2565:2658   */\n      tag_75\n      jump\t// in\n    tag_112:\n        /* \"#utility.yul\":2683:2685   */\n      0x20\n        /* \"#utility.yul\":2678:2681   */\n      dup3\n        /* \"#utility.yul\":2674:2686   */\n      add\n        /* \"#utility.yul\":2667:2686   */\n      swap1\n      pop\n        /* \"#utility.yul\":2326:2692   */\n      swap2\n      swap1\n      pop\n      jump\t// out\n        /* \"#utility.yul\":2698:3117   */\n    tag_42:\n        /* \"#utility.yul\":2864:2868   */\n      0x00\n        /* \"#utility.yul\":2902:2904   */\n      0x20\n        /* \"#utility.yul\":2891:2900   */\n      dup3\n        /* \"#utility.yul\":2887:2905   */\n      add\n        /* \"#utility.yul\":2879:2905   */\n      swap1\n      pop\n        /* \"#utility.yul\":2951:2960   */\n      dup2\n        /* \"#utility.yul\":2945:2949   */\n      dup2\n        /* \"#utility.yul\":2941:2961   */\n      sub\n        /* \"#utility.yul\":2937:2938   */\n      0x00\n        /* \"#utility.yul\":2926:2935   */\n      dup4\n        /* \"#utility.yul\":2922:2939   */\n      add\n        /* \"#utility.yul\":2915:2962   */\n      mstore\n        /* \"#utility.yul\":2979:3110   */\n      tag_114\n        /* \"#utility.yul\":3105:3109   */\n      dup2\n        /* \"#utility.yul\":2979:3110   */\n      tag_76\n      jump\t// in\n    tag_114:\n        /* \"#utility.yul\":2971:3110   */\n      swap1\n      pop\n        /* \"#utility.yul\":2698:3117   */\n      swap2\n      swap1\n      pop\n      jump\t// out\n        /* \"#utility.yul\":3123:3303   */\n    tag_77:\n        /* \"#utility.yul\":3263:3295   */\n      0x546865726520616c7265616479206973206120686967686572206269642e0000\n        /* \"#utility.yul\":3259:3260   */\n      0x00\n        /* \"#utility.yul\":3251:3257   */\n      dup3\n        /* \"#utility.yul\":3247:3261   */\n      add\n        /* \"#utility.yul\":3240:3296   */\n      mstore\n        /* \"#utility.yul\":3123:3303   */\n      pop\n      jump\t// out\n        /* \"#utility.yul\":3309:3675   */\n    tag_78:\n        /* \"#utility.yul\":3451:3454   */\n      0x00\n        /* \"#utility.yul\":3472:3539   */\n      tag_117\n        /* \"#utility.yul\":3536:3538   */\n      0x1e\n        /* \"#utility.yul\":3531:3534   */\n      dup4\n        /* \"#utility.yul\":3472:3539   */\n      tag_74\n      jump\t// in\n    tag_117:\n        /* \"#utility.yul\":3465:3539   */\n      swap2\n      pop\n        /* \"#utility.yul\":3548:3641   */\n      tag_118\n        /* \"#utility.yul\":3637:3640   */\n      dup3\n        /* \"#utility.yul\":3548:3641   */\n      tag_77\n      jump\t// in\n    tag_118:\n        /* \"#utility.yul\":3666:3668   */\n      0x20\n        /* \"#utility.yul\":3661:3664   */\n      dup3\n        /* \"#utility.yul\":3657:3669   */\n      add\n        /* \"#utility.yul\":3650:3669   */\n      swap1\n      pop\n        /* \"#utility.yul\":3309:3675   */\n      swap2\n      swap1\n      pop\n      jump\t// out\n        /* \"#utility.yul\":3681:4100   */\n    tag_45:\n        /* \"#utility.yul\":3847:3851   */\n      0x00\n        /* \"#utility.yul\":3885:3887   */\n      0x20\n        /* \"#utility.yul\":3874:3883   */\n      dup3\n        /* \"#utility.yul\":3870:3888   */\n      add\n        /* \"#utility.yul\":3862:3888   */\n      swap1\n      pop\n        /* \"#utility.yul\":3934:3943   */\n      dup2\n        /* \"#utility.yul\":3928:3932   */\n      dup2\n        /* \"#utility.yul\":3924:3944   */\n      sub\n        /* \"#utility.yul\":3920:3921   */\n      0x00\n        /* \"#utility.yul\":3909:3918   */\n      dup4\n        /* \"#utility.yul\":3905:3922   */\n      add\n        /* \"#utility.yul\":3898:3945   */\n      mstore\n        /* \"#utility.yul\":3962:4093   */\n      tag_120\n        /* \"#utility.yul\":4088:4092   */\n      dup2\n        /* \"#utility.yul\":3962:4093   */\n      tag_78\n      jump\t// in\n    tag_120:\n        /* \"#utility.yul\":3954:4093   */\n      swap1\n      pop\n        /* \"#utility.yul\":3681:4100   */\n      swap2\n      swap1\n      pop\n      jump\t// out\n        /* \"#utility.yul\":4106:4286   */\n    tag_79:\n        /* \"#utility.yul\":4154:4231   */\n      0x4e487b7100000000000000000000000000000000000000000000000000000000\n        /* \"#utility.yul\":4151:4152   */\n      0x00\n        /* \"#utility.yul\":4144:4232   */\n      mstore\n        /* \"#utility.yul\":4251:4255   */\n      0x11\n        /* \"#utility.yul\":4248:4249   */\n      0x04\n        /* \"#utility.yul\":4241:4256   */\n      mstore\n        /* \"#utility.yul\":4275:4279   */\n      0x24\n        /* \"#utility.yul\":4272:4273   */\n      0x00\n        /* \"#utility.yul\":4265:4280   */\n      revert\n        /* \"#utility.yul\":4292:4483   */\n    tag_48:\n        /* \"#utility.yul\":4332:4335   */\n      0x00\n        /* \"#utility.yul\":4351:4371   */\n      tag_123\n        /* \"#utility.yul\":4369:4370   */\n      dup3\n        /* \"#utility.yul\":4351:4371   */\n      tag_70\n      jump\t// in\n    tag_123:\n        /* \"#utility.yul\":4346:4371   */\n      swap2\n      pop\n        /* \"#utility.yul\":4385:4405   */\n      tag_124\n        /* \"#utility.yul\":4403:4404   */\n      dup4\n        /* \"#utility.yul\":4385:4405   */\n      tag_70\n      jump\t// in\n    tag_124:\n        /* \"#utility.yul\":4380:4405   */\n      swap3\n      pop\n        /* \"#utility.yul\":4428:4429   */\n      dup3\n        /* \"#utility.yul\":4425:4426   */\n      dup3\n        /* \"#utility.yul\":4421:4430   */\n      add\n        /* \"#utility.yul\":4414:4430   */\n      swap1\n      pop\n        /* \"#utility.yul\":4449:4452   */\n      dup1\n        /* \"#utility.yul\":4446:4447   */\n      dup3\n        /* \"#utility.yul\":4443:4453   */\n      gt\n        /* \"#utility.yul\":4440:4476   */\n      iszero\n      tag_125\n      jumpi\n        /* \"#utility.yul\":4456:4474   */\n      tag_126\n      tag_79\n      jump\t// in\n    tag_126:\n        /* \"#utility.yul\":4440:4476   */\n    tag_125:\n        /* \"#utility.yul\":4292:4483   */\n      swap3\n      swap2\n      pop\n      pop\n      jump\t// out\n        /* \"#utility.yul\":4489:4821   */\n    tag_50:\n        /* \"#utility.yul\":4610:4614   */\n      0x00\n        /* \"#utility.yul\":4648:4650   */\n      0x40\n        /* \"#utility.yul\":4637:4646   */\n      dup3\n        /* \"#utility.yul\":4633:4651   */\n      add\n        /* \"#utility.yul\":4625:4651   */\n      swap1\n      pop\n        /* \"#utility.yul\":4661:4732   */\n      tag_128\n        /* \"#utility.yul\":4729:4730   */\n      0x00\n        /* \"#utility.yul\":4718:4727   */\n      dup4\n        /* \"#utility.yul\":4714:4731   */\n      add\n        /* \"#utility.yul\":4705:4711   */\n      dup6\n        /* \"#utility.yul\":4661:4732   */\n      tag_73\n      jump\t// in\n    tag_128:\n        /* \"#utility.yul\":4742:4814   */\n      tag_129\n        /* \"#utility.yul\":4810:4812   */\n      0x20\n        /* \"#utility.yul\":4799:4808   */\n      dup4\n        /* \"#utility.yul\":4795:4813   */\n      add\n        /* \"#utility.yul\":4786:4792   */\n      dup5\n        /* \"#utility.yul\":4742:4814   */\n      tag_71\n      jump\t// in\n    tag_129:\n        /* \"#utility.yul\":4489:4821   */\n      swap4\n      swap3\n      pop\n      pop\n      pop\n      jump\t// out\n        /* \"#utility.yul\":4827:4999   */\n    tag_80:\n        /* \"#utility.yul\":4967:4991   */\n      0x41756374696f6e206e6f742079657420656e6465642e00000000000000000000\n        /* \"#utility.yul\":4963:4964   */\n      0x00\n        /* \"#utility.yul\":4955:4961   */\n      dup3\n        /* \"#utility.yul\":4951:4965   */\n      add\n        /* \"#utility.yul\":4944:4992   */\n      mstore\n        /* \"#utility.yul\":4827:4999   */\n      pop\n      jump\t// out\n        /* \"#utility.yul\":5005:5371   */\n    tag_81:\n        /* \"#utility.yul\":5147:5150   */\n      0x00\n        /* \"#utility.yul\":5168:5235   */\n      tag_132\n        /* \"#utility.yul\":5232:5234   */\n      0x16\n        /* \"#utility.yul\":5227:5230   */\n      dup4\n        /* \"#utility.yul\":5168:5235   */\n      tag_74\n      jump\t// in\n    tag_132:\n        /* \"#utility.yul\":5161:5235   */\n      swap2\n      pop\n        /* \"#utility.yul\":5244:5337   */\n      tag_133\n        /* \"#utility.yul\":5333:5336   */\n      dup3\n        /* \"#utility.yul\":5244:5337   */\n      tag_80\n      jump\t// in\n    tag_133:\n        /* \"#utility.yul\":5362:5364   */\n      0x20\n        /* \"#utility.yul\":5357:5360   */\n      dup3\n        /* \"#utility.yul\":5353:5365   */\n      add\n        /* \"#utility.yul\":5346:5365   */\n      swap1\n      pop\n        /* \"#utility.yul\":5005:5371   */\n      swap2\n      swap1\n      pop\n      jump\t// out\n        /* \"#utility.yul\":5377:5796   */\n    tag_54:\n        /* \"#utility.yul\":5543:5547   */\n      0x00\n        /* \"#utility.yul\":5581:5583   */\n      0x20\n        /* \"#utility.yul\":5570:5579   */\n      dup3\n        /* \"#utility.yul\":5566:5584   */\n      add\n        /* \"#utility.yul\":5558:5584   */\n      swap1\n      pop\n        /* \"#utility.yul\":5630:5639   */\n      dup2\n        /* \"#utility.yul\":5624:5628   */\n      dup2\n        /* \"#utility.yul\":5620:5640   */\n      sub\n        /* \"#utility.yul\":5616:5617   */\n      0x00\n        /* \"#utility.yul\":5605:5614   */\n      dup4\n        /* \"#utility.yul\":5601:5618   */\n      add\n        /* \"#utility.yul\":5594:5641   */\n      mstore\n        /* \"#utility.yul\":5658:5789   */\n      tag_135\n        /* \"#utility.yul\":5784:5788   */\n      dup2\n        /* \"#utility.yul\":5658:5789   */\n      tag_81\n      jump\t// in\n    tag_135:\n        /* \"#utility.yul\":5650:5789   */\n      swap1\n      pop\n        /* \"#utility.yul\":5377:5796   */\n      swap2\n      swap1\n      pop\n      jump\t// out\n        /* \"#utility.yul\":5802:6024   */\n    tag_82:\n        /* \"#utility.yul\":5942:5976   */\n      0x61756374696f6e456e642068617320616c7265616479206265656e2063616c6c\n        /* \"#utility.yul\":5938:5939   */\n      0x00\n        /* \"#utility.yul\":5930:5936   */\n      dup3\n        /* \"#utility.yul\":5926:5940   */\n      add\n        /* \"#utility.yul\":5919:5977   */\n      mstore\n        /* \"#utility.yul\":6011:6016   */\n      0x65642e0000000000000000000000000000000000000000000000000000000000\n        /* \"#utility.yul\":6006:6008   */\n      0x20\n        /* \"#utility.yul\":5998:6004   */\n      dup3\n        /* \"#utility.yul\":5994:6009   */\n      add\n        /* \"#utility.yul\":5987:6017   */\n      mstore\n        /* \"#utility.yul\":5802:6024   */\n      pop\n      jump\t// out\n        /* \"#utility.yul\":6030:6396   */\n    tag_83:\n        /* \"#utility.yul\":6172:6175   */\n      0x00\n        /* \"#utility.yul\":6193:6260   */\n      tag_138\n        /* \"#utility.yul\":6257:6259   */\n      0x23\n        /* \"#utility.yul\":6252:6255   */\n      dup4\n        /* \"#utility.yul\":6193:6260   */\n      tag_74\n      jump\t// in\n    tag_138:\n        /* \"#utility.yul\":6186:6260   */\n      swap2\n      pop\n        /* \"#utility.yul\":6269:6362   */\n      tag_139\n        /* \"#utility.yul\":6358:6361   */\n      dup3\n        /* \"#utility.yul\":6269:6362   */\n      tag_82\n      jump\t// in\n    tag_139:\n        /* \"#utility.yul\":6387:6389   */\n      0x40\n        /* \"#utility.yul\":6382:6385   */\n      dup3\n        /* \"#utility.yul\":6378:6390   */\n      add\n        /* \"#utility.yul\":6371:6390   */\n      swap1\n      pop\n        /* \"#utility.yul\":6030:6396   */\n      swap2\n      swap1\n      pop\n      jump\t// out\n        /* \"#utility.yul\":6402:6821   */\n    tag_57:\n        /* \"#utility.yul\":6568:6572   */\n      0x00\n        /* \"#utility.yul\":6606:6608   */\n      0x20\n        /* \"#utility.yul\":6595:6604   */\n      dup3\n        /* \"#utility.yul\":6591:6609   */\n      add\n        /* \"#utility.yul\":6583:6609   */\n      swap1\n      pop\n        /* \"#utility.yul\":6655:6664   */\n      dup2\n        /* \"#utility.yul\":6649:6653   */\n      dup2\n        /* \"#utility.yul\":6645:6665   */\n      sub\n        /* \"#utility.yul\":6641:6642   */\n      0x00\n        /* \"#utility.yul\":6630:6639   */\n      dup4\n        /* \"#utility.yul\":6626:6643   */\n      add\n        /* \"#utility.yul\":6619:6666   */\n      mstore\n        /* \"#utility.yul\":6683:6814   */\n      tag_141\n        /* \"#utility.yul\":6809:6813   */\n      dup2\n        /* \"#utility.yul\":6683:6814   */\n      tag_83\n      jump\t// in\n    tag_141:\n        /* \"#utility.yul\":6675:6814   */\n      swap1\n      pop\n        /* \"#utility.yul\":6402:6821   */\n      swap2\n      swap1\n      pop\n      jump\t// out\n\n    auxdata: 0xa264697066735822122072d446fcd20d3e051637db72f6b37234cc8d67a06eacd27a768862130a5cc61564736f6c634300081e0033\n}\n",
				"bytecode": {
					"linkReferences": {},
					"object": "608060405234801561000f575f5ffd5b50604051610b1d380380610b1d8339818101604052810190610031919061011a565b805f5f6101000a81548173ffffffffffffffffffffffffffffffffffffffff021916908373ffffffffffffffffffffffffffffffffffffffff160217905550814261007c9190610185565b60018190555050506101b8565b5f5ffd5b5f819050919050565b61009f8161008d565b81146100a9575f5ffd5b50565b5f815190506100ba81610096565b92915050565b5f73ffffffffffffffffffffffffffffffffffffffff82169050919050565b5f6100e9826100c0565b9050919050565b6100f9816100df565b8114610103575f5ffd5b50565b5f81519050610114816100f0565b92915050565b5f5f604083850312156101305761012f610089565b5b5f61013d858286016100ac565b925050602061014e85828601610106565b9150509250929050565b7f4e487b71000000000000000000000000000000000000000000000000000000005f52601160045260245ffd5b5f61018f8261008d565b915061019a8361008d565b92508282019050808211156101b2576101b1610158565b5b92915050565b610958806101c55f395ff3fe60806040526004361061006f575f3560e01c80633ccfd60b1161004d5780633ccfd60b146100bd5780634b449cba146100e757806391f9015714610111578063d57bde791461013b5761006f565b80631998aeef146100735780632a24f46c1461007d57806338af3eed14610093575b5f5ffd5b61007b610165565b005b348015610088575f5ffd5b506100916102f0565b005b34801561009e575f5ffd5b506100a7610462565b6040516100b4919061060f565b60405180910390f35b3480156100c8575f5ffd5b506100d1610486565b6040516100de9190610642565b60405180910390f35b3480156100f2575f5ffd5b506100fb61059f565b6040516101089190610673565b60405180910390f35b34801561011c575f5ffd5b506101256105a5565b60405161013291906106ac565b60405180910390f35b348015610146575f5ffd5b5061014f6105ca565b60405161015c9190610673565b60405180910390f35b6001544211156101aa576040517f08c379a00000000000000000000000000000000000000000000000000000000081526004016101a19061071f565b60405180910390fd5b60035434116101ee576040517f08c379a00000000000000000000000000000000000000000000000000000000081526004016101e590610787565b60405180910390fd5b5f6003541461026e5760035460045f60025f9054906101000a900473ffffffffffffffffffffffffffffffffffffffff1673ffffffffffffffffffffffffffffffffffffffff1673ffffffffffffffffffffffffffffffffffffffff1681526020019081526020015f205f82825461026691906107d2565b925050819055505b3360025f6101000a81548173ffffffffffffffffffffffffffffffffffffffff021916908373ffffffffffffffffffffffffffffffffffffffff160217905550346003819055507ff4757a49b326036464bec6fe419a4ae38c8a02ce3e68bf0809674f6aab8ad30033346040516102e6929190610805565b60405180910390a1565b600154421015610335576040517f08c379a000000000000000000000000000000000000000000000000000000000815260040161032c90610876565b60405180910390fd5b60055f9054906101000a900460ff1615610384576040517f08c379a000000000000000000000000000000000000000000000000000000000815260040161037b90610904565b60405180910390fd5b600160055f6101000a81548160ff0219169083151502179055507fdaec4582d5d9595688c8c98545fdd1c696d41c6aeaeb636737e84ed2f5c00eda60025f9054906101000a900473ffffffffffffffffffffffffffffffffffffffff166003546040516103f2929190610805565b60405180910390a15f5f9054906101000a900473ffffffffffffffffffffffffffffffffffffffff1673ffffffffffffffffffffffffffffffffffffffff166108fc60035490811502906040515f60405180830381858888f1935050505015801561045f573d5f5f3e3d5ffd5b50565b5f5f9054906101000a900473ffffffffffffffffffffffffffffffffffffffff1681565b5f5f60045f3373ffffffffffffffffffffffffffffffffffffffff1673ffffffffffffffffffffffffffffffffffffffff1681526020019081526020015f205490505f811115610596575f60045f3373ffffffffffffffffffffffffffffffffffffffff1673ffffffffffffffffffffffffffffffffffffffff1681526020019081526020015f20819055503373ffffffffffffffffffffffffffffffffffffffff166108fc8290811502906040515f60405180830381858888f19350505050610595578060045f3373ffffffffffffffffffffffffffffffffffffffff1673ffffffffffffffffffffffffffffffffffffffff1681526020019081526020015f20819055505f91505061059c565b5b60019150505b90565b60015481565b60025f9054906101000a900473ffffffffffffffffffffffffffffffffffffffff1681565b60035481565b5f73ffffffffffffffffffffffffffffffffffffffff82169050919050565b5f6105f9826105d0565b9050919050565b610609816105ef565b82525050565b5f6020820190506106225f830184610600565b92915050565b5f8115159050919050565b61063c81610628565b82525050565b5f6020820190506106555f830184610633565b92915050565b5f819050919050565b61066d8161065b565b82525050565b5f6020820190506106865f830184610664565b92915050565b5f610696826105d0565b9050919050565b6106a68161068c565b82525050565b5f6020820190506106bf5f83018461069d565b92915050565b5f82825260208201905092915050565b7f41756374696f6e20616c726561647920656e6465642e000000000000000000005f82015250565b5f6107096016836106c5565b9150610714826106d5565b602082019050919050565b5f6020820190508181035f830152610736816106fd565b9050919050565b7f546865726520616c7265616479206973206120686967686572206269642e00005f82015250565b5f610771601e836106c5565b915061077c8261073d565b602082019050919050565b5f6020820190508181035f83015261079e81610765565b9050919050565b7f4e487b71000000000000000000000000000000000000000000000000000000005f52601160045260245ffd5b5f6107dc8261065b565b91506107e78361065b565b92508282019050808211156107ff576107fe6107a5565b5b92915050565b5f6040820190506108185f83018561069d565b6108256020830184610664565b9392505050565b7f41756374696f6e206e6f742079657420656e6465642e000000000000000000005f82015250565b5f6108606016836106c5565b915061086b8261082c565b602082019050919050565b5f6020820190508181035f83015261088d81610854565b9050919050565b7f61756374696f6e456e642068617320616c7265616479206265656e2063616c6c5f8201527f65642e0000000000000000000000000000000000000000000000000000000000602082015250565b5f6108ee6023836106c5565b91506108f982610894565b604082019050919050565b5f6020820190508181035f83015261091b816108e2565b905091905056fea264697066735822122072d446fcd20d3e051637db72f6b37234cc8d67a06eacd27a768862130a5cc61564736f6c634300081e0033",
					"opcodes": "PUSH1 0x80 PUSH1 0x40 MSTORE CALLVALUE DUP1 ISZERO PUSH2 0xF JUMPI PUSH0 PUSH0 REVERT JUMPDEST POP PUSH1 0x40 MLOAD PUSH2 0xB1D CODESIZE SUB DUP1 PUSH2 0xB1D DUP4 CODECOPY DUP2 DUP2 ADD PUSH1 0x40 MSTORE DUP2 ADD SWAP1 PUSH2 0x31 SWAP2 SWAP1 PUSH2 0x11A JUMP JUMPDEST DUP1 PUSH0 PUSH0 PUSH2 0x100 EXP DUP2 SLOAD DUP2 PUSH20 0xFFFFFFFFFFFFFFFFFFFFFFFFFFFFFFFFFFFFFFFF MUL NOT AND SWAP1 DUP4 PUSH20 0xFFFFFFFFFFFFFFFFFFFFFFFFFFFFFFFFFFFFFFFF AND MUL OR SWAP1 SSTORE POP DUP2 TIMESTAMP PUSH2 0x7C SWAP2 SWAP1 PUSH2 0x185 JUMP JUMPDEST PUSH1 0x1 DUP2 SWAP1 SSTORE POP POP POP PUSH2 0x1B8 JUMP JUMPDEST PUSH0 PUSH0 REVERT JUMPDEST PUSH0 DUP2 SWAP1 POP SWAP2 SWAP1 POP JUMP JUMPDEST PUSH2 0x9F DUP2 PUSH2 0x8D JUMP JUMPDEST DUP2 EQ PUSH2 0xA9 JUMPI PUSH0 PUSH0 REVERT JUMPDEST POP JUMP JUMPDEST PUSH0 DUP2 MLOAD SWAP1 POP PUSH2 0xBA DUP2 PUSH2 0x96 JUMP JUMPDEST SWAP3 SWAP2 POP POP JUMP JUMPDEST PUSH0 PUSH20 0xFFFFFFFFFFFFFFFFFFFFFFFFFFFFFFFFFFFFFFFF DUP3 AND SWAP1 POP SWAP2 SWAP1 POP JUMP JUMPDEST PUSH0 PUSH2 0xE9 DUP3 PUSH2 0xC0 JUMP JUMPDEST SWAP1 POP SWAP2 SWAP1 POP JUMP JUMPDEST PUSH2 0xF9 DUP2 PUSH2 0xDF JUMP JUMPDEST DUP2 EQ PUSH2 0x103 JUMPI PUSH0 PUSH0 REVERT JUMPDEST POP JUMP JUMPDEST PUSH0 DUP2 MLOAD SWAP1 POP PUSH2 0x114 DUP2 PUSH2 0xF0 JUMP JUMPDEST SWAP3 SWAP2 POP POP JUMP JUMPDEST PUSH0 PUSH0 PUSH1 0x40 DUP4 DUP6 SUB SLT ISZERO PUSH2 0x130 JUMPI PUSH2 0x12F PUSH2 0x89 JUMP JUMPDEST JUMPDEST PUSH0 PUSH2 0x13D DUP6 DUP3 DUP7 ADD PUSH2 0xAC JUMP JUMPDEST SWAP3 POP POP PUSH1 0x20 PUSH2 0x14E DUP6 DUP3 DUP7 ADD PUSH2 0x106 JUMP JUMPDEST SWAP2 POP POP SWAP3 POP SWAP3 SWAP1 POP JUMP JUMPDEST PUSH32 0x4E487B7100000000000000000000000000000000000000000000000000000000 PUSH0 MSTORE PUSH1 0x11 PUSH1 0x4 MSTORE PUSH1 0x24 PUSH0 REVERT JUMPDEST PUSH0 PUSH2 0x18F DUP3 PUSH2 0x8D JUMP JUMPDEST SWAP2 POP PUSH2 0x19A DUP4 PUSH2 0x8D JUMP JUMPDEST SWAP3 POP DUP3 DUP3 ADD SWAP1 POP DUP1 DUP3 GT ISZERO PUSH2 0x1B2 JUMPI PUSH2 0x1B1 PUSH2 0x158 JUMP JUMPDEST JUMPDEST SWAP3 SWAP2 POP POP JUMP JUMPDEST PUSH2 0x958 DUP1 PUSH2 0x1C5 PUSH0 CODECOPY PUSH0 RETURN INVALID PUSH1 0x80 PUSH1 0x40 MSTORE PUSH1 0x4 CALLDATASIZE LT PUSH2 0x6F JUMPI PUSH0 CALLDATALOAD PUSH1 0xE0 SHR DUP1 PUSH4 0x3CCFD60B GT PUSH2 0x4D JUMPI DUP1 PUSH4 0x3CCFD60B EQ PUSH2 0xBD JUMPI DUP1 PUSH4 0x4B449CBA EQ PUSH2 0xE7 JUMPI DUP1 PUSH4 0x91F90157 EQ PUSH2 0x111 JUMPI DUP1 PUSH4 0xD57BDE79 EQ PUSH2 0x13B JUMPI PUSH2 0x6F JUMP JUMPDEST DUP1 PUSH4 0x1998AEEF EQ PUSH2 0x73 JUMPI DUP1 PUSH4 0x2A24F46C EQ PUSH2 0x7D JUMPI DUP1 PUSH4 0x38AF3EED EQ PUSH2 0x93 JUMPI JUMPDEST PUSH0 PUSH0 REVERT JUMPDEST PUSH2 0x7B PUSH2 0x165 JUMP JUMPDEST STOP JUMPDEST CALLVALUE DUP1 ISZERO PUSH2 0x88 JUMPI PUSH0 PUSH0 REVERT JUMPDEST POP PUSH2 0x91 PUSH2 0x2F0 JUMP JUMPDEST STOP JUMPDEST CALLVALUE DUP1 ISZERO PUSH2 0x9E JUMPI PUSH0 PUSH0 REVERT JUMPDEST POP PUSH2 0xA7 PUSH2 0x462 JUMP JUMPDEST PUSH1 0x40 MLOAD PUSH2 0xB4 SWAP2 SWAP1 PUSH2 0x60F JUMP JUMPDEST PUSH1 0x40 MLOAD DUP1 SWAP2 SUB SWAP1 RETURN JUMPDEST CALLVALUE DUP1 ISZERO PUSH2 0xC8 JUMPI PUSH0 PUSH0 REVERT JUMPDEST POP PUSH2 0xD1 PUSH2 0x486 JUMP JUMPDEST PUSH1 0x40 MLOAD PUSH2 0xDE SWAP2 SWAP1 PUSH2 0x642 JUMP JUMPDEST PUSH1 0x40 MLOAD DUP1 SWAP2 SUB SWAP1 RETURN JUMPDEST CALLVALUE DUP1 ISZERO PUSH2 0xF2 JUMPI PUSH0 PUSH0 REVERT JUMPDEST POP PUSH2 0xFB PUSH2 0x59F JUMP JUMPDEST PUSH1 0x40 MLOAD PUSH2 0x108 SWAP2 SWAP1 PUSH2 0x673 JUMP JUMPDEST PUSH1 0x40 MLOAD DUP1 SWAP2 SUB SWAP1 RETURN JUMPDEST CALLVALUE DUP1 ISZERO PUSH2 0x11C JUMPI PUSH0 PUSH0 REVERT JUMPDEST POP PUSH2 0x125 PUSH2 0x5A5 JUMP JUMPDEST PUSH1 0x40 MLOAD PUSH2 0x132 SWAP2 SWAP1 PUSH2 0x6AC JUMP JUMPDEST PUSH1 0x40 MLOAD DUP1 SWAP2 SUB SWAP1 RETURN JUMPDEST CALLVALUE DUP1 ISZERO PUSH2 0x146 JUMPI PUSH0 PUSH0 REVERT JUMPDEST POP PUSH2 0x14F PUSH2 0x5CA JUMP JUMPDEST PUSH1 0x40 MLOAD PUSH2 0x15C SWAP2 SWAP1 PUSH2 0x673 JUMP JUMPDEST PUSH1 0x40 MLOAD DUP1 SWAP2 SUB SWAP1 RETURN JUMPDEST PUSH1 0x1 SLOAD TIMESTAMP GT ISZERO PUSH2 0x1AA JUMPI PUSH1 0x40 MLOAD PUSH32 0x8C379A000000000000000000000000000000000000000000000000000000000 DUP2 MSTORE PUSH1 0x4 ADD PUSH2 0x1A1 SWAP1 PUSH2 0x71F JUMP JUMPDEST PUSH1 0x40 MLOAD DUP1 SWAP2 SUB SWAP1 REVERT JUMPDEST PUSH1 0x3 SLOAD CALLVALUE GT PUSH2 0x1EE JUMPI PUSH1 0x40 MLOAD PUSH32 0x8C379A000000000000000000000000000000000000000000000000000000000 DUP2 MSTORE PUSH1 0x4 ADD PUSH2 0x1E5 SWAP1 PUSH2 0x787 JUMP JUMPDEST PUSH1 0x40 MLOAD DUP1 SWAP2 SUB SWAP1 REVERT JUMPDEST PUSH0 PUSH1 0x3 SLOAD EQ PUSH2 0x26E JUMPI PUSH1 0x3 SLOAD PUSH1 0x4 PUSH0 PUSH1 0x2 PUSH0 SWAP1 SLOAD SWAP1 PUSH2 0x100 EXP SWAP1 DIV PUSH20 0xFFFFFFFFFFFFFFFFFFFFFFFFFFFFFFFFFFFFFFFF AND PUSH20 0xFFFFFFFFFFFFFFFFFFFFFFFFFFFFFFFFFFFFFFFF AND PUSH20 0xFFFFFFFFFFFFFFFFFFFFFFFFFFFFFFFFFFFFFFFF AND DUP2 MSTORE PUSH1 0x20 ADD SWAP1 DUP2 MSTORE PUSH1 0x20 ADD PUSH0 KECCAK256 PUSH0 DUP3 DUP3 SLOAD PUSH2 0x266 SWAP2 SWAP1 PUSH2 0x7D2 JUMP JUMPDEST SWAP3 POP POP DUP2 SWAP1 SSTORE POP JUMPDEST CALLER PUSH1 0x2 PUSH0 PUSH2 0x100 EXP DUP2 SLOAD DUP2 PUSH20 0xFFFFFFFFFFFFFFFFFFFFFFFFFFFFFFFFFFFFFFFF MUL NOT AND SWAP1 DUP4 PUSH20 0xFFFFFFFFFFFFFFFFFFFFFFFFFFFFFFFFFFFFFFFF AND MUL OR SWAP1 SSTORE POP CALLVALUE PUSH1 0x3 DUP2 SWAP1 SSTORE POP PUSH32 0xF4757A49B326036464BEC6FE419A4AE38C8A02CE3E68BF0809674F6AAB8AD300 CALLER CALLVALUE PUSH1 0x40 MLOAD PUSH2 0x2E6 SWAP3 SWAP2 SWAP1 PUSH2 0x805 JUMP JUMPDEST PUSH1 0x40 MLOAD DUP1 SWAP2 SUB SWAP1 LOG1 JUMP JUMPDEST PUSH1 0x1 SLOAD TIMESTAMP LT ISZERO PUSH2 0x335 JUMPI PUSH1 0x40 MLOAD PUSH32 0x8C379A000000000000000000000000000000000000000000000000000000000 DUP2 MSTORE PUSH1 0x4 ADD PUSH2 0x32C SWAP1 PUSH2 0x876 JUMP JUMPDEST PUSH1 0x40 MLOAD DUP1 SWAP2 SUB SWAP1 REVERT JUMPDEST PUSH1 0x5 PUSH0 SWAP1 SLOAD SWAP1 PUSH2 0x100 EXP SWAP1 DIV PUSH1 0xFF AND ISZERO PUSH2 0x384 JUMPI PUSH1 0x40 MLOAD PUSH32 0x8C379A000000000000000000000000000000000000000000000000000000000 DUP2 MSTORE PUSH1 0x4 ADD PUSH2 0x37B SWAP1 PUSH2 0x904 JUMP JUMPDEST PUSH1 0x40 MLOAD DUP1 SWAP2 SUB SWAP1 REVERT JUMPDEST PUSH1 0x1 PUSH1 0x5 PUSH0 PUSH2 0x100 EXP DUP2 SLOAD DUP2 PUSH1 0xFF MUL NOT AND SWAP1 DUP4 ISZERO ISZERO MUL OR SWAP1 SSTORE POP PUSH32 0xDAEC4582D5D9595688C8C98545FDD1C696D41C6AEAEB636737E84ED2F5C00EDA PUSH1 0x2 PUSH0 SWAP1 SLOAD SWAP1 PUSH2 0x100 EXP SWAP1 DIV PUSH20 0xFFFFFFFFFFFFFFFFFFFFFFFFFFFFFFFFFFFFFFFF AND PUSH1 0x3 SLOAD PUSH1 0x40 MLOAD PUSH2 0x3F2 SWAP3 SWAP2 SWAP1 PUSH2 0x805 JUMP JUMPDEST PUSH1 0x40 MLOAD DUP1 SWAP2 SUB SWAP1 LOG1 PUSH0 PUSH0 SWAP1 SLOAD SWAP1 PUSH2 0x100 EXP SWAP1 DIV PUSH20 0xFFFFFFFFFFFFFFFFFFFFFFFFFFFFFFFFFFFFFFFF AND PUSH20 0xFFFFFFFFFFFFFFFFFFFFFFFFFFFFFFFFFFFFFFFF AND PUSH2 0x8FC PUSH1 0x3 SLOAD SWAP1 DUP2 ISZERO MUL SWAP1 PUSH1 0x40 MLOAD PUSH0 PUSH1 0x40 MLOAD DUP1 DUP4 SUB DUP2 DUP6 DUP9 DUP9 CALL SWAP4 POP POP POP POP ISZERO DUP1 ISZERO PUSH2 0x45F JUMPI RETURNDATASIZE PUSH0 PUSH0 RETURNDATACOPY RETURNDATASIZE PUSH0 REVERT JUMPDEST POP JUMP JUMPDEST PUSH0 PUSH0 SWAP1 SLOAD SWAP1 PUSH2 0x100 EXP SWAP1 DIV PUSH20 0xFFFFFFFFFFFFFFFFFFFFFFFFFFFFFFFFFFFFFFFF AND DUP2 JUMP JUMPDEST PUSH0 PUSH0 PUSH1 0x4 PUSH0 CALLER PUSH20 0xFFFFFFFFFFFFFFFFFFFFFFFFFFFFFFFFFFFFFFFF AND PUSH20 0xFFFFFFFFFFFFFFFFFFFFFFFFFFFFFFFFFFFFFFFF AND DUP2 MSTORE PUSH1 0x20 ADD SWAP1 DUP2 MSTORE PUSH1 0x20 ADD PUSH0 KECCAK256 SLOAD SWAP1 POP PUSH0 DUP2 GT ISZERO PUSH2 0x596 JUMPI PUSH0 PUSH1 0x4 PUSH0 CALLER PUSH20 0xFFFFFFFFFFFFFFFFFFFFFFFFFFFFFFFFFFFFFFFF AND PUSH20 0xFFFFFFFFFFFFFFFFFFFFFFFFFFFFFFFFFFFFFFFF AND DUP2 MSTORE PUSH1 0x20 ADD SWAP1 DUP2 MSTORE PUSH1 0x20 ADD PUSH0 KECCAK256 DUP2 SWAP1 SSTORE POP CALLER PUSH20 0xFFFFFFFFFFFFFFFFFFFFFFFFFFFFFFFFFFFFFFFF AND PUSH2 0x8FC DUP3 SWAP1 DUP2 ISZERO MUL SWAP1 PUSH1 0x40 MLOAD PUSH0 PUSH1 0x40 MLOAD DUP1 DUP4 SUB DUP2 DUP6 DUP9 DUP9 CALL SWAP4 POP POP POP POP PUSH2 0x595 JUMPI DUP1 PUSH1 0x4 PUSH0 CALLER PUSH20 0xFFFFFFFFFFFFFFFFFFFFFFFFFFFFFFFFFFFFFFFF AND PUSH20 0xFFFFFFFFFFFFFFFFFFFFFFFFFFFFFFFFFFFFFFFF AND DUP2 MSTORE PUSH1 0x20 ADD SWAP1 DUP2 MSTORE PUSH1 0x20 ADD PUSH0 KECCAK256 DUP2 SWAP1 SSTORE POP PUSH0 SWAP2 POP POP PUSH2 0x59C JUMP JUMPDEST JUMPDEST PUSH1 0x1 SWAP2 POP POP JUMPDEST SWAP1 JUMP JUMPDEST PUSH1 0x1 SLOAD DUP2 JUMP JUMPDEST PUSH1 0x2 PUSH0 SWAP1 SLOAD SWAP1 PUSH2 0x100 EXP SWAP1 DIV PUSH20 0xFFFFFFFFFFFFFFFFFFFFFFFFFFFFFFFFFFFFFFFF AND DUP2 JUMP JUMPDEST PUSH1 0x3 SLOAD DUP2 JUMP JUMPDEST PUSH0 PUSH20 0xFFFFFFFFFFFFFFFFFFFFFFFFFFFFFFFFFFFFFFFF DUP3 AND SWAP1 POP SWAP2 SWAP1 POP JUMP JUMPDEST PUSH0 PUSH2 0x5F9 DUP3 PUSH2 0x5D0 JUMP JUMPDEST SWAP1 POP SWAP2 SWAP1 POP JUMP JUMPDEST PUSH2 0x609 DUP2 PUSH2 0x5EF JUMP JUMPDEST DUP3 MSTORE POP POP JUMP JUMPDEST PUSH0 PUSH1 0x20 DUP3 ADD SWAP1 POP PUSH2 0x622 PUSH0 DUP4 ADD DUP5 PUSH2 0x600 JUMP JUMPDEST SWAP3 SWAP2 POP POP JUMP JUMPDEST PUSH0 DUP2 ISZERO ISZERO SWAP1 POP SWAP2 SWAP1 POP JUMP JUMPDEST PUSH2 0x63C DUP2 PUSH2 0x628 JUMP JUMPDEST DUP3 MSTORE POP POP JUMP JUMPDEST PUSH0 PUSH1 0x20 DUP3 ADD SWAP1 POP PUSH2 0x655 PUSH0 DUP4 ADD DUP5 PUSH2 0x633 JUMP JUMPDEST SWAP3 SWAP2 POP POP JUMP JUMPDEST PUSH0 DUP2 SWAP1 POP SWAP2 SWAP1 POP JUMP JUMPDEST PUSH2 0x66D DUP2 PUSH2 0x65B JUMP JUMPDEST DUP3 MSTORE POP POP JUMP JUMPDEST PUSH0 PUSH1 0x20 DUP3 ADD SWAP1 POP PUSH2 0x686 PUSH0 DUP4 ADD DUP5 PUSH2 0x664 JUMP JUMPDEST SWAP3 SWAP2 POP POP JUMP JUMPDEST PUSH0 PUSH2 0x696 DUP3 PUSH2 0x5D0 JUMP JUMPDEST SWAP1 POP SWAP2 SWAP1 POP JUMP JUMPDEST PUSH2 0x6A6 DUP2 PUSH2 0x68C JUMP JUMPDEST DUP3 MSTORE POP POP JUMP JUMPDEST PUSH0 PUSH1 0x20 DUP3 ADD SWAP1 POP PUSH2 0x6BF PUSH0 DUP4 ADD DUP5 PUSH2 0x69D JUMP JUMPDEST SWAP3 SWAP2 POP POP JUMP JUMPDEST PUSH0 DUP3 DUP3 MSTORE PUSH1 0x20 DUP3 ADD SWAP1 POP SWAP3 SWAP2 POP POP JUMP JUMPDEST PUSH32 0x41756374696F6E20616C726561647920656E6465642E00000000000000000000 PUSH0 DUP3 ADD MSTORE POP JUMP JUMPDEST PUSH0 PUSH2 0x709 PUSH1 0x16 DUP4 PUSH2 0x6C5 JUMP JUMPDEST SWAP2 POP PUSH2 0x714 DUP3 PUSH2 0x6D5 JUMP JUMPDEST PUSH1 0x20 DUP3 ADD SWAP1 POP SWAP2 SWAP1 POP JUMP JUMPDEST PUSH0 PUSH1 0x20 DUP3 ADD SWAP1 POP DUP2 DUP2 SUB PUSH0 DUP4 ADD MSTORE PUSH2 0x736 DUP2 PUSH2 0x6FD JUMP JUMPDEST SWAP1 POP SWAP2 SWAP1 POP JUMP JUMPDEST PUSH32 0x546865726520616C7265616479206973206120686967686572206269642E0000 PUSH0 DUP3 ADD MSTORE POP JUMP JUMPDEST PUSH0 PUSH2 0x771 PUSH1 0x1E DUP4 PUSH2 0x6C5 JUMP JUMPDEST SWAP2 POP PUSH2 0x77C DUP3 PUSH2 0x73D JUMP JUMPDEST PUSH1 0x20 DUP3 ADD SWAP1 POP SWAP2 SWAP1 POP JUMP JUMPDEST PUSH0 PUSH1 0x20 DUP3 ADD SWAP1 POP DUP2 DUP2 SUB PUSH0 DUP4 ADD MSTORE PUSH2 0x79E DUP2 PUSH2 0x765 JUMP JUMPDEST SWAP1 POP SWAP2 SWAP1 POP JUMP JUMPDEST PUSH32 0x4E487B7100000000000000000000000000000000000000000000000000000000 PUSH0 MSTORE PUSH1 0x11 PUSH1 0x4 MSTORE PUSH1 0x24 PUSH0 REVERT JUMPDEST PUSH0 PUSH2 0x7DC DUP3 PUSH2 0x65B JUMP JUMPDEST SWAP2 POP PUSH2 0x7E7 DUP4 PUSH2 0x65B JUMP JUMPDEST SWAP3 POP DUP3 DUP3 ADD SWAP1 POP DUP1 DUP3 GT ISZERO PUSH2 0x7FF JUMPI PUSH2 0x7FE PUSH2 0x7A5 JUMP JUMPDEST JUMPDEST SWAP3 SWAP2 POP POP JUMP JUMPDEST PUSH0 PUSH1 0x40 DUP3 ADD SWAP1 POP PUSH2 0x818 PUSH0 DUP4 ADD DUP6 PUSH2 0x69D JUMP JUMPDEST PUSH2 0x825 PUSH1 0x20 DUP4 ADD DUP5 PUSH2 0x664 JUMP JUMPDEST SWAP4 SWAP3 POP POP POP JUMP JUMPDEST PUSH32 0x41756374696F6E206E6F742079657420656E6465642E00000000000000000000 PUSH0 DUP3 ADD MSTORE POP JUMP JUMPDEST PUSH0 PUSH2 0x860 PUSH1 0x16 DUP4 PUSH2 0x6C5 JUMP JUMPDEST SWAP2 POP PUSH2 0x86B DUP3 PUSH2 0x82C JUMP JUMPDEST PUSH1 0x20 DUP3 ADD SWAP1 POP SWAP2 SWAP1 POP JUMP JUMPDEST PUSH0 PUSH1 0x20 DUP3 ADD SWAP1 POP DUP2 DUP2 SUB PUSH0 DUP4 ADD MSTORE PUSH2 0x88D DUP2 PUSH2 0x854 JUMP JUMPDEST SWAP1 POP SWAP2 SWAP1 POP JUMP JUMPDEST PUSH32 0x61756374696F6E456E642068617320616C7265616479206265656E2063616C6C PUSH0 DUP3 ADD MSTORE PUSH32 0x65642E0000000000000000000000000000000000000000000000000000000000 PUSH1 0x20 DUP3 ADD MSTORE POP JUMP JUMPDEST PUSH0 PUSH2 0x8EE PUSH1 0x23 DUP4 PUSH2 0x6C5 JUMP JUMPDEST SWAP2 POP PUSH2 0x8F9 DUP3 PUSH2 0x894 JUMP JUMPDEST PUSH1 0x40 DUP3 ADD SWAP1 POP SWAP2 SWAP1 POP JUMP JUMPDEST PUSH0 PUSH1 0x20 DUP3 ADD SWAP1 POP DUP2 DUP2 SUB PUSH0 DUP4 ADD MSTORE PUSH2 0x91B DUP2 PUSH2 0x8E2 JUMP JUMPDEST SWAP1 POP SWAP2 SWAP1 POP JUMP INVALID LOG2 PUSH5 0x6970667358 0x22 SLT KECCAK256 PUSH19 0xD446FCD20D3E051637DB72F6B37234CC8D67A0 PUSH15 0xACD27A768862130A5CC61564736F6C PUSH4 0x4300081E STOP CALLER "
				},
				"gasEstimates": {
					"creation": {
						"codeDepositCost": "478400",
						"executionCost": "infinite",
						"totalCost": "infinite"
					},
					"external": {
						"auctionEnd()": "infinite",
						"auctionEndTime()": "2447",
						"beneficiary()": "2552",
						"bid()": "infinite",
						"highestBid()": "2491",
						"highestBidder()": "2552",
						"withdraw()": "infinite"
					}
				},
				"methodIdentifiers": {
					"auctionEnd()": "2a24f46c",
					"auctionEndTime()": "4b449cba",
					"beneficiary()": "38af3eed",
					"bid()": "1998aeef",
					"highestBid()": "d57bde79",
					"highestBidder()": "91f90157",
					"withdraw()": "3ccfd60b"
				}
			},
			"storageLayout": {
				"storage": [
					{
						"astId": 3,
						"contract": "lab01-smart-contracts-with-solidity/artifacts/Codes/auction.sol:SimpleAuction",
						"label": "beneficiary",
						"offset": 0,
						"slot": "0",
						"type": "t_address_payable"
					},
					{
						"astId": 5,
						"contract": "lab01-smart-contracts-with-solidity/artifacts/Codes/auction.sol:SimpleAuction",
						"label": "auctionEndTime",
						"offset": 0,
						"slot": "1",
						"type": "t_uint256"
					},
					{
						"astId": 7,
						"contract": "lab01-smart-contracts-with-solidity/artifacts/Codes/auction.sol:SimpleAuction",
						"label": "highestBidder",
						"offset": 0,
						"slot": "2",
						"type": "t_address"
					},
					{
						"astId": 9,
						"contract": "lab01-smart-contracts-with-solidity/artifacts/Codes/auction.sol:SimpleAuction",
						"label": "highestBid",
						"offset": 0,
						"slot": "3",
						"type": "t_uint256"
					},
					{
						"astId": 13,
						"contract": "lab01-smart-contracts-with-solidity/artifacts/Codes/auction.sol:SimpleAuction",
						"label": "pendingReturns",
						"offset": 0,
						"slot": "4",
						"type": "t_mapping(t_address,t_uint256)"
					},
					{
						"astId": 15,
						"contract": "lab01-smart-contracts-with-solidity/artifacts/Codes/auction.sol:SimpleAuction",
						"label": "ended",
						"offset": 0,
						"slot": "5",
						"type": "t_bool"
					}
				],
				"types": {
					"t_address": {
						"encoding": "inplace",
						"label": "address",
						"numberOfBytes": "20"
					},
					"t_address_payable": {
						"encoding": "inplace",
						"label": "address payable",
						"numberOfBytes": "20"
					},
					"t_bool": {
						"encoding": "inplace",
						"label": "bool",
						"numberOfBytes": "1"
					},
					"t_mapping(t_address,t_uint256)": {
						"encoding": "mapping",
						"key": "t_address",
						"label": "mapping(address => uint256)",
						"numberOfBytes": "32",
						"value": "t_uint256"
					},
					"t_uint256": {
						"encoding": "inplace",
						"label": "uint256",
						"numberOfBytes": "32"
					}
				}
			},
			"userdoc": {
				"kind": "user",
				"methods": {},
				"version": 1
			}
		}
	}
}