{
	"lab01-smart-contracts-with-solidity/artifacts/Codes/modifiers.sol": {
		"ModifierExample": {
			"abi": [
				{
					"inputs": [],
					"stateMutability": "nonpayable",
					"type": "constructor"
				},
				{
					"inputs": [
						{
							"internalType": "address",
							"name": "newOwner",
							"type": "address"
						}
					],
					"name": "changeOwner",
					"outputs": [],
					"stateMutability": "nonpayable",
					"type": "function"
				},
				{
					"inputs": [],
					"name": "owner",
					"outputs": [
						{
							"internalType": "address",
							"name": "",
							"type": "address"
						}
					],
					"stateMutability": "view",
					"type": "function"
				},
				{
					"inputs": [],
					"name": "publicFunction",
					"outputs": [
						{
							"internalType": "string",
							"name": "",
							"type": "string"
						}
					],
					"stateMutability": "pure",
					"type": "function"
				},
				{
					"inputs": [],
					"name": "restrictedFunction",
					"outputs": [
						{
							"internalType": "string",
							"name": "",
							"type": "string"
						}
					],
					"stateMutability": "view",
					"type": "function"
				}
			],
			"devdoc": {
				"kind": "dev",
				"methods": {},
				"version": 1
			},
			"evm": {
				"assembly": "    /* \"lab01-smart-contracts-with-solidity/artifacts/Codes/modifiers.sol\":57:1126  contract ModifierExample {... */\n  mstore(0x40, 0x80)\n    /* \"lab01-smart-contracts-with-solidity/artifacts/Codes/modifiers.sol\":233:339  constructor() {... */\n  callvalue\n  dup1\n  iszero\n  tag_1\n  jumpi\n  revert(0x00, 0x00)\ntag_1:\n  pop\n    /* \"lab01-smart-contracts-with-solidity/artifacts/Codes/modifiers.sol\":265:275  msg.sender */\n  caller\n    /* \"lab01-smart-contracts-with-solidity/artifacts/Codes/modifiers.sol\":257:262  owner */\n  0x00\n  0x00\n    /* \"lab01-smart-contracts-with-solidity/artifacts/Codes/modifiers.sol\":257:275  owner = msg.sender */\n  0x0100\n  exp\n  dup2\n  sload\n  dup2\n  0xffffffffffffffffffffffffffffffffffffffff\n  mul\n  not\n  and\n  swap1\n  dup4\n  0xffffffffffffffffffffffffffffffffffffffff\n  and\n  mul\n  or\n  swap1\n  sstore\n  pop\n    /* \"lab01-smart-contracts-with-solidity/artifacts/Codes/modifiers.sol\":57:1126  contract ModifierExample {... */\n  dataSize(sub_0)\n  dup1\n  dataOffset(sub_0)\n  0x00\n  codecopy\n  0x00\n  return\nstop\n\nsub_0: assembly {\n        /* \"lab01-smart-contracts-with-solidity/artifacts/Codes/modifiers.sol\":57:1126  contract ModifierExample {... */\n      mstore(0x40, 0x80)\n      callvalue\n      dup1\n      iszero\n      tag_1\n      jumpi\n      revert(0x00, 0x00)\n    tag_1:\n      pop\n      jumpi(tag_2, lt(calldatasize, 0x04))\n      shr(0xe0, calldataload(0x00))\n      dup1\n      0x777acf37\n      eq\n      tag_3\n      jumpi\n      dup1\n      0x7b5d520b\n      eq\n      tag_4\n      jumpi\n      dup1\n      0x8da5cb5b\n      eq\n      tag_5\n      jumpi\n      dup1\n      0xa6f9dae1\n      eq\n      tag_6\n      jumpi\n    tag_2:\n      revert(0x00, 0x00)\n        /* \"lab01-smart-contracts-with-solidity/artifacts/Codes/modifiers.sol\":968:1124  function restrictedFunction() public view onlyOwner returns (string memory) {... */\n    tag_3:\n      tag_7\n      tag_8\n      jump\t// in\n    tag_7:\n      mload(0x40)\n      tag_9\n      swap2\n      swap1\n      tag_10\n      jump\t// in\n    tag_9:\n      mload(0x40)\n      dup1\n      swap2\n      sub\n      swap1\n      return\n        /* \"lab01-smart-contracts-with-solidity/artifacts/Codes/modifiers.sol\":765:904  function publicFunction() public pure returns (string memory) {... */\n    tag_4:\n      tag_11\n      tag_12\n      jump\t// in\n    tag_11:\n      mload(0x40)\n      tag_13\n      swap2\n      swap1\n      tag_10\n      jump\t// in\n    tag_13:\n      mload(0x40)\n      dup1\n      swap2\n      sub\n      swap1\n      return\n        /* \"lab01-smart-contracts-with-solidity/artifacts/Codes/modifiers.sol\":145:165  address public owner */\n    tag_5:\n      tag_14\n      tag_15\n      jump\t// in\n    tag_14:\n      mload(0x40)\n      tag_16\n      swap2\n      swap1\n      tag_17\n      jump\t// in\n    tag_16:\n      mload(0x40)\n      dup1\n      swap2\n      sub\n      swap1\n      return\n        /* \"lab01-smart-contracts-with-solidity/artifacts/Codes/modifiers.sol\":607:696  function changeOwner(address newOwner) public onlyOwner {... */\n    tag_6:\n      tag_18\n      0x04\n      dup1\n      calldatasize\n      sub\n      dup2\n      add\n      swap1\n      tag_19\n      swap2\n      swap1\n      tag_20\n      jump\t// in\n    tag_19:\n      tag_21\n      jump\t// in\n    tag_18:\n      stop\n        /* \"lab01-smart-contracts-with-solidity/artifacts/Codes/modifiers.sol\":968:1124  function restrictedFunction() public view onlyOwner returns (string memory) {... */\n    tag_8:\n        /* \"lab01-smart-contracts-with-solidity/artifacts/Codes/modifiers.sol\":1029:1042  string memory */\n      0x60\n        /* \"lab01-smart-contracts-with-solidity/artifacts/Codes/modifiers.sol\":459:464  owner */\n      0x00\n      0x00\n      swap1\n      sload\n      swap1\n      0x0100\n      exp\n      swap1\n      div\n      0xffffffffffffffffffffffffffffffffffffffff\n      and\n        /* \"lab01-smart-contracts-with-solidity/artifacts/Codes/modifiers.sol\":445:464  msg.sender == owner */\n      0xffffffffffffffffffffffffffffffffffffffff\n      and\n        /* \"lab01-smart-contracts-with-solidity/artifacts/Codes/modifiers.sol\":445:455  msg.sender */\n      caller\n        /* \"lab01-smart-contracts-with-solidity/artifacts/Codes/modifiers.sol\":445:464  msg.sender == owner */\n      0xffffffffffffffffffffffffffffffffffffffff\n      and\n      eq\n        /* \"lab01-smart-contracts-with-solidity/artifacts/Codes/modifiers.sol\":437:492  require(msg.sender == owner, \"Caller is not the owner\") */\n      tag_23\n      jumpi\n      mload(0x40)\n      0x08c379a000000000000000000000000000000000000000000000000000000000\n      dup2\n      mstore\n      0x04\n      add\n      tag_24\n      swap1\n      tag_25\n      jump\t// in\n    tag_24:\n      mload(0x40)\n      dup1\n      swap2\n      sub\n      swap1\n      revert\n    tag_23:\n        /* \"lab01-smart-contracts-with-solidity/artifacts/Codes/modifiers.sol\":1054:1117  return \"This function can only be called by the contract owner\" */\n      mload(0x40)\n      dup1\n      0x60\n      add\n      0x40\n      mstore\n      dup1\n      0x36\n      dup2\n      mstore\n      0x20\n      add\n      data_b711e4c192f9babbd2fa95cae194876ada3f96de99f4c0133a80e6ca4b2c33b7\n      0x36\n      swap2\n      codecopy\n      swap1\n      pop\n        /* \"lab01-smart-contracts-with-solidity/artifacts/Codes/modifiers.sol\":968:1124  function restrictedFunction() public view onlyOwner returns (string memory) {... */\n      swap1\n      jump\t// out\n        /* \"lab01-smart-contracts-with-solidity/artifacts/Codes/modifiers.sol\":765:904  function publicFunction() public pure returns (string memory) {... */\n    tag_12:\n        /* \"lab01-smart-contracts-with-solidity/artifacts/Codes/modifiers.sol\":812:825  string memory */\n      0x60\n        /* \"lab01-smart-contracts-with-solidity/artifacts/Codes/modifiers.sol\":837:897  return \"This function is public and can be called by anyone\" */\n      mload(0x40)\n      dup1\n      0x60\n      add\n      0x40\n      mstore\n      dup1\n      0x33\n      dup2\n      mstore\n      0x20\n      add\n      data_422c0081da1af2e56774081457cbbb439b75d4ced49a8030ad6e2fd1277ed15f\n      0x33\n      swap2\n      codecopy\n      swap1\n      pop\n        /* \"lab01-smart-contracts-with-solidity/artifacts/Codes/modifiers.sol\":765:904  function publicFunction() public pure returns (string memory) {... */\n      swap1\n      jump\t// out\n        /* \"lab01-smart-contracts-with-solidity/artifacts/Codes/modifiers.sol\":145:165  address public owner */\n    tag_15:\n      0x00\n      0x00\n      swap1\n      sload\n      swap1\n      0x0100\n      exp\n      swap1\n      div\n      0xffffffffffffffffffffffffffffffffffffffff\n      and\n      dup2\n      jump\t// out\n        /* \"lab01-smart-contracts-with-solidity/artifacts/Codes/modifiers.sol\":607:696  function changeOwner(address newOwner) public onlyOwner {... */\n    tag_21:\n        /* \"lab01-smart-contracts-with-solidity/artifacts/Codes/modifiers.sol\":459:464  owner */\n      0x00\n      0x00\n      swap1\n      sload\n      swap1\n      0x0100\n      exp\n      swap1\n      div\n      0xffffffffffffffffffffffffffffffffffffffff\n      and\n        /* \"lab01-smart-contracts-with-solidity/artifacts/Codes/modifiers.sol\":445:464  msg.sender == owner */\n      0xffffffffffffffffffffffffffffffffffffffff\n      and\n        /* \"lab01-smart-contracts-with-solidity/artifacts/Codes/modifiers.sol\":445:455  msg.sender */\n      caller\n        /* \"lab01-smart-contracts-with-solidity/artifacts/Codes/modifiers.sol\":445:464  msg.sender == owner */\n      0xffffffffffffffffffffffffffffffffffffffff\n      and\n      eq\n        /* \"lab01-smart-contracts-with-solidity/artifacts/Codes/modifiers.sol\":437:492  require(msg.sender == owner, \"Caller is not the owner\") */\n      tag_29\n      jumpi\n      mload(0x40)\n      0x08c379a000000000000000000000000000000000000000000000000000000000\n      dup2\n      mstore\n      0x04\n      add\n      tag_30\n      swap1\n      tag_25\n      jump\t// in\n    tag_30:\n      mload(0x40)\n      dup1\n      swap2\n      sub\n      swap1\n      revert\n    tag_29:\n        /* \"lab01-smart-contracts-with-solidity/artifacts/Codes/modifiers.sol\":681:689  newOwner */\n      dup1\n        /* \"lab01-smart-contracts-with-solidity/artifacts/Codes/modifiers.sol\":673:678  owner */\n      0x00\n      0x00\n        /* \"lab01-smart-contracts-with-solidity/artifacts/Codes/modifiers.sol\":673:689  owner = newOwner */\n      0x0100\n      exp\n      dup2\n      sload\n      dup2\n      0xffffffffffffffffffffffffffffffffffffffff\n      mul\n      not\n      and\n      swap1\n      dup4\n      0xffffffffffffffffffffffffffffffffffffffff\n      and\n      mul\n      or\n      swap1\n      sstore\n      pop\n        /* \"lab01-smart-contracts-with-solidity/artifacts/Codes/modifiers.sol\":607:696  function changeOwner(address newOwner) public onlyOwner {... */\n      pop\n      jump\t// out\n        /* \"#utility.yul\":7:106   */\n    tag_32:\n        /* \"#utility.yul\":59:65   */\n      0x00\n        /* \"#utility.yul\":93:98   */\n      dup2\n        /* \"#utility.yul\":87:99   */\n      mload\n        /* \"#utility.yul\":77:99   */\n      swap1\n      pop\n        /* \"#utility.yul\":7:106   */\n      swap2\n      swap1\n      pop\n      jump\t// out\n        /* \"#utility.yul\":112:281   */\n    tag_33:\n        /* \"#utility.yul\":196:207   */\n      0x00\n        /* \"#utility.yul\":230:236   */\n      dup3\n        /* \"#utility.yul\":225:228   */\n      dup3\n        /* \"#utility.yul\":218:237   */\n      mstore\n        /* \"#utility.yul\":270:274   */\n      0x20\n        /* \"#utility.yul\":265:268   */\n      dup3\n        /* \"#utility.yul\":261:275   */\n      add\n        /* \"#utility.yul\":246:275   */\n      swap1\n      pop\n        /* \"#utility.yul\":112:281   */\n      swap3\n      swap2\n      pop\n      pop\n      jump\t// out\n        /* \"#utility.yul\":287:426   */\n    tag_34:\n        /* \"#utility.yul\":376:382   */\n      dup3\n        /* \"#utility.yul\":371:374   */\n      dup2\n        /* \"#utility.yul\":366:369   */\n      dup4\n        /* \"#utility.yul\":360:383   */\n      mcopy\n        /* \"#utility.yul\":417:418   */\n      0x00\n        /* \"#utility.yul\":408:414   */\n      dup4\n        /* \"#utility.yul\":403:406   */\n      dup4\n        /* \"#utility.yul\":399:415   */\n      add\n        /* \"#utility.yul\":392:419   */\n      mstore\n        /* \"#utility.yul\":287:426   */\n      pop\n      pop\n      pop\n      jump\t// out\n        /* \"#utility.yul\":432:534   */\n    tag_35:\n        /* \"#utility.yul\":473:479   */\n      0x00\n        /* \"#utility.yul\":524:526   */\n      0x1f\n        /* \"#utility.yul\":520:527   */\n      not\n        /* \"#utility.yul\":515:517   */\n      0x1f\n        /* \"#utility.yul\":508:513   */\n      dup4\n        /* \"#utility.yul\":504:518   */\n      add\n        /* \"#utility.yul\":500:528   */\n      and\n        /* \"#utility.yul\":490:528   */\n      swap1\n      pop\n        /* \"#utility.yul\":432:534   */\n      swap2\n      swap1\n      pop\n      jump\t// out\n        /* \"#utility.yul\":540:917   */\n    tag_36:\n        /* \"#utility.yul\":628:631   */\n      0x00\n        /* \"#utility.yul\":656:695   */\n      tag_53\n        /* \"#utility.yul\":689:694   */\n      dup3\n        /* \"#utility.yul\":656:695   */\n      tag_32\n      jump\t// in\n    tag_53:\n        /* \"#utility.yul\":711:782   */\n      tag_54\n        /* \"#utility.yul\":775:781   */\n      dup2\n        /* \"#utility.yul\":770:773   */\n      dup6\n        /* \"#utility.yul\":711:782   */\n      tag_33\n      jump\t// in\n    tag_54:\n        /* \"#utility.yul\":704:782   */\n      swap4\n      pop\n        /* \"#utility.yul\":791:856   */\n      tag_55\n        /* \"#utility.yul\":849:855   */\n      dup2\n        /* \"#utility.yul\":844:847   */\n      dup6\n        /* \"#utility.yul\":837:841   */\n      0x20\n        /* \"#utility.yul\":830:835   */\n      dup7\n        /* \"#utility.yul\":826:842   */\n      add\n        /* \"#utility.yul\":791:856   */\n      tag_34\n      jump\t// in\n    tag_55:\n        /* \"#utility.yul\":881:910   */\n      tag_56\n        /* \"#utility.yul\":903:909   */\n      dup2\n        /* \"#utility.yul\":881:910   */\n      tag_35\n      jump\t// in\n    tag_56:\n        /* \"#utility.yul\":876:879   */\n      dup5\n        /* \"#utility.yul\":872:911   */\n      add\n        /* \"#utility.yul\":865:911   */\n      swap2\n      pop\n        /* \"#utility.yul\":632:917   */\n      pop\n        /* \"#utility.yul\":540:917   */\n      swap3\n      swap2\n      pop\n      pop\n      jump\t// out\n        /* \"#utility.yul\":923:1236   */\n    tag_10:\n        /* \"#utility.yul\":1036:1040   */\n      0x00\n        /* \"#utility.yul\":1074:1076   */\n      0x20\n        /* \"#utility.yul\":1063:1072   */\n      dup3\n        /* \"#utility.yul\":1059:1077   */\n      add\n        /* \"#utility.yul\":1051:1077   */\n      swap1\n      pop\n        /* \"#utility.yul\":1123:1132   */\n      dup2\n        /* \"#utility.yul\":1117:1121   */\n      dup2\n        /* \"#utility.yul\":1113:1133   */\n      sub\n        /* \"#utility.yul\":1109:1110   */\n      0x00\n        /* \"#utility.yul\":1098:1107   */\n      dup4\n        /* \"#utility.yul\":1094:1111   */\n      add\n        /* \"#utility.yul\":1087:1134   */\n      mstore\n        /* \"#utility.yul\":1151:1229   */\n      tag_58\n        /* \"#utility.yul\":1224:1228   */\n      dup2\n        /* \"#utility.yul\":1215:1221   */\n      dup5\n        /* \"#utility.yul\":1151:1229   */\n      tag_36\n      jump\t// in\n    tag_58:\n        /* \"#utility.yul\":1143:1229   */\n      swap1\n      pop\n        /* \"#utility.yul\":923:1236   */\n      swap3\n      swap2\n      pop\n      pop\n      jump\t// out\n        /* \"#utility.yul\":1242:1368   */\n    tag_37:\n        /* \"#utility.yul\":1279:1286   */\n      0x00\n        /* \"#utility.yul\":1319:1361   */\n      0xffffffffffffffffffffffffffffffffffffffff\n        /* \"#utility.yul\":1312:1317   */\n      dup3\n        /* \"#utility.yul\":1308:1362   */\n      and\n        /* \"#utility.yul\":1297:1362   */\n      swap1\n      pop\n        /* \"#utility.yul\":1242:1368   */\n      swap2\n      swap1\n      pop\n      jump\t// out\n        /* \"#utility.yul\":1374:1470   */\n    tag_38:\n        /* \"#utility.yul\":1411:1418   */\n      0x00\n        /* \"#utility.yul\":1440:1464   */\n      tag_61\n        /* \"#utility.yul\":1458:1463   */\n      dup3\n        /* \"#utility.yul\":1440:1464   */\n      tag_37\n      jump\t// in\n    tag_61:\n        /* \"#utility.yul\":1429:1464   */\n      swap1\n      pop\n        /* \"#utility.yul\":1374:1470   */\n      swap2\n      swap1\n      pop\n      jump\t// out\n        /* \"#utility.yul\":1476:1594   */\n    tag_39:\n        /* \"#utility.yul\":1563:1587   */\n      tag_63\n        /* \"#utility.yul\":1581:1586   */\n      dup2\n        /* \"#utility.yul\":1563:1587   */\n      tag_38\n      jump\t// in\n    tag_63:\n        /* \"#utility.yul\":1558:1561   */\n      dup3\n        /* \"#utility.yul\":1551:1588   */\n      mstore\n        /* \"#utility.yul\":1476:1594   */\n      pop\n      pop\n      jump\t// out\n        /* \"#utility.yul\":1600:1822   */\n    tag_17:\n        /* \"#utility.yul\":1693:1697   */\n      0x00\n        /* \"#utility.yul\":1731:1733   */\n      0x20\n        /* \"#utility.yul\":1720:1729   */\n      dup3\n        /* \"#utility.yul\":1716:1734   */\n      add\n        /* \"#utility.yul\":1708:1734   */\n      swap1\n      pop\n        /* \"#utility.yul\":1744:1815   */\n      tag_65\n        /* \"#utility.yul\":1812:1813   */\n      0x00\n        /* \"#utility.yul\":1801:1810   */\n      dup4\n        /* \"#utility.yul\":1797:1814   */\n      add\n        /* \"#utility.yul\":1788:1794   */\n      dup5\n        /* \"#utility.yul\":1744:1815   */\n      tag_39\n      jump\t// in\n    tag_65:\n        /* \"#utility.yul\":1600:1822   */\n      swap3\n      swap2\n      pop\n      pop\n      jump\t// out\n        /* \"#utility.yul\":1909:2026   */\n    tag_41:\n        /* \"#utility.yul\":2018:2019   */\n      0x00\n        /* \"#utility.yul\":2015:2016   */\n      0x00\n        /* \"#utility.yul\":2008:2020   */\n      revert\n        /* \"#utility.yul\":2155:2277   */\n    tag_43:\n        /* \"#utility.yul\":2228:2252   */\n      tag_70\n        /* \"#utility.yul\":2246:2251   */\n      dup2\n        /* \"#utility.yul\":2228:2252   */\n      tag_38\n      jump\t// in\n    tag_70:\n        /* \"#utility.yul\":2221:2226   */\n      dup2\n        /* \"#utility.yul\":2218:2253   */\n      eq\n        /* \"#utility.yul\":2208:2271   */\n      tag_71\n      jumpi\n        /* \"#utility.yul\":2267:2268   */\n      0x00\n        /* \"#utility.yul\":2264:2265   */\n      0x00\n        /* \"#utility.yul\":2257:2269   */\n      revert\n        /* \"#utility.yul\":2208:2271   */\n    tag_71:\n        /* \"#utility.yul\":2155:2277   */\n      pop\n      jump\t// out\n        /* \"#utility.yul\":2283:2422   */\n    tag_44:\n        /* \"#utility.yul\":2329:2334   */\n      0x00\n        /* \"#utility.yul\":2367:2373   */\n      dup2\n        /* \"#utility.yul\":2354:2374   */\n      calldataload\n        /* \"#utility.yul\":2345:2374   */\n      swap1\n      pop\n        /* \"#utility.yul\":2383:2416   */\n      tag_73\n        /* \"#utility.yul\":2410:2415   */\n      dup2\n        /* \"#utility.yul\":2383:2416   */\n      tag_43\n      jump\t// in\n    tag_73:\n        /* \"#utility.yul\":2283:2422   */\n      swap3\n      swap2\n      pop\n      pop\n      jump\t// out\n        /* \"#utility.yul\":2428:2757   */\n    tag_20:\n        /* \"#utility.yul\":2487:2493   */\n      0x00\n        /* \"#utility.yul\":2536:2538   */\n      0x20\n        /* \"#utility.yul\":2524:2533   */\n      dup3\n        /* \"#utility.yul\":2515:2522   */\n      dup5\n        /* \"#utility.yul\":2511:2534   */\n      sub\n        /* \"#utility.yul\":2507:2539   */\n      slt\n        /* \"#utility.yul\":2504:2623   */\n      iszero\n      tag_75\n      jumpi\n        /* \"#utility.yul\":2542:2621   */\n      tag_76\n      tag_41\n      jump\t// in\n    tag_76:\n        /* \"#utility.yul\":2504:2623   */\n    tag_75:\n        /* \"#utility.yul\":2662:2663   */\n      0x00\n        /* \"#utility.yul\":2687:2740   */\n      tag_77\n        /* \"#utility.yul\":2732:2739   */\n      dup5\n        /* \"#utility.yul\":2723:2729   */\n      dup3\n        /* \"#utility.yul\":2712:2721   */\n      dup6\n        /* \"#utility.yul\":2708:2730   */\n      add\n        /* \"#utility.yul\":2687:2740   */\n      tag_44\n      jump\t// in\n    tag_77:\n        /* \"#utility.yul\":2677:2740   */\n      swap2\n      pop\n        /* \"#utility.yul\":2633:2750   */\n      pop\n        /* \"#utility.yul\":2428:2757   */\n      swap3\n      swap2\n      pop\n      pop\n      jump\t// out\n        /* \"#utility.yul\":2763:2936   */\n    tag_45:\n        /* \"#utility.yul\":2903:2928   */\n      0x43616c6c6572206973206e6f7420746865206f776e6572000000000000000000\n        /* \"#utility.yul\":2899:2900   */\n      0x00\n        /* \"#utility.yul\":2891:2897   */\n      dup3\n        /* \"#utility.yul\":2887:2901   */\n      add\n        /* \"#utility.yul\":2880:2929   */\n      mstore\n        /* \"#utility.yul\":2763:2936   */\n      pop\n      jump\t// out\n        /* \"#utility.yul\":2942:3308   */\n    tag_46:\n        /* \"#utility.yul\":3084:3087   */\n      0x00\n        /* \"#utility.yul\":3105:3172   */\n      tag_80\n        /* \"#utility.yul\":3169:3171   */\n      0x17\n        /* \"#utility.yul\":3164:3167   */\n      dup4\n        /* \"#utility.yul\":3105:3172   */\n      tag_33\n      jump\t// in\n    tag_80:\n        /* \"#utility.yul\":3098:3172   */\n      swap2\n      pop\n        /* \"#utility.yul\":3181:3274   */\n      tag_81\n        /* \"#utility.yul\":3270:3273   */\n      dup3\n        /* \"#utility.yul\":3181:3274   */\n      tag_45\n      jump\t// in\n    tag_81:\n        /* \"#utility.yul\":3299:3301   */\n      0x20\n        /* \"#utility.yul\":3294:3297   */\n      dup3\n        /* \"#utility.yul\":3290:3302   */\n      add\n        /* \"#utility.yul\":3283:3302   */\n      swap1\n      pop\n        /* \"#utility.yul\":2942:3308   */\n      swap2\n      swap1\n      pop\n      jump\t// out\n        /* \"#utility.yul\":3314:3733   */\n    tag_25:\n        /* \"#utility.yul\":3480:3484   */\n      0x00\n        /* \"#utility.yul\":3518:3520   */\n      0x20\n        /* \"#utility.yul\":3507:3516   */\n      dup3\n        /* \"#utility.yul\":3503:3521   */\n      add\n        /* \"#utility.yul\":3495:3521   */\n      swap1\n      pop\n        /* \"#utility.yul\":3567:3576   */\n      dup2\n        /* \"#utility.yul\":3561:3565   */\n      dup2\n        /* \"#utility.yul\":3557:3577   */\n      sub\n        /* \"#utility.yul\":3553:3554   */\n      0x00\n        /* \"#utility.yul\":3542:3551   */\n      dup4\n        /* \"#utility.yul\":3538:3555   */\n      add\n        /* \"#utility.yul\":3531:3578   */\n      mstore\n        /* \"#utility.yul\":3595:3726   */\n      tag_83\n        /* \"#utility.yul\":3721:3725   */\n      dup2\n        /* \"#utility.yul\":3595:3726   */\n      tag_46\n      jump\t// in\n    tag_83:\n        /* \"#utility.yul\":3587:3726   */\n      swap1\n      pop\n        /* \"#utility.yul\":3314:3733   */\n      swap2\n      swap1\n      pop\n      jump\t// out\n    stop\n    data_422c0081da1af2e56774081457cbbb439b75d4ced49a8030ad6e2fd1277ed15f 546869732066756e6374696f6e206973207075626c696320616e642063616e2062652063616c6c656420627920616e796f6e65\n    data_b711e4c192f9babbd2fa95cae194876ada3f96de99f4c0133a80e6ca4b2c33b7 546869732066756e6374696f6e2063616e206f6e6c792062652063616c6c65642062792074686520636f6e7472616374206f776e6572\n\n    auxdata: 0xa2646970667358221220cfc86f201f8f04b23fbe0e9cb9457ab16cf02aafe6573d1b4a980920f8ce58bb64736f6c634300081e0033\n}\n",
				"bytecode": {
					"linkReferences": {},
					"object": "6080604052348015600e575f5ffd5b50335f5f6101000a81548173ffffffffffffffffffffffffffffffffffffffff021916908373ffffffffffffffffffffffffffffffffffffffff1602179055506104ce8061005b5f395ff3fe608060405234801561000f575f5ffd5b506004361061004a575f3560e01c8063777acf371461004e5780637b5d520b1461006c5780638da5cb5b1461008a578063a6f9dae1146100a8575b5f5ffd5b6100566100c4565b60405161006391906102f6565b60405180910390f35b610074610172565b60405161008191906102f6565b60405180910390f35b610092610192565b60405161009f9190610355565b60405180910390f35b6100c260048036038101906100bd919061039c565b6101b6565b005b60605f5f9054906101000a900473ffffffffffffffffffffffffffffffffffffffff1673ffffffffffffffffffffffffffffffffffffffff163373ffffffffffffffffffffffffffffffffffffffff1614610154576040517f08c379a000000000000000000000000000000000000000000000000000000000815260040161014b90610411565b60405180910390fd5b60405180606001604052806036815260200161046360369139905090565b606060405180606001604052806033815260200161043060339139905090565b5f5f9054906101000a900473ffffffffffffffffffffffffffffffffffffffff1681565b5f5f9054906101000a900473ffffffffffffffffffffffffffffffffffffffff1673ffffffffffffffffffffffffffffffffffffffff163373ffffffffffffffffffffffffffffffffffffffff1614610244576040517f08c379a000000000000000000000000000000000000000000000000000000000815260040161023b90610411565b60405180910390fd5b805f5f6101000a81548173ffffffffffffffffffffffffffffffffffffffff021916908373ffffffffffffffffffffffffffffffffffffffff16021790555050565b5f81519050919050565b5f82825260208201905092915050565b8281835e5f83830152505050565b5f601f19601f8301169050919050565b5f6102c882610286565b6102d28185610290565b93506102e28185602086016102a0565b6102eb816102ae565b840191505092915050565b5f6020820190508181035f83015261030e81846102be565b905092915050565b5f73ffffffffffffffffffffffffffffffffffffffff82169050919050565b5f61033f82610316565b9050919050565b61034f81610335565b82525050565b5f6020820190506103685f830184610346565b92915050565b5f5ffd5b61037b81610335565b8114610385575f5ffd5b50565b5f8135905061039681610372565b92915050565b5f602082840312156103b1576103b061036e565b5b5f6103be84828501610388565b91505092915050565b7f43616c6c6572206973206e6f7420746865206f776e65720000000000000000005f82015250565b5f6103fb601783610290565b9150610406826103c7565b602082019050919050565b5f6020820190508181035f830152610428816103ef565b905091905056fe546869732066756e6374696f6e206973207075626c696320616e642063616e2062652063616c6c656420627920616e796f6e65546869732066756e6374696f6e2063616e206f6e6c792062652063616c6c65642062792074686520636f6e7472616374206f776e6572a2646970667358221220cfc86f201f8f04b23fbe0e9cb9457ab16cf02aafe6573d1b4a980920f8ce58bb64736f6c634300081e0033",
					"opcodes": "PUSH1 0x80 PUSH1 0x40 MSTORE CALLVALUE DUP1 ISZERO PUSH1 0xE JUMPI PUSH0 PUSH0 REVERT JUMPDEST POP CALLER PUSH0 PUSH0 PUSH2 0x100 EXP DUP2 SLOAD DUP2 PUSH20 0xFFFFFFFFFFFFFFFFFFFFFFFFFFFFFFFFFFFFFFFF MUL NOT AND SWAP1 DUP4 PUSH20 0xFFFFFFFFFFFFFFFFFFFFFFFFFFFFFFFFFFFFFFFF AND MUL OR SWAP1 SSTORE POP PUSH2 0x4CE DUP1 PUSH2 0x5B PUSH0 CODECOPY PUSH0 RETURN INVALID PUSH1 0x80 PUSH1 0x40 MSTORE CALLVALUE DUP1 ISZERO PUSH2 0xF JUMPI PUSH0 PUSH0 REVERT JUMPDEST POP PUSH1 0x4 CALLDATASIZE LT PUSH2 0x4A JUMPI PUSH0 CALLDATALOAD PUSH1 0xE0 SHR DUP1 PUSH4 0x777ACF37 EQ PUSH2 0x4E JUMPI DUP1 PUSH4 0x7B5D520B EQ PUSH2 0x6C JUMPI DUP1 PUSH4 0x8DA5CB5B EQ PUSH2 0x8A JUMPI DUP1 PUSH4 0xA6F9DAE1 EQ PUSH2 0xA8 JUMPI JUMPDEST PUSH0 PUSH0 REVERT JUMPDEST PUSH2 0x56 PUSH2 0xC4 JUMP JUMPDEST PUSH1 0x40 MLOAD PUSH2 0x63 SWAP2 SWAP1 PUSH2 0x2F6 JUMP JUMPDEST PUSH1 0x40 MLOAD DUP1 SWAP2 SUB SWAP1 RETURN JUMPDEST PUSH2 0x74 PUSH2 0x172 JUMP JUMPDEST PUSH1 0x40 MLOAD PUSH2 0x81 SWAP2 SWAP1 PUSH2 0x2F6 JUMP JUMPDEST PUSH1 0x40 MLOAD DUP1 SWAP2 SUB SWAP1 RETURN JUMPDEST PUSH2 0x92 PUSH2 0x192 JUMP JUMPDEST PUSH1 0x40 MLOAD PUSH2 0x9F SWAP2 SWAP1 PUSH2 0x355 JUMP JUMPDEST PUSH1 0x40 MLOAD DUP1 SWAP2 SUB SWAP1 RETURN JUMPDEST PUSH2 0xC2 PUSH1 0x4 DUP1 CALLDATASIZE SUB DUP2 ADD SWAP1 PUSH2 0xBD SWAP2 SWAP1 PUSH2 0x39C JUMP JUMPDEST PUSH2 0x1B6 JUMP JUMPDEST STOP JUMPDEST PUSH1 0x60 PUSH0 PUSH0 SWAP1 SLOAD SWAP1 PUSH2 0x100 EXP SWAP1 DIV PUSH20 0xFFFFFFFFFFFFFFFFFFFFFFFFFFFFFFFFFFFFFFFF AND PUSH20 0xFFFFFFFFFFFFFFFFFFFFFFFFFFFFFFFFFFFFFFFF AND CALLER PUSH20 0xFFFFFFFFFFFFFFFFFFFFFFFFFFFFFFFFFFFFFFFF AND EQ PUSH2 0x154 JUMPI PUSH1 0x40 MLOAD PUSH32 0x8C379A000000000000000000000000000000000000000000000000000000000 DUP2 MSTORE PUSH1 0x4 ADD PUSH2 0x14B SWAP1 PUSH2 0x411 JUMP JUMPDEST PUSH1 0x40 MLOAD DUP1 SWAP2 SUB SWAP1 REVERT JUMPDEST PUSH1 0x40 MLOAD DUP1 PUSH1 0x60 ADD PUSH1 0x40 MSTORE DUP1 PUSH1 0x36 DUP2 MSTORE PUSH1 0x20 ADD PUSH2 0x463 PUSH1 0x36 SWAP2 CODECOPY SWAP1 POP SWAP1 JUMP JUMPDEST PUSH1 0x60 PUSH1 0x40 MLOAD DUP1 PUSH1 0x60 ADD PUSH1 0x40 MSTORE DUP1 PUSH1 0x33 DUP2 MSTORE PUSH1 0x20 ADD PUSH2 0x430 PUSH1 0x33 SWAP2 CODECOPY SWAP1 POP SWAP1 JUMP JUMPDEST PUSH0 PUSH0 SWAP1 SLOAD SWAP1 PUSH2 0x100 EXP SWAP1 DIV PUSH20 0xFFFFFFFFFFFFFFFFFFFFFFFFFFFFFFFFFFFFFFFF AND DUP2 JUMP JUMPDEST PUSH0 PUSH0 SWAP1 SLOAD SWAP1 PUSH2 0x100 EXP SWAP1 DIV PUSH20 0xFFFFFFFFFFFFFFFFFFFFFFFFFFFFFFFFFFFFFFFF AND PUSH20 0xFFFFFFFFFFFFFFFFFFFFFFFFFFFFFFFFFFFFFFFF AND CALLER PUSH20 0xFFFFFFFFFFFFFFFFFFFFFFFFFFFFFFFFFFFFFFFF AND EQ PUSH2 0x244 JUMPI PUSH1 0x40 MLOAD PUSH32 0x8C379A000000000000000000000000000000000000000000000000000000000 DUP2 MSTORE PUSH1 0x4 ADD PUSH2 0x23B SWAP1 PUSH2 0x411 JUMP JUMPDEST PUSH1 0x40 MLOAD DUP1 SWAP2 SUB SWAP1 REVERT JUMPDEST DUP1 PUSH0 PUSH0 PUSH2 0x100 EXP DUP2 SLOAD DUP2 PUSH20 0xFFFFFFFFFFFFFFFFFFFFFFFFFFFFFFFFFFFFFFFF MUL NOT AND SWAP1 DUP4 PUSH20 0xFFFFFFFFFFFFFFFFFFFFFFFFFFFFFFFFFFFFFFFF AND MUL OR SWAP1 SSTORE POP POP JUMP JUMPDEST PUSH0 DUP2 MLOAD SWAP1 POP SWAP2 SWAP1 POP JUMP JUMPDEST PUSH0 DUP3 DUP3 MSTORE PUSH1 0x20 DUP3 ADD SWAP1 POP SWAP3 SWAP2 POP POP JUMP JUMPDEST DUP3 DUP2 DUP4 MCOPY PUSH0 DUP4 DUP4 ADD MSTORE POP POP POP JUMP JUMPDEST PUSH0 PUSH1 0x1F NOT PUSH1 0x1F DUP4 ADD AND SWAP1 POP SWAP2 SWAP1 POP JUMP JUMPDEST PUSH0 PUSH2 0x2C8 DUP3 PUSH2 0x286 JUMP JUMPDEST PUSH2 0x2D2 DUP2 DUP6 PUSH2 0x290 JUMP JUMPDEST SWAP4 POP PUSH2 0x2E2 DUP2 DUP6 PUSH1 0x20 DUP7 ADD PUSH2 0x2A0 JUMP JUMPDEST PUSH2 0x2EB DUP2 PUSH2 0x2AE JUMP JUMPDEST DUP5 ADD SWAP2 POP POP SWAP3 SWAP2 POP POP JUMP JUMPDEST PUSH0 PUSH1 0x20 DUP3 ADD SWAP1 POP DUP2 DUP2 SUB PUSH0 DUP4 ADD MSTORE PUSH2 0x30E DUP2 DUP5 PUSH2 0x2BE JUMP JUMPDEST SWAP1 POP SWAP3 SWAP2 POP POP JUMP JUMPDEST PUSH0 PUSH20 0xFFFFFFFFFFFFFFFFFFFFFFFFFFFFFFFFFFFFFFFF DUP3 AND SWAP1 POP SWAP2 SWAP1 POP JUMP JUMPDEST PUSH0 PUSH2 0x33F DUP3 PUSH2 0x316 JUMP JUMPDEST SWAP1 POP SWAP2 SWAP1 POP JUMP JUMPDEST PUSH2 0x34F DUP2 PUSH2 0x335 JUMP JUMPDEST DUP3 MSTORE POP POP JUMP JUMPDEST PUSH0 PUSH1 0x20 DUP3 ADD SWAP1 POP PUSH2 0x368 PUSH0 DUP4 ADD DUP5 PUSH2 0x346 JUMP JUMPDEST SWAP3 SWAP2 POP POP JUMP JUMPDEST PUSH0 PUSH0 REVERT JUMPDEST PUSH2 0x37B DUP2 PUSH2 0x335 JUMP JUMPDEST DUP2 EQ PUSH2 0x385 JUMPI PUSH0 PUSH0 REVERT JUMPDEST POP JUMP JUMPDEST PUSH0 DUP2 CALLDATALOAD SWAP1 POP PUSH2 0x396 DUP2 PUSH2 0x372 JUMP JUMPDEST SWAP3 SWAP2 POP POP JUMP JUMPDEST PUSH0 PUSH1 0x20 DUP3 DUP5 SUB SLT ISZERO PUSH2 0x3B1 JUMPI PUSH2 0x3B0 PUSH2 0x36E JUMP JUMPDEST JUMPDEST PUSH0 PUSH2 0x3BE DUP5 DUP3 DUP6 ADD PUSH2 0x388 JUMP JUMPDEST SWAP2 POP POP SWAP3 SWAP2 POP POP JUMP JUMPDEST PUSH32 0x43616C6C6572206973206E6F7420746865206F776E6572000000000000000000 PUSH0 DUP3 ADD MSTORE POP JUMP JUMPDEST PUSH0 PUSH2 0x3FB PUSH1 0x17 DUP4 PUSH2 0x290 JUMP JUMPDEST SWAP2 POP PUSH2 0x406 DUP3 PUSH2 0x3C7 JUMP JUMPDEST PUSH1 0x20 DUP3 ADD SWAP1 POP SWAP2 SWAP1 POP JUMP JUMPDEST PUSH0 PUSH1 0x20 DUP3 ADD SWAP1 POP DUP2 DUP2 SUB PUSH0 DUP4 ADD MSTORE PUSH2 0x428 DUP2 PUSH2 0x3EF JUMP JUMPDEST SWAP1 POP SWAP2 SWAP1 POP JUMP INVALID SLOAD PUSH9 0x69732066756E637469 PUSH16 0x6E206973207075626C696320616E6420 PUSH4 0x616E2062 PUSH6 0x2063616C6C65 PUSH5 0x2062792061 PUSH15 0x796F6E65546869732066756E637469 PUSH16 0x6E2063616E206F6E6C79206265206361 PUSH13 0x6C65642062792074686520636F PUSH15 0x7472616374206F776E6572A2646970 PUSH7 0x7358221220CFC8 PUSH16 0x201F8F04B23FBE0E9CB9457AB16CF02A 0xAF DUPN 0x57 RETURNDATASIZE SHL BLOBBASEFEE SWAP9 MULMOD KECCAK256 EXTCALL 0xCE PC 0xBB PUSH5 0x736F6C6343 STOP ADDMOD 0x1E STOP CALLER "
				},
				"gasEstimates": {
					"creation": {
						"codeDepositCost": "246000",
						"executionCost": "24549",
						"totalCost": "270549"
					},
					"external": {
						"changeOwner(address)": "26926",
						"owner()": "2529",
						"publicFunction()": "infinite",
						"restrictedFunction()": "infinite"
					}
				},
				"methodIdentifiers": {
					"changeOwner(address)": "a6f9dae1",
					"owner()": "8da5cb5b",
					"publicFunction()": "7b5d520b",
					"restrictedFunction()": "777acf37"
				}
			},
			"storageLayout": {
				"storage": [
					{
						"astId": 3,
						"contract": "lab01-smart-contracts-with-solidity/artifacts/Codes/modifiers.sol:ModifierExample",
						"label": "owner",
						"offset": 0,
						"slot": "0",
						"type": "t_address"
					}
				],
				"types": {
					"t_address": {
						"encoding": "inplace",
						"label": "address",
						"numberOfBytes": "20"
					}
				}
			},
			"userdoc": {
				"kind": "user",
				"methods": {},
				"version": 1
			}
		}
	}
}