{
	"data": {
		"bytecode": {
			"linkReferences": {},
			"object": "608060405234801561000f575f5ffd5b5060405161038d38038061038d833981810160405281019061003191906100a5565b815f819055508060018190555061004c61005960201b60201c565b6002819055505050610151565b5f5f546001546100699190610110565b905090565b5f5ffd5b5f819050919050565b61008481610072565b811461008e575f5ffd5b50565b5f8151905061009f8161007b565b92915050565b5f5f604083850312156100bb576100ba61006e565b5b5f6100c885828601610091565b92505060206100d985828601610091565b9150509250929050565b7f4e487b71000000000000000000000000000000000000000000000000000000005f52601160045260245ffd5b5f61011a82610072565b915061012583610072565b925082820261013381610072565b9150828204841483151761014a576101496100e3565b5b5092915050565b61022f8061015e5f395ff3fe608060405234801561000f575f5ffd5b506004361061004a575f3560e01c80631b3ed7221461004e578063211b848a1461006c57806356377d161461008a5780635ffe6146146100a8575b5f5ffd5b6100566100c4565b6040516100639190610119565b60405180910390f35b6100746100c9565b6040516100819190610119565b60405180910390f35b6100926100cf565b60405161009f9190610119565b60405180910390f35b6100c260048036038101906100bd9190610160565b6100d5565b005b5f5481565b60025481565b60015481565b805f819055506100e36100ec565b60028190555050565b5f5f546001546100fc91906101b8565b905090565b5f819050919050565b61011381610101565b82525050565b5f60208201905061012c5f83018461010a565b92915050565b5f5ffd5b61013f81610101565b8114610149575f5ffd5b50565b5f8135905061015a81610136565b92915050565b5f6020828403121561017557610174610132565b5b5f6101828482850161014c565b91505092915050565b7f4e487b71000000000000000000000000000000000000000000000000000000005f52601160045260245ffd5b5f6101c282610101565b91506101cd83610101565b92508282026101db81610101565b915082820484148315176101f2576101f161018b565b5b509291505056fea2646970667358221220cb76e47ca9cef71591fdd4b184b7dd7177f420a1adbbe2e52d35697e4cd0254764736f6c634300081e0033",
			"opcodes": "PUSH1 0x80 PUSH1 0x40 MSTORE CALLVALUE DUP1 ISZERO PUSH2 0xF JUMPI PUSH0 PUSH0 REVERT JUMPDEST POP PUSH1 0x40 MLOAD PUSH2 0x38D CODESIZE SUB DUP1 PUSH2 0x38D DUP4 CODECOPY DUP2 DUP2 ADD PUSH1 0x40 MSTORE DUP2 ADD SWAP1 PUSH2 0x31 SWAP2 SWAP1 PUSH2 0xA5 JUMP JUMPDEST DUP2 PUSH0 DUP2 SWAP1 SSTORE POP DUP1 PUSH1 0x1 DUP2 SWAP1 SSTORE POP PUSH2 0x4C PUSH2 0x59 PUSH1 0x20 SHL PUSH1 0x20 SHR JUMP JUMPDEST PUSH1 0x2 DUP2 SWAP1 SSTORE POP POP POP PUSH2 0x151 JUMP JUMPDEST PUSH0 PUSH0 SLOAD PUSH1 0x1 SLOAD PUSH2 0x69 SWAP2 SWAP1 PUSH2 0x110 JUMP JUMPDEST SWAP1 POP SWAP1 JUMP JUMPDEST PUSH0 PUSH0 REVERT JUMPDEST PUSH0 DUP2 SWAP1 POP SWAP2 SWAP1 POP JUMP JUMPDEST PUSH2 0x84 DUP2 PUSH2 0x72 JUMP JUMPDEST DUP2 EQ PUSH2 0x8E JUMPI PUSH0 PUSH0 REVERT JUMPDEST POP JUMP JUMPDEST PUSH0 DUP2 MLOAD SWAP1 POP PUSH2 0x9F DUP2 PUSH2 0x7B JUMP JUMPDEST SWAP3 SWAP2 POP POP JUMP JUMPDEST PUSH0 PUSH0 PUSH1 0x40 DUP4 DUP6 SUB SLT ISZERO PUSH2 0xBB JUMPI PUSH2 0xBA PUSH2 0x6E JUMP JUMPDEST JUMPDEST PUSH0 PUSH2 0xC8 DUP6 DUP3 DUP7 ADD PUSH2 0x91 JUMP JUMPDEST SWAP3 POP POP PUSH1 0x20 PUSH2 0xD9 DUP6 DUP3 DUP7 ADD PUSH2 0x91 JUMP JUMPDEST SWAP2 POP POP SWAP3 POP SWAP3 SWAP1 POP JUMP JUMPDEST PUSH32 0x4E487B7100000000000000000000000000000000000000000000000000000000 PUSH0 MSTORE PUSH1 0x11 PUSH1 0x4 MSTORE PUSH1 0x24 PUSH0 REVERT JUMPDEST PUSH0 PUSH2 0x11A DUP3 PUSH2 0x72 JUMP JUMPDEST SWAP2 POP PUSH2 0x125 DUP4 PUSH2 0x72 JUMP JUMPDEST SWAP3 POP DUP3 DUP3 MUL PUSH2 0x133 DUP2 PUSH2 0x72 JUMP JUMPDEST SWAP2 POP DUP3 DUP3 DIV DUP5 EQ DUP4 ISZERO OR PUSH2 0x14A JUMPI PUSH2 0x149 PUSH2 0xE3 JUMP JUMPDEST JUMPDEST POP SWAP3 SWAP2 POP POP JUMP JUMPDEST PUSH2 0x22F DUP1 PUSH2 0x15E PUSH0 CODECOPY PUSH0 RETURN INVALID PUSH1 0x80 PUSH1 0x40 MSTORE CALLVALUE DUP1 ISZERO PUSH2 0xF JUMPI PUSH0 PUSH0 REVERT JUMPDEST POP PUSH1 0x4 CALLDATASIZE LT PUSH2 0x4A JUMPI PUSH0 CALLDATALOAD PUSH1 0xE0 SHR DUP1 PUSH4 0x1B3ED722 EQ PUSH2 0x4E JUMPI DUP1 PUSH4 0x211B848A EQ PUSH2 0x6C JUMPI DUP1 PUSH4 0x56377D16 EQ PUSH2 0x8A JUMPI DUP1 PUSH4 0x5FFE6146 EQ PUSH2 0xA8 JUMPI JUMPDEST PUSH0 PUSH0 REVERT JUMPDEST PUSH2 0x56 PUSH2 0xC4 JUMP JUMPDEST PUSH1 0x40 MLOAD PUSH2 0x63 SWAP2 SWAP1 PUSH2 0x119 JUMP JUMPDEST PUSH1 0x40 MLOAD DUP1 SWAP2 SUB SWAP1 RETURN JUMPDEST PUSH2 0x74 PUSH2 0xC9 JUMP JUMPDEST PUSH1 0x40 MLOAD PUSH2 0x81 SWAP2 SWAP1 PUSH2 0x119 JUMP JUMPDEST PUSH1 0x40 MLOAD DUP1 SWAP2 SUB SWAP1 RETURN JUMPDEST PUSH2 0x92 PUSH2 0xCF JUMP JUMPDEST PUSH1 0x40 MLOAD PUSH2 0x9F SWAP2 SWAP1 PUSH2 0x119 JUMP JUMPDEST PUSH1 0x40 MLOAD DUP1 SWAP2 SUB SWAP1 RETURN JUMPDEST PUSH2 0xC2 PUSH1 0x4 DUP1 CALLDATASIZE SUB DUP2 ADD SWAP1 PUSH2 0xBD SWAP2 SWAP1 PUSH2 0x160 JUMP JUMPDEST PUSH2 0xD5 JUMP JUMPDEST STOP JUMPDEST PUSH0 SLOAD DUP2 JUMP JUMPDEST PUSH1 0x2 SLOAD DUP2 JUMP JUMPDEST PUSH1 0x1 SLOAD DUP2 JUMP JUMPDEST DUP1 PUSH0 DUP2 SWAP1 SSTORE POP PUSH2 0xE3 PUSH2 0xEC JUMP JUMPDEST PUSH1 0x2 DUP2 SWAP1 SSTORE POP POP JUMP JUMPDEST PUSH0 PUSH0 SLOAD PUSH1 0x1 SLOAD PUSH2 0xFC SWAP2 SWAP1 PUSH2 0x1B8 JUMP JUMPDEST SWAP1 POP SWAP1 JUMP JUMPDEST PUSH0 DUP2 SWAP1 POP SWAP2 SWAP1 POP JUMP JUMPDEST PUSH2 0x113 DUP2 PUSH2 0x101 JUMP JUMPDEST DUP3 MSTORE POP POP JUMP JUMPDEST PUSH0 PUSH1 0x20 DUP3 ADD SWAP1 POP PUSH2 0x12C PUSH0 DUP4 ADD DUP5 PUSH2 0x10A JUMP JUMPDEST SWAP3 SWAP2 POP POP JUMP JUMPDEST PUSH0 PUSH0 REVERT JUMPDEST PUSH2 0x13F DUP2 PUSH2 0x101 JUMP JUMPDEST DUP2 EQ PUSH2 0x149 JUMPI PUSH0 PUSH0 REVERT JUMPDEST POP JUMP JUMPDEST PUSH0 DUP2 CALLDATALOAD SWAP1 POP PUSH2 0x15A DUP2 PUSH2 0x136 JUMP JUMPDEST SWAP3 SWAP2 POP POP JUMP JUMPDEST PUSH0 PUSH1 0x20 DUP3 DUP5 SUB SLT ISZERO PUSH2 0x175 JUMPI PUSH2 0x174 PUSH2 0x132 JUMP JUMPDEST JUMPDEST PUSH0 PUSH2 0x182 DUP5 DUP3 DUP6 ADD PUSH2 0x14C JUMP JUMPDEST SWAP2 POP POP SWAP3 SWAP2 POP POP JUMP JUMPDEST PUSH32 0x4E487B7100000000000000000000000000000000000000000000000000000000 PUSH0 MSTORE PUSH1 0x11 PUSH1 0x4 MSTORE PUSH1 0x24 PUSH0 REVERT JUMPDEST PUSH0 PUSH2 0x1C2 DUP3 PUSH2 0x101 JUMP JUMPDEST SWAP2 POP PUSH2 0x1CD DUP4 PUSH2 0x101 JUMP JUMPDEST SWAP3 POP DUP3 DUP3 MUL PUSH2 0x1DB DUP2 PUSH2 0x101 JUMP JUMPDEST SWAP2 POP DUP3 DUP3 DIV DUP5 EQ DUP4 ISZERO OR PUSH2 0x1F2 JUMPI PUSH2 0x1F1 PUSH2 0x18B JUMP JUMPDEST JUMPDEST POP SWAP3 SWAP2 POP POP JUMP INVALID LOG2 PUSH5 0x6970667358 0x22 SLT KECCAK256 0xCB PUSH23 0xE47CA9CEF71591FDD4B184B7DD7177F420A1ADBBE2E52D CALLDATALOAD PUSH10 0x7E4CD0254764736F6C63 NUMBER STOP ADDMOD 0x1E STOP CALLER "
		},
		"gasEstimates": {
			"creation": {
				"codeDepositCost": "111800",
				"executionCost": "infinite",
				"totalCost": "infinite"
			},
			"external": {
				"computedValue()": "2425",
				"initialValue()": "2447",
				"multiplier()": "2402",
				"updateMultiplier(uint256)": "infinite"
			},
			"internal": {
				"compute()": "infinite"
			}
		},
		"methodIdentifiers": {
			"computedValue()": "211b848a",
			"initialValue()": "56377d16",
			"multiplier()": "1b3ed722",
			"updateMultiplier(uint256)": "5ffe6146"
		}
	},
	"abi": [
		{
			"inputs": [
				{
					"internalType": "uint256",
					"name": "_multiplier",
					"type": "uint256"
				},
				{
					"internalType": "uint256",
					"name": "_initialValue",
					"type": "uint256"
				}
			],
			"stateMutability": "nonpayable",
			"type": "constructor"
		},
		{
			"inputs": [],
			"name": "computedValue",
			"outputs": [
				{
					"internalType": "uint256",
					"name": "",
					"type": "uint256"
				}
			],
			"stateMutability": "view",
			"type": "function"
		},
		{
			"inputs": [],
			"name": "initialValue",
			"outputs": [
				{
					"internalType": "uint256",
					"name": "",
					"type": "uint256"
				}
			],
			"stateMutability": "view",
			"type": "function"
		},
		{
			"inputs": [],
			"name": "multiplier",
			"outputs": [
				{
					"internalType": "uint256",
					"name": "",
					"type": "uint256"
				}
			],
			"stateMutability": "view",
			"type": "function"
		},
		{
			"inputs": [
				{
					"internalType": "uint256",
					"name": "newMultiplier",
					"type": "uint256"
				}
			],
			"name": "updateMultiplier",
			"outputs": [],
			"stateMutability": "nonpayable",
			"type": "function"
		}
	]
}