{
	"data": {
		"bytecode": {
			"linkReferences": {},
			"object": "608060405234801561000f575f5ffd5b50604051610ea0380380610ea08339818101604052810190610031919061021d565b825f908161003f9190610490565b50816001819055508060025f6101000a81548160ff02191690831515021790555050505061055f565b5f604051905090565b5f5ffd5b5f5ffd5b5f5ffd5b5f5ffd5b5f601f19601f8301169050919050565b7f4e487b71000000000000000000000000000000000000000000000000000000005f52604160045260245ffd5b6100c782610081565b810181811067ffffffffffffffff821117156100e6576100e5610091565b5b80604052505050565b5f6100f8610068565b905061010482826100be565b919050565b5f67ffffffffffffffff82111561012357610122610091565b5b61012c82610081565b9050602081019050919050565b8281835e5f83830152505050565b5f61015961015484610109565b6100ef565b9050828152602081018484840111156101755761017461007d565b5b610180848285610139565b509392505050565b5f82601f83011261019c5761019b610079565b5b81516101ac848260208601610147565b91505092915050565b5f819050919050565b6101c7816101b5565b81146101d1575f5ffd5b50565b5f815190506101e2816101be565b92915050565b5f8115159050919050565b6101fc816101e8565b8114610206575f5ffd5b50565b5f81519050610217816101f3565b92915050565b5f5f5f6060848603121561023457610233610071565b5b5f84015167ffffffffffffffff81111561025157610250610075565b5b61025d86828701610188565b935050602061026e868287016101d4565b925050604061027f86828701610209565b9150509250925092565b5f81519050919050565b7f4e487b71000000000000000000000000000000000000000000000000000000005f52602260045260245ffd5b5f60028204905060018216806102d757607f821691505b6020821081036102ea576102e9610293565b5b50919050565b5f819050815f5260205f209050919050565b5f6020601f8301049050919050565b5f82821b905092915050565b5f6008830261034c7fffffffffffffffffffffffffffffffffffffffffffffffffffffffffffffffff82610311565b6103568683610311565b95508019841693508086168417925050509392505050565b5f819050919050565b5f61039161038c610387846101b5565b61036e565b6101b5565b9050919050565b5f819050919050565b6103aa83610377565b6103be6103b682610398565b84845461031d565b825550505050565b5f5f905090565b6103d56103c6565b6103e08184846103a1565b505050565b5b81811015610403576103f85f826103cd565b6001810190506103e6565b5050565b601f82111561044857610419816102f0565b61042284610302565b81016020851015610431578190505b61044561043d85610302565b8301826103e5565b50505b505050565b5f82821c905092915050565b5f6104685f198460080261044d565b1980831691505092915050565b5f6104808383610459565b9150826002028217905092915050565b61049982610289565b67ffffffffffffffff8111156104b2576104b1610091565b5b6104bc82546102c0565b6104c7828285610407565b5f60209050601f8311600181146104f8575f84156104e6578287015190505b6104f08582610475565b865550610557565b601f198416610506866102f0565b5f5b8281101561052d57848901518255600182019150602085019450602081019050610508565b8683101561054a5784890151610546601f891682610459565b8355505b6001600288020188555050505b505050505050565b6109348061056c5f395ff3fe608060405234801561000f575f5ffd5b506004361061007b575f3560e01c806334d243831161005957806334d24383146100d95780637d625c07146100f957806384da92a7146101155780638ba7fe81146101315761007b565b806306fdde031461007f57806322f3e2d41461009d578063262a9dff146100bb575b5f5ffd5b61008761014d565b6040516100949190610344565b60405180910390f35b6100a56101d8565b6040516100b2919061037e565b60405180910390f35b6100c36101ea565b6040516100d091906103af565b60405180910390f35b6100e16101f0565b6040516100f0939291906103c8565b60405180910390f35b610113600480360381019061010e919061043f565b61029c565b005b61012f600480360381019061012a9190610596565b6102a6565b005b61014b60048036038101906101469190610607565b6102b8565b005b5f80546101599061065f565b80601f01602080910402602001604051908101604052809291908181526020018280546101859061065f565b80156101d05780601f106101a7576101008083540402835291602001916101d0565b820191905f5260205f20905b8154815290600101906020018083116101b357829003601f168201915b505050505081565b60025f9054906101000a900460ff1681565b60015481565b60605f5f5f60015460025f9054906101000a900460ff168280546102139061065f565b80601f016020809104026020016040519081016040528092919081815260200182805461023f9061065f565b801561028a5780601f106102615761010080835404028352916020019161028a565b820191905f5260205f20905b81548152906001019060200180831161026d57829003601f168201915b50505050509250925092509250909192565b8060018190555050565b805f90816102b4919061082f565b5050565b8060025f6101000a81548160ff02191690831515021790555050565b5f81519050919050565b5f82825260208201905092915050565b8281835e5f83830152505050565b5f601f19601f8301169050919050565b5f610316826102d4565b61032081856102de565b93506103308185602086016102ee565b610339816102fc565b840191505092915050565b5f6020820190508181035f83015261035c818461030c565b905092915050565b5f8115159050919050565b61037881610364565b82525050565b5f6020820190506103915f83018461036f565b92915050565b5f819050919050565b6103a981610397565b82525050565b5f6020820190506103c25f8301846103a0565b92915050565b5f6060820190508181035f8301526103e0818661030c565b90506103ef60208301856103a0565b6103fc604083018461036f565b949350505050565b5f604051905090565b5f5ffd5b5f5ffd5b61041e81610397565b8114610428575f5ffd5b50565b5f8135905061043981610415565b92915050565b5f602082840312156104545761045361040d565b5b5f6104618482850161042b565b91505092915050565b5f5ffd5b5f5ffd5b7f4e487b71000000000000000000000000000000000000000000000000000000005f52604160045260245ffd5b6104a8826102fc565b810181811067ffffffffffffffff821117156104c7576104c6610472565b5b80604052505050565b5f6104d9610404565b90506104e5828261049f565b919050565b5f67ffffffffffffffff82111561050457610503610472565b5b61050d826102fc565b9050602081019050919050565b828183375f83830152505050565b5f61053a610535846104ea565b6104d0565b9050828152602081018484840111156105565761055561046e565b5b61056184828561051a565b509392505050565b5f82601f83011261057d5761057c61046a565b5b813561058d848260208601610528565b91505092915050565b5f602082840312156105ab576105aa61040d565b5b5f82013567ffffffffffffffff8111156105c8576105c7610411565b5b6105d484828501610569565b91505092915050565b6105e681610364565b81146105f0575f5ffd5b50565b5f81359050610601816105dd565b92915050565b5f6020828403121561061c5761061b61040d565b5b5f610629848285016105f3565b91505092915050565b7f4e487b71000000000000000000000000000000000000000000000000000000005f52602260045260245ffd5b5f600282049050600182168061067657607f821691505b60208210810361068957610688610632565b5b50919050565b5f819050815f5260205f209050919050565b5f6020601f8301049050919050565b5f82821b905092915050565b5f600883026106eb7fffffffffffffffffffffffffffffffffffffffffffffffffffffffffffffffff826106b0565b6106f586836106b0565b95508019841693508086168417925050509392505050565b5f819050919050565b5f61073061072b61072684610397565b61070d565b610397565b9050919050565b5f819050919050565b61074983610716565b61075d61075582610737565b8484546106bc565b825550505050565b5f5f905090565b610774610765565b61077f818484610740565b505050565b5b818110156107a2576107975f8261076c565b600181019050610785565b5050565b601f8211156107e7576107b88161068f565b6107c1846106a1565b810160208510156107d0578190505b6107e46107dc856106a1565b830182610784565b50505b505050565b5f82821c905092915050565b5f6108075f19846008026107ec565b1980831691505092915050565b5f61081f83836107f8565b9150826002028217905092915050565b610838826102d4565b67ffffffffffffffff81111561085157610850610472565b5b61085b825461065f565b6108668282856107a6565b5f60209050601f831160018114610897575f8415610885578287015190505b61088f8582610814565b8655506108f6565b601f1984166108a58661068f565b5f5b828110156108cc578489015182556001820191506020850194506020810190506108a7565b868310156108e957848901516108e5601f8916826107f8565b8355505b6001600288020188555050505b50505050505056fea264697066735822122008f177dde518d71fde5d14c7108a499bd86ce8a0016a8cefd9ed82e34a97286c64736f6c634300081e0033",
			"opcodes": "PUSH1 0x80 PUSH1 0x40 MSTORE CALLVALUE DUP1 ISZERO PUSH2 0xF JUMPI PUSH0 PUSH0 REVERT JUMPDEST POP PUSH1 0x40 MLOAD PUSH2 0xEA0 CODESIZE SUB DUP1 PUSH2 0xEA0 DUP4 CODECOPY DUP2 DUP2 ADD PUSH1 0x40 MSTORE DUP2 ADD SWAP1 PUSH2 0x31 SWAP2 SWAP1 PUSH2 0x21D JUMP JUMPDEST DUP3 PUSH0 SWAP1 DUP2 PUSH2 0x3F SWAP2 SWAP1 PUSH2 0x490 JUMP JUMPDEST POP DUP2 PUSH1 0x1 DUP2 SWAP1 SSTORE POP DUP1 PUSH1 0x2 PUSH0 PUSH2 0x100 EXP DUP2 SLOAD DUP2 PUSH1 0xFF MUL NOT AND SWAP1 DUP4 ISZERO ISZERO MUL OR SWAP1 SSTORE POP POP POP POP PUSH2 0x55F JUMP JUMPDEST PUSH0 PUSH1 0x40 MLOAD SWAP1 POP SWAP1 JUMP JUMPDEST PUSH0 PUSH0 REVERT JUMPDEST PUSH0 PUSH0 REVERT JUMPDEST PUSH0 PUSH0 REVERT JUMPDEST PUSH0 PUSH0 REVERT JUMPDEST PUSH0 PUSH1 0x1F NOT PUSH1 0x1F DUP4 ADD AND SWAP1 POP SWAP2 SWAP1 POP JUMP JUMPDEST PUSH32 0x4E487B7100000000000000000000000000000000000000000000000000000000 PUSH0 MSTORE PUSH1 0x41 PUSH1 0x4 MSTORE PUSH1 0x24 PUSH0 REVERT JUMPDEST PUSH2 0xC7 DUP3 PUSH2 0x81 JUMP JUMPDEST DUP2 ADD DUP2 DUP2 LT PUSH8 0xFFFFFFFFFFFFFFFF DUP3 GT OR ISZERO PUSH2 0xE6 JUMPI PUSH2 0xE5 PUSH2 0x91 JUMP JUMPDEST JUMPDEST DUP1 PUSH1 0x40 MSTORE POP POP POP JUMP JUMPDEST PUSH0 PUSH2 0xF8 PUSH2 0x68 JUMP JUMPDEST SWAP1 POP PUSH2 0x104 DUP3 DUP3 PUSH2 0xBE JUMP JUMPDEST SWAP2 SWAP1 POP JUMP JUMPDEST PUSH0 PUSH8 0xFFFFFFFFFFFFFFFF DUP3 GT ISZERO PUSH2 0x123 JUMPI PUSH2 0x122 PUSH2 0x91 JUMP JUMPDEST JUMPDEST PUSH2 0x12C DUP3 PUSH2 0x81 JUMP JUMPDEST SWAP1 POP PUSH1 0x20 DUP2 ADD SWAP1 POP SWAP2 SWAP1 POP JUMP JUMPDEST DUP3 DUP2 DUP4 MCOPY PUSH0 DUP4 DUP4 ADD MSTORE POP POP POP JUMP JUMPDEST PUSH0 PUSH2 0x159 PUSH2 0x154 DUP5 PUSH2 0x109 JUMP JUMPDEST PUSH2 0xEF JUMP JUMPDEST SWAP1 POP DUP3 DUP2 MSTORE PUSH1 0x20 DUP2 ADD DUP5 DUP5 DUP5 ADD GT ISZERO PUSH2 0x175 JUMPI PUSH2 0x174 PUSH2 0x7D JUMP JUMPDEST JUMPDEST PUSH2 0x180 DUP5 DUP3 DUP6 PUSH2 0x139 JUMP JUMPDEST POP SWAP4 SWAP3 POP POP POP JUMP JUMPDEST PUSH0 DUP3 PUSH1 0x1F DUP4 ADD SLT PUSH2 0x19C JUMPI PUSH2 0x19B PUSH2 0x79 JUMP JUMPDEST JUMPDEST DUP2 MLOAD PUSH2 0x1AC DUP5 DUP3 PUSH1 0x20 DUP7 ADD PUSH2 0x147 JUMP JUMPDEST SWAP2 POP POP SWAP3 SWAP2 POP POP JUMP JUMPDEST PUSH0 DUP2 SWAP1 POP SWAP2 SWAP1 POP JUMP JUMPDEST PUSH2 0x1C7 DUP2 PUSH2 0x1B5 JUMP JUMPDEST DUP2 EQ PUSH2 0x1D1 JUMPI PUSH0 PUSH0 REVERT JUMPDEST POP JUMP JUMPDEST PUSH0 DUP2 MLOAD SWAP1 POP PUSH2 0x1E2 DUP2 PUSH2 0x1BE JUMP JUMPDEST SWAP3 SWAP2 POP POP JUMP JUMPDEST PUSH0 DUP2 ISZERO ISZERO SWAP1 POP SWAP2 SWAP1 POP JUMP JUMPDEST PUSH2 0x1FC DUP2 PUSH2 0x1E8 JUMP JUMPDEST DUP2 EQ PUSH2 0x206 JUMPI PUSH0 PUSH0 REVERT JUMPDEST POP JUMP JUMPDEST PUSH0 DUP2 MLOAD SWAP1 POP PUSH2 0x217 DUP2 PUSH2 0x1F3 JUMP JUMPDEST SWAP3 SWAP2 POP POP JUMP JUMPDEST PUSH0 PUSH0 PUSH0 PUSH1 0x60 DUP5 DUP7 SUB SLT ISZERO PUSH2 0x234 JUMPI PUSH2 0x233 PUSH2 0x71 JUMP JUMPDEST JUMPDEST PUSH0 DUP5 ADD MLOAD PUSH8 0xFFFFFFFFFFFFFFFF DUP2 GT ISZERO PUSH2 0x251 JUMPI PUSH2 0x250 PUSH2 0x75 JUMP JUMPDEST JUMPDEST PUSH2 0x25D DUP7 DUP3 DUP8 ADD PUSH2 0x188 JUMP JUMPDEST SWAP4 POP POP PUSH1 0x20 PUSH2 0x26E DUP7 DUP3 DUP8 ADD PUSH2 0x1D4 JUMP JUMPDEST SWAP3 POP POP PUSH1 0x40 PUSH2 0x27F DUP7 DUP3 DUP8 ADD PUSH2 0x209 JUMP JUMPDEST SWAP2 POP POP SWAP3 POP SWAP3 POP SWAP3 JUMP JUMPDEST PUSH0 DUP2 MLOAD SWAP1 POP SWAP2 SWAP1 POP JUMP JUMPDEST PUSH32 0x4E487B7100000000000000000000000000000000000000000000000000000000 PUSH0 MSTORE PUSH1 0x22 PUSH1 0x4 MSTORE PUSH1 0x24 PUSH0 REVERT JUMPDEST PUSH0 PUSH1 0x2 DUP3 DIV SWAP1 POP PUSH1 0x1 DUP3 AND DUP1 PUSH2 0x2D7 JUMPI PUSH1 0x7F DUP3 AND SWAP2 POP JUMPDEST PUSH1 0x20 DUP3 LT DUP2 SUB PUSH2 0x2EA JUMPI PUSH2 0x2E9 PUSH2 0x293 JUMP JUMPDEST JUMPDEST POP SWAP2 SWAP1 POP JUMP JUMPDEST PUSH0 DUP2 SWAP1 POP DUP2 PUSH0 MSTORE PUSH1 0x20 PUSH0 KECCAK256 SWAP1 POP SWAP2 SWAP1 POP JUMP JUMPDEST PUSH0 PUSH1 0x20 PUSH1 0x1F DUP4 ADD DIV SWAP1 POP SWAP2 SWAP1 POP JUMP JUMPDEST PUSH0 DUP3 DUP3 SHL SWAP1 POP SWAP3 SWAP2 POP POP JUMP JUMPDEST PUSH0 PUSH1 0x8 DUP4 MUL PUSH2 0x34C PUSH32 0xFFFFFFFFFFFFFFFFFFFFFFFFFFFFFFFFFFFFFFFFFFFFFFFFFFFFFFFFFFFFFFFF DUP3 PUSH2 0x311 JUMP JUMPDEST PUSH2 0x356 DUP7 DUP4 PUSH2 0x311 JUMP JUMPDEST SWAP6 POP DUP1 NOT DUP5 AND SWAP4 POP DUP1 DUP7 AND DUP5 OR SWAP3 POP POP POP SWAP4 SWAP3 POP POP POP JUMP JUMPDEST PUSH0 DUP2 SWAP1 POP SWAP2 SWAP1 POP JUMP JUMPDEST PUSH0 PUSH2 0x391 PUSH2 0x38C PUSH2 0x387 DUP5 PUSH2 0x1B5 JUMP JUMPDEST PUSH2 0x36E JUMP JUMPDEST PUSH2 0x1B5 JUMP JUMPDEST SWAP1 POP SWAP2 SWAP1 POP JUMP JUMPDEST PUSH0 DUP2 SWAP1 POP SWAP2 SWAP1 POP JUMP JUMPDEST PUSH2 0x3AA DUP4 PUSH2 0x377 JUMP JUMPDEST PUSH2 0x3BE PUSH2 0x3B6 DUP3 PUSH2 0x398 JUMP JUMPDEST DUP5 DUP5 SLOAD PUSH2 0x31D JUMP JUMPDEST DUP3 SSTORE POP POP POP POP JUMP JUMPDEST PUSH0 PUSH0 SWAP1 POP SWAP1 JUMP JUMPDEST PUSH2 0x3D5 PUSH2 0x3C6 JUMP JUMPDEST PUSH2 0x3E0 DUP2 DUP5 DUP5 PUSH2 0x3A1 JUMP JUMPDEST POP POP POP JUMP JUMPDEST JUMPDEST DUP2 DUP2 LT ISZERO PUSH2 0x403 JUMPI PUSH2 0x3F8 PUSH0 DUP3 PUSH2 0x3CD JUMP JUMPDEST PUSH1 0x1 DUP2 ADD SWAP1 POP PUSH2 0x3E6 JUMP JUMPDEST POP POP JUMP JUMPDEST PUSH1 0x1F DUP3 GT ISZERO PUSH2 0x448 JUMPI PUSH2 0x419 DUP2 PUSH2 0x2F0 JUMP JUMPDEST PUSH2 0x422 DUP5 PUSH2 0x302 JUMP JUMPDEST DUP2 ADD PUSH1 0x20 DUP6 LT ISZERO PUSH2 0x431 JUMPI DUP2 SWAP1 POP JUMPDEST PUSH2 0x445 PUSH2 0x43D DUP6 PUSH2 0x302 JUMP JUMPDEST DUP4 ADD DUP3 PUSH2 0x3E5 JUMP JUMPDEST POP POP JUMPDEST POP POP POP JUMP JUMPDEST PUSH0 DUP3 DUP3 SHR SWAP1 POP SWAP3 SWAP2 POP POP JUMP JUMPDEST PUSH0 PUSH2 0x468 PUSH0 NOT DUP5 PUSH1 0x8 MUL PUSH2 0x44D JUMP JUMPDEST NOT DUP1 DUP4 AND SWAP2 POP POP SWAP3 SWAP2 POP POP JUMP JUMPDEST PUSH0 PUSH2 0x480 DUP4 DUP4 PUSH2 0x459 JUMP JUMPDEST SWAP2 POP DUP3 PUSH1 0x2 MUL DUP3 OR SWAP1 POP SWAP3 SWAP2 POP POP JUMP JUMPDEST PUSH2 0x499 DUP3 PUSH2 0x289 JUMP JUMPDEST PUSH8 0xFFFFFFFFFFFFFFFF DUP2 GT ISZERO PUSH2 0x4B2 JUMPI PUSH2 0x4B1 PUSH2 0x91 JUMP JUMPDEST JUMPDEST PUSH2 0x4BC DUP3 SLOAD PUSH2 0x2C0 JUMP JUMPDEST PUSH2 0x4C7 DUP3 DUP3 DUP6 PUSH2 0x407 JUMP JUMPDEST PUSH0 PUSH1 0x20 SWAP1 POP PUSH1 0x1F DUP4 GT PUSH1 0x1 DUP2 EQ PUSH2 0x4F8 JUMPI PUSH0 DUP5 ISZERO PUSH2 0x4E6 JUMPI DUP3 DUP8 ADD MLOAD SWAP1 POP JUMPDEST PUSH2 0x4F0 DUP6 DUP3 PUSH2 0x475 JUMP JUMPDEST DUP7 SSTORE POP PUSH2 0x557 JUMP JUMPDEST PUSH1 0x1F NOT DUP5 AND PUSH2 0x506 DUP7 PUSH2 0x2F0 JUMP JUMPDEST PUSH0 JUMPDEST DUP3 DUP2 LT ISZERO PUSH2 0x52D JUMPI DUP5 DUP10 ADD MLOAD DUP3 SSTORE PUSH1 0x1 DUP3 ADD SWAP2 POP PUSH1 0x20 DUP6 ADD SWAP5 POP PUSH1 0x20 DUP2 ADD SWAP1 POP PUSH2 0x508 JUMP JUMPDEST DUP7 DUP4 LT ISZERO PUSH2 0x54A JUMPI DUP5 DUP10 ADD MLOAD PUSH2 0x546 PUSH1 0x1F DUP10 AND DUP3 PUSH2 0x459 JUMP JUMPDEST DUP4 SSTORE POP JUMPDEST PUSH1 0x1 PUSH1 0x2 DUP9 MUL ADD DUP9 SSTORE POP POP POP JUMPDEST POP POP POP POP POP POP JUMP JUMPDEST PUSH2 0x934 DUP1 PUSH2 0x56C PUSH0 CODECOPY PUSH0 RETURN INVALID PUSH1 0x80 PUSH1 0x40 MSTORE CALLVALUE DUP1 ISZERO PUSH2 0xF JUMPI PUSH0 PUSH0 REVERT JUMPDEST POP PUSH1 0x4 CALLDATASIZE LT PUSH2 0x7B JUMPI PUSH0 CALLDATALOAD PUSH1 0xE0 SHR DUP1 PUSH4 0x34D24383 GT PUSH2 0x59 JUMPI DUP1 PUSH4 0x34D24383 EQ PUSH2 0xD9 JUMPI DUP1 PUSH4 0x7D625C07 EQ PUSH2 0xF9 JUMPI DUP1 PUSH4 0x84DA92A7 EQ PUSH2 0x115 JUMPI DUP1 PUSH4 0x8BA7FE81 EQ PUSH2 0x131 JUMPI PUSH2 0x7B JUMP JUMPDEST DUP1 PUSH4 0x6FDDE03 EQ PUSH2 0x7F JUMPI DUP1 PUSH4 0x22F3E2D4 EQ PUSH2 0x9D JUMPI DUP1 PUSH4 0x262A9DFF EQ PUSH2 0xBB JUMPI JUMPDEST PUSH0 PUSH0 REVERT JUMPDEST PUSH2 0x87 PUSH2 0x14D JUMP JUMPDEST PUSH1 0x40 MLOAD PUSH2 0x94 SWAP2 SWAP1 PUSH2 0x344 JUMP JUMPDEST PUSH1 0x40 MLOAD DUP1 SWAP2 SUB SWAP1 RETURN JUMPDEST PUSH2 0xA5 PUSH2 0x1D8 JUMP JUMPDEST PUSH1 0x40 MLOAD PUSH2 0xB2 SWAP2 SWAP1 PUSH2 0x37E JUMP JUMPDEST PUSH1 0x40 MLOAD DUP1 SWAP2 SUB SWAP1 RETURN JUMPDEST PUSH2 0xC3 PUSH2 0x1EA JUMP JUMPDEST PUSH1 0x40 MLOAD PUSH2 0xD0 SWAP2 SWAP1 PUSH2 0x3AF JUMP JUMPDEST PUSH1 0x40 MLOAD DUP1 SWAP2 SUB SWAP1 RETURN JUMPDEST PUSH2 0xE1 PUSH2 0x1F0 JUMP JUMPDEST PUSH1 0x40 MLOAD PUSH2 0xF0 SWAP4 SWAP3 SWAP2 SWAP1 PUSH2 0x3C8 JUMP JUMPDEST PUSH1 0x40 MLOAD DUP1 SWAP2 SUB SWAP1 RETURN JUMPDEST PUSH2 0x113 PUSH1 0x4 DUP1 CALLDATASIZE SUB DUP2 ADD SWAP1 PUSH2 0x10E SWAP2 SWAP1 PUSH2 0x43F JUMP JUMPDEST PUSH2 0x29C JUMP JUMPDEST STOP JUMPDEST PUSH2 0x12F PUSH1 0x4 DUP1 CALLDATASIZE SUB DUP2 ADD SWAP1 PUSH2 0x12A SWAP2 SWAP1 PUSH2 0x596 JUMP JUMPDEST PUSH2 0x2A6 JUMP JUMPDEST STOP JUMPDEST PUSH2 0x14B PUSH1 0x4 DUP1 CALLDATASIZE SUB DUP2 ADD SWAP1 PUSH2 0x146 SWAP2 SWAP1 PUSH2 0x607 JUMP JUMPDEST PUSH2 0x2B8 JUMP JUMPDEST STOP JUMPDEST PUSH0 DUP1 SLOAD PUSH2 0x159 SWAP1 PUSH2 0x65F JUMP JUMPDEST DUP1 PUSH1 0x1F ADD PUSH1 0x20 DUP1 SWAP2 DIV MUL PUSH1 0x20 ADD PUSH1 0x40 MLOAD SWAP1 DUP2 ADD PUSH1 0x40 MSTORE DUP1 SWAP3 SWAP2 SWAP1 DUP2 DUP2 MSTORE PUSH1 0x20 ADD DUP3 DUP1 SLOAD PUSH2 0x185 SWAP1 PUSH2 0x65F JUMP JUMPDEST DUP1 ISZERO PUSH2 0x1D0 JUMPI DUP1 PUSH1 0x1F LT PUSH2 0x1A7 JUMPI PUSH2 0x100 DUP1 DUP4 SLOAD DIV MUL DUP4 MSTORE SWAP2 PUSH1 0x20 ADD SWAP2 PUSH2 0x1D0 JUMP JUMPDEST DUP3 ADD SWAP2 SWAP1 PUSH0 MSTORE PUSH1 0x20 PUSH0 KECCAK256 SWAP1 JUMPDEST DUP2 SLOAD DUP2 MSTORE SWAP1 PUSH1 0x1 ADD SWAP1 PUSH1 0x20 ADD DUP1 DUP4 GT PUSH2 0x1B3 JUMPI DUP3 SWAP1 SUB PUSH1 0x1F AND DUP3 ADD SWAP2 JUMPDEST POP POP POP POP POP DUP2 JUMP JUMPDEST PUSH1 0x2 PUSH0 SWAP1 SLOAD SWAP1 PUSH2 0x100 EXP SWAP1 DIV PUSH1 0xFF AND DUP2 JUMP JUMPDEST PUSH1 0x1 SLOAD DUP2 JUMP JUMPDEST PUSH1 0x60 PUSH0 PUSH0 PUSH0 PUSH1 0x1 SLOAD PUSH1 0x2 PUSH0 SWAP1 SLOAD SWAP1 PUSH2 0x100 EXP SWAP1 DIV PUSH1 0xFF AND DUP3 DUP1 SLOAD PUSH2 0x213 SWAP1 PUSH2 0x65F JUMP JUMPDEST DUP1 PUSH1 0x1F ADD PUSH1 0x20 DUP1 SWAP2 DIV MUL PUSH1 0x20 ADD PUSH1 0x40 MLOAD SWAP1 DUP2 ADD PUSH1 0x40 MSTORE DUP1 SWAP3 SWAP2 SWAP1 DUP2 DUP2 MSTORE PUSH1 0x20 ADD DUP3 DUP1 SLOAD PUSH2 0x23F SWAP1 PUSH2 0x65F JUMP JUMPDEST DUP1 ISZERO PUSH2 0x28A JUMPI DUP1 PUSH1 0x1F LT PUSH2 0x261 JUMPI PUSH2 0x100 DUP1 DUP4 SLOAD DIV MUL DUP4 MSTORE SWAP2 PUSH1 0x20 ADD SWAP2 PUSH2 0x28A JUMP JUMPDEST DUP3 ADD SWAP2 SWAP1 PUSH0 MSTORE PUSH1 0x20 PUSH0 KECCAK256 SWAP1 JUMPDEST DUP2 SLOAD DUP2 MSTORE SWAP1 PUSH1 0x1 ADD SWAP1 PUSH1 0x20 ADD DUP1 DUP4 GT PUSH2 0x26D JUMPI DUP3 SWAP1 SUB PUSH1 0x1F AND DUP3 ADD SWAP2 JUMPDEST POP POP POP POP POP SWAP3 POP SWAP3 POP SWAP3 POP SWAP3 POP SWAP1 SWAP2 SWAP3 JUMP JUMPDEST DUP1 PUSH1 0x1 DUP2 SWAP1 SSTORE POP POP JUMP JUMPDEST DUP1 PUSH0 SWAP1 DUP2 PUSH2 0x2B4 SWAP2 SWAP1 PUSH2 0x82F JUMP JUMPDEST POP POP JUMP JUMPDEST DUP1 PUSH1 0x2 PUSH0 PUSH2 0x100 EXP DUP2 SLOAD DUP2 PUSH1 0xFF MUL NOT AND SWAP1 DUP4 ISZERO ISZERO MUL OR SWAP1 SSTORE POP POP JUMP JUMPDEST PUSH0 DUP2 MLOAD SWAP1 POP SWAP2 SWAP1 POP JUMP JUMPDEST PUSH0 DUP3 DUP3 MSTORE PUSH1 0x20 DUP3 ADD SWAP1 POP SWAP3 SWAP2 POP POP JUMP JUMPDEST DUP3 DUP2 DUP4 MCOPY PUSH0 DUP4 DUP4 ADD MSTORE POP POP POP JUMP JUMPDEST PUSH0 PUSH1 0x1F NOT PUSH1 0x1F DUP4 ADD AND SWAP1 POP SWAP2 SWAP1 POP JUMP JUMPDEST PUSH0 PUSH2 0x316 DUP3 PUSH2 0x2D4 JUMP JUMPDEST PUSH2 0x320 DUP2 DUP6 PUSH2 0x2DE JUMP JUMPDEST SWAP4 POP PUSH2 0x330 DUP2 DUP6 PUSH1 0x20 DUP7 ADD PUSH2 0x2EE JUMP JUMPDEST PUSH2 0x339 DUP2 PUSH2 0x2FC JUMP JUMPDEST DUP5 ADD SWAP2 POP POP SWAP3 SWAP2 POP POP JUMP JUMPDEST PUSH0 PUSH1 0x20 DUP3 ADD SWAP1 POP DUP2 DUP2 SUB PUSH0 DUP4 ADD MSTORE PUSH2 0x35C DUP2 DUP5 PUSH2 0x30C JUMP JUMPDEST SWAP1 POP SWAP3 SWAP2 POP POP JUMP JUMPDEST PUSH0 DUP2 ISZERO ISZERO SWAP1 POP SWAP2 SWAP1 POP JUMP JUMPDEST PUSH2 0x378 DUP2 PUSH2 0x364 JUMP JUMPDEST DUP3 MSTORE POP POP JUMP JUMPDEST PUSH0 PUSH1 0x20 DUP3 ADD SWAP1 POP PUSH2 0x391 PUSH0 DUP4 ADD DUP5 PUSH2 0x36F JUMP JUMPDEST SWAP3 SWAP2 POP POP JUMP JUMPDEST PUSH0 DUP2 SWAP1 POP SWAP2 SWAP1 POP JUMP JUMPDEST PUSH2 0x3A9 DUP2 PUSH2 0x397 JUMP JUMPDEST DUP3 MSTORE POP POP JUMP JUMPDEST PUSH0 PUSH1 0x20 DUP3 ADD SWAP1 POP PUSH2 0x3C2 PUSH0 DUP4 ADD DUP5 PUSH2 0x3A0 JUMP JUMPDEST SWAP3 SWAP2 POP POP JUMP JUMPDEST PUSH0 PUSH1 0x60 DUP3 ADD SWAP1 POP DUP2 DUP2 SUB PUSH0 DUP4 ADD MSTORE PUSH2 0x3E0 DUP2 DUP7 PUSH2 0x30C JUMP JUMPDEST SWAP1 POP PUSH2 0x3EF PUSH1 0x20 DUP4 ADD DUP6 PUSH2 0x3A0 JUMP JUMPDEST PUSH2 0x3FC PUSH1 0x40 DUP4 ADD DUP5 PUSH2 0x36F JUMP JUMPDEST SWAP5 SWAP4 POP POP POP POP JUMP JUMPDEST PUSH0 PUSH1 0x40 MLOAD SWAP1 POP SWAP1 JUMP JUMPDEST PUSH0 PUSH0 REVERT JUMPDEST PUSH0 PUSH0 REVERT JUMPDEST PUSH2 0x41E DUP2 PUSH2 0x397 JUMP JUMPDEST DUP2 EQ PUSH2 0x428 JUMPI PUSH0 PUSH0 REVERT JUMPDEST POP JUMP JUMPDEST PUSH0 DUP2 CALLDATALOAD SWAP1 POP PUSH2 0x439 DUP2 PUSH2 0x415 JUMP JUMPDEST SWAP3 SWAP2 POP POP JUMP JUMPDEST PUSH0 PUSH1 0x20 DUP3 DUP5 SUB SLT ISZERO PUSH2 0x454 JUMPI PUSH2 0x453 PUSH2 0x40D JUMP JUMPDEST JUMPDEST PUSH0 PUSH2 0x461 DUP5 DUP3 DUP6 ADD PUSH2 0x42B JUMP JUMPDEST SWAP2 POP POP SWAP3 SWAP2 POP POP JUMP JUMPDEST PUSH0 PUSH0 REVERT JUMPDEST PUSH0 PUSH0 REVERT JUMPDEST PUSH32 0x4E487B7100000000000000000000000000000000000000000000000000000000 PUSH0 MSTORE PUSH1 0x41 PUSH1 0x4 MSTORE PUSH1 0x24 PUSH0 REVERT JUMPDEST PUSH2 0x4A8 DUP3 PUSH2 0x2FC JUMP JUMPDEST DUP2 ADD DUP2 DUP2 LT PUSH8 0xFFFFFFFFFFFFFFFF DUP3 GT OR ISZERO PUSH2 0x4C7 JUMPI PUSH2 0x4C6 PUSH2 0x472 JUMP JUMPDEST JUMPDEST DUP1 PUSH1 0x40 MSTORE POP POP POP JUMP JUMPDEST PUSH0 PUSH2 0x4D9 PUSH2 0x404 JUMP JUMPDEST SWAP1 POP PUSH2 0x4E5 DUP3 DUP3 PUSH2 0x49F JUMP JUMPDEST SWAP2 SWAP1 POP JUMP JUMPDEST PUSH0 PUSH8 0xFFFFFFFFFFFFFFFF DUP3 GT ISZERO PUSH2 0x504 JUMPI PUSH2 0x503 PUSH2 0x472 JUMP JUMPDEST JUMPDEST PUSH2 0x50D DUP3 PUSH2 0x2FC JUMP JUMPDEST SWAP1 POP PUSH1 0x20 DUP2 ADD SWAP1 POP SWAP2 SWAP1 POP JUMP JUMPDEST DUP3 DUP2 DUP4 CALLDATACOPY PUSH0 DUP4 DUP4 ADD MSTORE POP POP POP JUMP JUMPDEST PUSH0 PUSH2 0x53A PUSH2 0x535 DUP5 PUSH2 0x4EA JUMP JUMPDEST PUSH2 0x4D0 JUMP JUMPDEST SWAP1 POP DUP3 DUP2 MSTORE PUSH1 0x20 DUP2 ADD DUP5 DUP5 DUP5 ADD GT ISZERO PUSH2 0x556 JUMPI PUSH2 0x555 PUSH2 0x46E JUMP JUMPDEST JUMPDEST PUSH2 0x561 DUP5 DUP3 DUP6 PUSH2 0x51A JUMP JUMPDEST POP SWAP4 SWAP3 POP POP POP JUMP JUMPDEST PUSH0 DUP3 PUSH1 0x1F DUP4 ADD SLT PUSH2 0x57D JUMPI PUSH2 0x57C PUSH2 0x46A JUMP JUMPDEST JUMPDEST DUP2 CALLDATALOAD PUSH2 0x58D DUP5 DUP3 PUSH1 0x20 DUP7 ADD PUSH2 0x528 JUMP JUMPDEST SWAP2 POP POP SWAP3 SWAP2 POP POP JUMP JUMPDEST PUSH0 PUSH1 0x20 DUP3 DUP5 SUB SLT ISZERO PUSH2 0x5AB JUMPI PUSH2 0x5AA PUSH2 0x40D JUMP JUMPDEST JUMPDEST PUSH0 DUP3 ADD CALLDATALOAD PUSH8 0xFFFFFFFFFFFFFFFF DUP2 GT ISZERO PUSH2 0x5C8 JUMPI PUSH2 0x5C7 PUSH2 0x411 JUMP JUMPDEST JUMPDEST PUSH2 0x5D4 DUP5 DUP3 DUP6 ADD PUSH2 0x569 JUMP JUMPDEST SWAP2 POP POP SWAP3 SWAP2 POP POP JUMP JUMPDEST PUSH2 0x5E6 DUP2 PUSH2 0x364 JUMP JUMPDEST DUP2 EQ PUSH2 0x5F0 JUMPI PUSH0 PUSH0 REVERT JUMPDEST POP JUMP JUMPDEST PUSH0 DUP2 CALLDATALOAD SWAP1 POP PUSH2 0x601 DUP2 PUSH2 0x5DD JUMP JUMPDEST SWAP3 SWAP2 POP POP JUMP JUMPDEST PUSH0 PUSH1 0x20 DUP3 DUP5 SUB SLT ISZERO PUSH2 0x61C JUMPI PUSH2 0x61B PUSH2 0x40D JUMP JUMPDEST JUMPDEST PUSH0 PUSH2 0x629 DUP5 DUP3 DUP6 ADD PUSH2 0x5F3 JUMP JUMPDEST SWAP2 POP POP SWAP3 SWAP2 POP POP JUMP JUMPDEST PUSH32 0x4E487B7100000000000000000000000000000000000000000000000000000000 PUSH0 MSTORE PUSH1 0x22 PUSH1 0x4 MSTORE PUSH1 0x24 PUSH0 REVERT JUMPDEST PUSH0 PUSH1 0x2 DUP3 DIV SWAP1 POP PUSH1 0x1 DUP3 AND DUP1 PUSH2 0x676 JUMPI PUSH1 0x7F DUP3 AND SWAP2 POP JUMPDEST PUSH1 0x20 DUP3 LT DUP2 SUB PUSH2 0x689 JUMPI PUSH2 0x688 PUSH2 0x632 JUMP JUMPDEST JUMPDEST POP SWAP2 SWAP1 POP JUMP JUMPDEST PUSH0 DUP2 SWAP1 POP DUP2 PUSH0 MSTORE PUSH1 0x20 PUSH0 KECCAK256 SWAP1 POP SWAP2 SWAP1 POP JUMP JUMPDEST PUSH0 PUSH1 0x20 PUSH1 0x1F DUP4 ADD DIV SWAP1 POP SWAP2 SWAP1 POP JUMP JUMPDEST PUSH0 DUP3 DUP3 SHL SWAP1 POP SWAP3 SWAP2 POP POP JUMP JUMPDEST PUSH0 PUSH1 0x8 DUP4 MUL PUSH2 0x6EB PUSH32 0xFFFFFFFFFFFFFFFFFFFFFFFFFFFFFFFFFFFFFFFFFFFFFFFFFFFFFFFFFFFFFFFF DUP3 PUSH2 0x6B0 JUMP JUMPDEST PUSH2 0x6F5 DUP7 DUP4 PUSH2 0x6B0 JUMP JUMPDEST SWAP6 POP DUP1 NOT DUP5 AND SWAP4 POP DUP1 DUP7 AND DUP5 OR SWAP3 POP POP POP SWAP4 SWAP3 POP POP POP JUMP JUMPDEST PUSH0 DUP2 SWAP1 POP SWAP2 SWAP1 POP JUMP JUMPDEST PUSH0 PUSH2 0x730 PUSH2 0x72B PUSH2 0x726 DUP5 PUSH2 0x397 JUMP JUMPDEST PUSH2 0x70D JUMP JUMPDEST PUSH2 0x397 JUMP JUMPDEST SWAP1 POP SWAP2 SWAP1 POP JUMP JUMPDEST PUSH0 DUP2 SWAP1 POP SWAP2 SWAP1 POP JUMP JUMPDEST PUSH2 0x749 DUP4 PUSH2 0x716 JUMP JUMPDEST PUSH2 0x75D PUSH2 0x755 DUP3 PUSH2 0x737 JUMP JUMPDEST DUP5 DUP5 SLOAD PUSH2 0x6BC JUMP JUMPDEST DUP3 SSTORE POP POP POP POP JUMP JUMPDEST PUSH0 PUSH0 SWAP1 POP SWAP1 JUMP JUMPDEST PUSH2 0x774 PUSH2 0x765 JUMP JUMPDEST PUSH2 0x77F DUP2 DUP5 DUP5 PUSH2 0x740 JUMP JUMPDEST POP POP POP JUMP JUMPDEST JUMPDEST DUP2 DUP2 LT ISZERO PUSH2 0x7A2 JUMPI PUSH2 0x797 PUSH0 DUP3 PUSH2 0x76C JUMP JUMPDEST PUSH1 0x1 DUP2 ADD SWAP1 POP PUSH2 0x785 JUMP JUMPDEST POP POP JUMP JUMPDEST PUSH1 0x1F DUP3 GT ISZERO PUSH2 0x7E7 JUMPI PUSH2 0x7B8 DUP2 PUSH2 0x68F JUMP JUMPDEST PUSH2 0x7C1 DUP5 PUSH2 0x6A1 JUMP JUMPDEST DUP2 ADD PUSH1 0x20 DUP6 LT ISZERO PUSH2 0x7D0 JUMPI DUP2 SWAP1 POP JUMPDEST PUSH2 0x7E4 PUSH2 0x7DC DUP6 PUSH2 0x6A1 JUMP JUMPDEST DUP4 ADD DUP3 PUSH2 0x784 JUMP JUMPDEST POP POP JUMPDEST POP POP POP JUMP JUMPDEST PUSH0 DUP3 DUP3 SHR SWAP1 POP SWAP3 SWAP2 POP POP JUMP JUMPDEST PUSH0 PUSH2 0x807 PUSH0 NOT DUP5 PUSH1 0x8 MUL PUSH2 0x7EC JUMP JUMPDEST NOT DUP1 DUP4 AND SWAP2 POP POP SWAP3 SWAP2 POP POP JUMP JUMPDEST PUSH0 PUSH2 0x81F DUP4 DUP4 PUSH2 0x7F8 JUMP JUMPDEST SWAP2 POP DUP3 PUSH1 0x2 MUL DUP3 OR SWAP1 POP SWAP3 SWAP2 POP POP JUMP JUMPDEST PUSH2 0x838 DUP3 PUSH2 0x2D4 JUMP JUMPDEST PUSH8 0xFFFFFFFFFFFFFFFF DUP2 GT ISZERO PUSH2 0x851 JUMPI PUSH2 0x850 PUSH2 0x472 JUMP JUMPDEST JUMPDEST PUSH2 0x85B DUP3 SLOAD PUSH2 0x65F JUMP JUMPDEST PUSH2 0x866 DUP3 DUP3 DUP6 PUSH2 0x7A6 JUMP JUMPDEST PUSH0 PUSH1 0x20 SWAP1 POP PUSH1 0x1F DUP4 GT PUSH1 0x1 DUP2 EQ PUSH2 0x897 JUMPI PUSH0 DUP5 ISZERO PUSH2 0x885 JUMPI DUP3 DUP8 ADD MLOAD SWAP1 POP JUMPDEST PUSH2 0x88F DUP6 DUP3 PUSH2 0x814 JUMP JUMPDEST DUP7 SSTORE POP PUSH2 0x8F6 JUMP JUMPDEST PUSH1 0x1F NOT DUP5 AND PUSH2 0x8A5 DUP7 PUSH2 0x68F JUMP JUMPDEST PUSH0 JUMPDEST DUP3 DUP2 LT ISZERO PUSH2 0x8CC JUMPI DUP5 DUP10 ADD MLOAD DUP3 SSTORE PUSH1 0x1 DUP3 ADD SWAP2 POP PUSH1 0x20 DUP6 ADD SWAP5 POP PUSH1 0x20 DUP2 ADD SWAP1 POP PUSH2 0x8A7 JUMP JUMPDEST DUP7 DUP4 LT ISZERO PUSH2 0x8E9 JUMPI DUP5 DUP10 ADD MLOAD PUSH2 0x8E5 PUSH1 0x1F DUP10 AND DUP3 PUSH2 0x7F8 JUMP JUMPDEST DUP4 SSTORE POP JUMPDEST PUSH1 0x1 PUSH1 0x2 DUP9 MUL ADD DUP9 SSTORE POP POP POP JUMPDEST POP POP POP POP POP POP JUMP INVALID LOG2 PUSH5 0x6970667358 0x22 SLT KECCAK256 ADDMOD CALL PUSH24 0xDDE518D71FDE5D14C7108A499BD86CE8A0016A8CEFD9ED82 CALLF 0x4A97 0x28 PUSH13 0x64736F6C634300081E00330000 "
		},
		"gasEstimates": {
			"creation": {
				"codeDepositCost": "471200",
				"executionCost": "infinite",
				"totalCost": "infinite"
			},
			"external": {
				"age()": "2470",
				"getPersonInfo()": "infinite",
				"isActive()": "2489",
				"name()": "infinite",
				"updateActiveStatus(bool)": "24739",
				"updateAge(uint256)": "22537",
				"updateName(string)": "infinite"
			}
		},
		"methodIdentifiers": {
			"age()": "262a9dff",
			"getPersonInfo()": "34d24383",
			"isActive()": "22f3e2d4",
			"name()": "06fdde03",
			"updateActiveStatus(bool)": "8ba7fe81",
			"updateAge(uint256)": "7d625c07",
			"updateName(string)": "84da92a7"
		}
	},
	"abi": [
		{
			"inputs": [
				{
					"internalType": "string",
					"name": "_name",
					"type": "string"
				},
				{
					"internalType": "uint256",
					"name": "_age",
					"type": "uint256"
				},
				{
					"internalType": "bool",
					"name": "_isActive",
					"type": "bool"
				}
			],
			"stateMutability": "nonpayable",
			"type": "constructor"
		},
		{
			"inputs": [],
			"name": "age",
			"outputs": [
				{
					"internalType": "uint256",
					"name": "",
					"type": "uint256"
				}
			],
			"stateMutability": "view",
			"type": "function"
		},
		{
			"inputs": [],
			"name": "getPersonInfo",
			"outputs": [
				{
					"internalType": "string",
					"name": "",
					"type": "string"
				},
				{
					"internalType": "uint256",
					"name": "",
					"type": "uint256"
				},
				{
					"internalType": "bool",
					"name": "",
					"type": "bool"
				}
			],
			"stateMutability": "view",
			"type": "function"
		},
		{
			"inputs": [],
			"name": "isActive",
			"outputs": [
				{
					"internalType": "bool",
					"name": "",
					"type": "bool"
				}
			],
			"stateMutability": "view",
			"type": "function"
		},
		{
			"inputs": [],
			"name": "name",
			"outputs": [
				{
					"internalType": "string",
					"name": "",
					"type": "string"
				}
			],
			"stateMutability": "view",
			"type": "function"
		},
		{
			"inputs": [
				{
					"internalType": "bool",
					"name": "newStatus",
					"type": "bool"
				}
			],
			"name": "updateActiveStatus",
			"outputs": [],
			"stateMutability": "nonpayable",
			"type": "function"
		},
		{
			"inputs": [
				{
					"internalType": "uint256",
					"name": "newAge",
					"type": "uint256"
				}
			],
			"name": "updateAge",
			"outputs": [],
			"stateMutability": "nonpayable",
			"type": "function"
		},
		{
			"inputs": [
				{
					"internalType": "string",
					"name": "newName",
					"type": "string"
				}
			],
			"name": "updateName",
			"outputs": [],
			"stateMutability": "nonpayable",
			"type": "function"
		}
	]
}